:100000000C9441020C9462020C9462020C94620201
:100010000C9462020C9462020C9462020C946202D0
:100020000C9462020C9462020C9462020C94942868
:100030000C9462020C9462020C9462020C946202B0
:100040000C9462020C9407290C9462020C946202D4
:100050000C9462020C9462020C9462020C94D628F6
:100060000C9462020C94832B0C94332C0C9462023B
:100070000C9462020C9462020C9462020C94620270
:100080000C9462020C9462020C9462020C94832819
:100090000C9462020C9462020C9462020C94620250
:1000A0000C9462020C9462020C9462020C94620240
:1000B0000C9462020C9462020C9462020C94620230
:1000C0000C9462020C9462020C9462020C94620220
:1000D0000C9462020C9462020C9462020C94620210
:1000E0000C946202084AD73B3BCE016E84BCBFFD34
:1000F000C12F3D6C74319ABD56833DDA3D00C77FF8
:1001000011BED9E4BB4C3E916BAAAABE0000008090
:100110003F000C944C320C942B320C94092C0C9410
:10012000052C0C949A1F0C94D42E0C948A1E0C94BB
:100130009F1F0C9458320C9477320C94311F0C94FE
:100140009D320C94112C0C940B2C0C94D62B0C94EB
:10015000EF2B0C94132C0C944F320C947D1E0C94AA
:100160002E320C941D320C94FF2B0C941B2C0C94EF
:10017000172C0C94032C0C9461320C94C0320C9408
:10018000DD320C94151F0C94152C0C9423320C9416
:10019000072C0C94D4320C946D320C94B1320C9424
:1001A000A8320C9426320C94C9320C94A5320C94CB
:1001B00038320C94231F0C945B1F0C940D2C0C9460
:1001C000FB2B0C94ED2B0C943F1F0C9440320C94A1
:1001D000012C0C94121F0C94BA320C941D2C0C940C
:1001E000192C0C944D1F0D0A3D3E20447261672D61
:1001F0004C6F6767657220312E322D4F5A205B2776
:10020000242720666F722068656C705D0D0A0024DB
:100210004E005B4F50543A003A005B4158533A004D
:100220005B5645523A312E322D4F5A2E31312D31F7
:10023000312D323032353A005B544C4F3A005B4737
:1002400039323A003330003238005B47005B4C6192
:100250006D70753A005B53656E736F723A0020479C
:1002600000204D0020530020460020540033382E3B
:10027000005B47433A47005B484C503A2424202413
:100280002320244420244720244920244E2024785D
:100290003D76616C20244E783D6C696E6520244A61
:1002A0003D6C696E652024534C5020244320245813
:1002B000202448207E2021203F206374726C2D78FA
:1002C0005D0D0A00414C41524D3A000D0A006F6B22
:1002D0000D0A005B5052423A007C53746172743ACA
:1002E000007C53746172744D657261683A007C538E
:1002F000746172744C616D70753A007C53746167FF
:10030000654C616D70753A007C5374616765536527
:100310006E736F723A007C42663A00536C6565708A
:1003200000446F6F723A00436865636B00416C6113
:10033000726D00486F6D65004A6F6700486F6C64AE
:100340003A004379636C650049646C6500657272BC
:100350006F723A00536C656570696E670052657321
:10036000746F72696E67207370696E646C65005299
:100370006573746F72696E672064656661756C740D
:10038000730050676D20456E6400436865636B20A1
:100390004C696D69747300436865636B20446F6FCB
:1003A000720044697361626C656400456E61626CE1
:1003B00065640043617574696F6E3A20556E6C6FA9
:1003C000636B656400272448277C27245827207402
:1003D0006F20756E6C6F636B00526573657420746B
:1003E0006F20636F6E74696E7565005B4D53473A9D
:1003F000005A5A5A5A5A5A5A005959595959590071
:1004000058585858585858005B475D204D45524140
:10041000480D0A005B515D20474F4F4F4F4F0D0A6B
:10042000005B475D204D455241480D0A005B465D2B
:100430002048494A41550D0A005B455D204B554E09
:10044000494E4720330D0A005B445D204B554E4911
:100450004E4720320D0A005B435D204B554E494EFE
:100460004720310D0A005B425D2053544147450D42
:100470000A005B415D205052452D53544147450DC4
:100480000A0011241FBECFEFD1E2DEBFCDBF00E0D6
:100490000CBF12E0A0E0B2E0E2E3FFE600E00BBF39
:1004A00002C007900D92AC30B107D9F72FE0ACE055
:1004B000B2E001C01D92AA38B207E1F70E945E2C9B
:1004C0000C9497370C9400008F929F92AF92BF923A
:1004D000CF92DF92EF92FF920F931F93CF93DF9310
:1004E0007C016B01DC01EC91F0E0E657F14F80817B
:1004F000EF018D3229F52296818101E0912CF0E007
:1005000010E020E030E0A9015E01E0EDE80FEA3004
:1005100018F5FF5FF930E0F491101150A5E0B0E05C
:100520000E9470379B01AC01220F331F441F551FDF
:100530002E0F311D411D511D2196D5018C91E4CF07
:100540008B3219F0219600E0D9CF22968181FBCF22
:100550009110F2CF1F5FF0CFEE3F29F4911003C04E
:1005600099249394E9CFFF23F9F0CA01B9010E94BD
:1005700000354B015C0120E030E0A9010E945334BA
:1005800081112BC0002309F445C0B7FAB094B7F825
:10059000B094F60180829182A282B382CA58DE4072
:1005A000C150F701C083F1E08F2FDF91CF911F91F0
:1005B0000F91FF90EF90DF90CF90BF90AF909F9002
:1005C0008F9008952AE037ED43E25CE3C501B40162
:1005D0000E9471364B015C011E5F1F3F9CF31F3F61
:1005E00059F42DEC3CEC4CEC5DE3C501B4010E94E8
:1005F00071364B015C01C6CF112321F220E030E0BF
:1006000040E251E4C501B4010E9471364B015C0126
:100610001150F2CFD6018D929D92AD92BC9213975C
:10062000BDCF2FB7F8949091880D892B8093880DBA
:100630002FBF08952FB7F8949091870D892B809341
:10064000870D2FBF08959FB7F8948093860D9FBFA5
:1006500008959FB7F8942091850D8095822380930B
:10066000850D9FBF08952FB7F8949091850D892B24
:100670008093850D2FBF08954F925F926F927F9266
:10068000AF92BF92CF92DF92EF92FF920F931F93A0
:10069000CF93DF930FED1DE0EC015C018CE0A80E21
:1006A000B11CF801C190D190E190F1908F0120E050
:1006B00030E0A901C701B6010E9453348823A9F094
:1006C000488059806A807B8020E030E0A901C30126
:1006D000B2010E9431361816E4F0A3019201C7015D
:1006E000B6010E9431361816A4F02496CA15DB050F
:1006F000C1F680E0DF91CF911F910F91FF90EF90B5
:10070000DF90CF90BF90AF907F906F905F904F90B1
:10071000089581E0EFCF8F929F92AF92BF92CF92D8
:10072000DF92EF92FF920F931F93CF93DF93EB0132
:100730002BEBE22E2DE0F22E8C016B018CE0C80E2B
:10074000D11C6991799189919991F701819091904A
:10075000A190B1907F010E940235A50194010E94F1
:100760005834F80161937193819391938F01CC1563
:10077000DD0539F7DF91CF911F910F91FF90EF9039
:10078000DF90CF90BF90AF909F908F900895909101
:100790000601892F8E7159F094FB882780F921E09A
:1007A000822791FF826092FF846093FF88600895A2
:1007B0006F927F928F929F92AF92BF92CF92DF9271
:1007C000EF92FF920F931F93CF93DF93EB018C0176
:1007D0005B018CE0A80EB11C89E9682E96E7792EA2
:1007E00026E9822E3EE7932EC990D990E990F990A0
:1007F00020E030E0A901C701B6010E9453348823EC
:10080000B9F0A7019601F80160817181828193811D
:100810000E9458346B017C01E894F7F89301A4011D
:10082000C701B6010E943136181614F0360147018F
:100830000C5F1F4FCA15DB05B9F6B301C401DF9188
:10084000CF911F910F91FF90EF90DF90CF90BF90CD
:10085000AF909F908F907F906F900895E1E6FDE0BC
:10086000ABE8BDE04D915D916D917C911397408314
:1008700051836283738314964D915D916D917C9148
:100880001797448355836683778318968D919D913E
:100890000D90BC91A02D80879187A287B387089582
:1008A000BF92CF92DF92EF92FF920F931F93CF935D
:1008B000DF937C01FC0100A911A9D2A9C3A98389F6
:1008C00080FF33C06091AE0D70E090E080E00E9448
:1008D00002352AE037ED43E25CE30E9471369B016A
:1008E000AC01B8018D2F9C2F0E9471368B01D82F3F
:1008F000C92F20E030E040E85FE3B8018D2F9C2F46
:100900000E943136181624F000E010E0D0E8CFE362
:10091000B8018D2F9C2FDF91CF911F910F91FF90E8
:10092000EF90DF90CF90BF90089582FD17C0609147
:10093000AD0D70E090E080E00E9402352AE037EDD6
:1009400043E25CE30E9471369B01AC01B8018D2F3C
:100950009C2F0E9471368B01D82FC92FF701B4A4A8
:10096000C5A4D6A4F7A498014D2F5C2F6B2D7C2D28
:100970008D2D9F2D0E94533487FFBBCF0B2D1C2D37
:10098000DD2DCF2DB6CF8091810D9091820D9817DE
:1009900039F028E3829FC00111248F579A4F0895A0
:1009A00090E080E00895F894F999FECF92BD81BD62
:1009B00081E08FBB20B5862F8227082E000C990B73
:1009C00050E086239523892B49F084E16F3F11F095
:1009D00060BD84E08FBBF99A789408952617E1F3FF
:1009E00060BD84E2F7CF9F92AF92BF92CF92DF9229
:1009F000EF92FF920F931F93CF93DF935C018A01D5
:100A00007B01E40EF51EEB01912C6C01C61AD70A8E
:100A1000CE018C0D9D1D21E0911007C0292D990C50
:100A2000330B232F221F2227221F6991962E920E0D
:100A30000E94D304CE15DF0559F7692DC501800F3B
:100A4000911FDF91CF911F910F91FF90EF90DF9059
:100A5000CF90BF90AF909F900C94D3046AE090E049
:100A600080E00E94D30449E550E067EB7DE081E03F
:100A700090E00C94F304F999FECF92BD81BD81E022
:100A80008FBB80B508959F92AF92BF92CF92DF92B5
:100A9000EF92FF920F931F93CF93DF935B018A0135
:100AA0007C01E40EF51EEC01912C6B01C81AD90AE9
:100AB000C6018C0F9D1F0E943B0521E0911007C0CD
:100AC000292D990C330B232F221F2227221F982E0A
:100AD000920E8993CE15DF0559F7C501800F911F3E
:100AE0000E943B0521E030E0891511F030E020E064
:100AF000C901DF91CF911F910F91FF90EF90DF908F
:100B0000CF90BF90AF909F900895CF93DF93C09107
:100B10007D05D0917E052097C9F080914D058160BB
:100B200080934D0560916305709164058091650522
:100B3000909166059B01AC010E947136688F798F98
:100B40008A8F9B8F10927E0510927D05DF91CF9149
:100B500008952F923F924F925F926F927F928F9261
:100B60009F92AF92BF92CF92DF92EF92FF920F933C
:100B70001F93CF93DF9300D01F92CDB7DEB70091C4
:100B8000820D002309F486C00983398131503983ED
:100B900010917F05131709F466C0C32ED12CE8E32A
:100BA0003E9FC00111249C012F573A4F7901F90152
:100BB000748C858C968CA78C60A171A182A193A165
:100BC0009B01AC010E945E33F70124A135A146A12F
:100BD00057A10E947136B62EE72EF82E9B83262F42
:100BE000372F482F592F672D782D892D9A2D0E9448
:100BF000533487FF03C0B72C7401AB8288E38C9D0C
:100C0000F0018D9DF00D1124EF57FA4F8B2D9E2D85
:100C1000AF2DBB81808F918FA28FB38FF9818F2FE2
:100C2000F11101C084E2FF24FA94F80E3090810D96
:100C30001F1133C0131102C00E948505E8E31E9FF7
:100C4000C00111248F579A4F9A8389833324339498
:100C5000310EF4E23F1201C0312C88E3282E03113B
:100C600085C010937F050F900F900F900F90DF912C
:100C7000CF911F910F91FF90EF90DF90CF90BF9099
:100C8000AF909F908F907F906F905F904F903F902C
:100C90002F90089524E2298378CF298188E3289F23
:100CA000900111242F573A4F3C832B8328E3E22EE7
:100CB0008F2C912CFE9CC0011124FC01EF57FA4FA0
:100CC000FA83E983F11002C094E2F92EFA94F3104A
:100CD00002C00E948505E89CC001E99C900D11248A
:100CE0009C012F573A4F6901F901448C558C668C51
:100CF000778CA3019201608D718D828D938D0E94FE
:100D00005334882339F1F60160A171A182A193A126
:100D10009B01AC010E945E33F60124A135A146A1DE
:100D200057A10E947136EB81FC81208D318D428D5F
:100D3000538D0E945E334B015C01AC019B01C301EA
:100D4000B2010E943136F60118165CF4808E918E45
:100D5000A28EB38E29813A813C832B831F11A8CFA9
:100D60006DCF408E518E628E738EF4CFC32CD12CFA
:100D7000329CC00111249C012F573A4F7901E9811F
:100D8000FA81408C518C628C738CF901808C918C2F
:100D9000A28CB38CA5019401C301B2010E9453340B
:100DA00087FF26C0E981FA8160A171A182A193A188
:100DB0009B01AC010E945E33E981FA8124A135A137
:100DC00046A157A10E947136A30192010E945E3391
:100DD0002B013C01AC019B01C501B4010E943136DD
:100DE000181634F4F701408E518E628E738E132DD7
:100DF0002C9CF0012D9CF00D1124EF57FA4F248DFF
:100E0000358D468D578D608D718D828D938D0E94AD
:100E10005334811101C0132D3394F4E23F1201C009
:100E2000312CFA82E9821BCFCF93DF932091EC0D16
:100E300030E04091ED0D50E0A8E1B4E0E5E1F4E0F0
:100E400090E080E0682FE901082E02C0D595C79593
:100E50000A94E2F7C0FF1DC0882319F078E08130C2
:100E600009F470E47083EA0102C0D595C7956A95CC
:100E7000E2F7C0FF10C062E0813009F460E86C93D3
:100E800001961196319683309105E1F6DF91CF916D
:100E900008951082E8CF1C92F3CF8091000E82FF5C
:100EA00025C05F9A80910801846080930801809139
:100EB00008018160809308018091150480932A04C1
:100EC0008091160480932B048091170480932C0446
:100ED0008091EB0D8250990B880F819580932904A6
:100EE00080916F00826080936F0008955F98809179
:100EF00008018B7F80930801809108018E7FDACFF3
:100F00000E94C304892B19F082E00C9433030895E6
:100F1000E091130291E09E0F20911403291761F0D4
:100F2000F0E0EC5EFD4F8083909313028091C1004E
:100F300080628093C10004C02091850D24FFECCF16
:100F40000895CF93DF93CAE8DEE08991811103C051
:100F5000DF91CF9108950E948807F7CFCF93C82FD4
:100F600081E3C0FF80E30E94880781E3C1FF80E343
:100F70000E94880781E3C2FF80E30E94880781E323
:100F8000C3FF80E3CF910C9488078F929F92AF921A
:100F9000BF92CF92DF92EF92FF920F931F93CF9366
:100FA000DF93CDB7DEB72D970FB6F894DEBF0FBE37
:100FB000CDBF6B017C01042F20E030E0A9010E942D
:100FC000533487FF07C08DE20E948807F7FAF09438
:100FD000F7F8F094102F123008F054C000FF0AC048
:100FE00020E030E040E251E4C701B6010E947136D2
:100FF0006B017C0120E030E040E05FE3C701B60117
:101000000E945E330E94CA3410E03AE0832E912C95
:10101000A12CB12CE12FF0E061157105810591053E
:10102000E9F581E090E08C0F9D1FE80FF91F80E348
:10103000101708F445C0101309C0E1E0F0E0EC0F10
:10104000FD1FE10FF11D80E380831F5FEE24E39419
:10105000F12CEC0EFD1EE10EF11C111134C02D9689
:101060000FB6F894DEBF0FBECDBFDF91CF911F91B9
:101070000F91FF90EF90DF90CF90BF90AF909F9037
:101080008F90089520E030E048EC52E4C701B601AB
:101090000E9471366B017C0112509DCFEE24E394C7
:1010A000F12CEC0EFD1EEE0EFF1EA50194010E9418
:1010B0004637605DF7016083B901CA011F5FAACF9F
:1010C0001F5F8193B5CF101303C08EE20E94880783
:1010D000F70182917F010E9488071150BECF2091B5
:1010E000000E43E020FF07C02BE832E441E25DE35D
:1010F0000E94713644E00C94C5070F931F93CF9361
:101100008C01C0E0F80161917191819191918F0101
:101110000E946F08C23019F08CE20E948807CF5FEE
:10112000C33081F7CF911F910F910895CF93DF9333
:10113000843658F06AE00E943A37C0E3C90F6AE08B
:101140000E943A37D0E3D90F04C0C0E0D0E08A3023
:10115000B0F7805D0E948807DD2319F08D2F0E9473
:101160008807CC2329F08C2FDF91CF910C9488072E
:10117000DF91CF910895CF93DF93EC01FE0184912D
:101180002196811103C0DF91CF9108950E948807B5
:10119000F5CF8BEC92E00C94BB08CF93C82F8DE475
:1011A00093E00E94BB088C2F0E949608CF910C946C
:1011B000C908811104C08EEC92E00C94BB080C9419
:1011C000CD08CF92DF92EF92FF9281E08093800D65
:1011D000C090B70DD090B80DE090B90DF090BA0D59
:1011E00084E20E94880780E00E9496088DE30E94B6
:1011F000880740E0C701B6010E94C507FF90EF9045
:10120000DF90CF900C94C9088DE50E9488070C945C
:10121000C908CF93DF93CDB7DEB72C970FB6F894FC
:10122000DEBF0FBECDBF83ED92E00E94BB0867E931
:101230007DE0CE0101960E948B03CE0101960E94B3
:101240007D088AE30E9488078091A90D0E94960874
:101250000E9404092C960FB6F894DEBF0FBECDBFD6
:10126000DF91CF9108959091A50D91110CC086FF4B
:101270000BC02C9A87FF0AC0809102018064809382
:1012800002011092B10D08952C98F4CF80910201C3
:101290008F7BF5CF2C98E2E0F1E080818F7B80831B
:1012A00008959091A50D91110EC080FF0DC010986A
:1012B00081FF0CC0409882FF0BC0119883FF0AC0C9
:1012C00041981092B10D0895109AF2CF409AF3CF41
:1012D000119AF4CF419AF5CF9091A50D911108C0C4
:1012E00080FF07C0159881FF06C045981092B10D88
:1012F0000895159AF8CF459AF9CF9091A50D9111BF
:1013000008C080FF07C0149881FF06C0449810925F
:10131000B10D0895149AF8CF449AF9CF9091A50D84
:10132000911108C080FF07C0139881FF06C0439841
:101330001092B10D0895139AF8CF439AF9CF909176
:10134000A50D911108C080FF07C0129881FF06C04B
:1013500042981092B10D0895129AF8CF429AF9CF9F
:101360009091A50D911108C080FF07C0169881FFCC
:1013700006C046981092B10D0895169AF8CF469A75
:10138000F9CF8091090181709091090191FD8260EE
:101390009091090192FD84609091090193FD88600C
:1013A0009091090194FD80619091090196FD806200
:1013B0009091090195FD80649091090197FD8068E5
:1013C00008959093AD008093AC00892B31F4809107
:1013D000A000877F8093A00008958091A00088607E
:1013E000F9CFE0EAF0E08081877F8083A5980895B7
:1013F000E0EAF0E08081877F80839D9A83E08083AC
:101400008AE18093A10080E094E09093A90080930A
:10141000A8009D9A6B9A2091FC0D3091FD0D409192
:10142000FE0D5091FF0D6091F80D7091F90D8091B6
:10143000FA0D9091FB0D0E945D339B01AC0160E0C1
:1014400070EC8FE794E40E94583460930F0270931D
:10145000100280931102909312020C94F109E1E6BC
:10146000FDE08CE1DF011D928A95E9F71092810D74
:101470001092820D81E08093800510927F0508957F
:101480004F925F926F927F928F929F92AF92BF9294
:10149000CF92DF92EF92FF920F931F93CF93DF9340
:1014A000EC018DE7E82E8DE0F82E6E01812C912C59
:1014B000540110E0EDE7FDE080E007C02191D70185
:1014C0009C91291709F464C08F5F8113F7CF00E066
:1014D000F60141905190619071906F0120E030E0F1
:1014E000A901C301B2010E945334882381F0011184
:1014F0000EC0A3019201C301B2010E9471369B018B
:10150000AC01C501B4010E945E334B015C011F5F59
:10151000FFEFEF1AFF0A133069F6C501B4010E940C
:10152000E4366B017C01AC019B0160E070E080E877
:101530009FE30E9458342B013C018E01045F1F4F32
:1015400069917991899199915E0124E0A21AB1087B
:10155000A30192010E947136D5016D937D938D9305
:101560009C931397C017D10759F7C701B601DF91B4
:10157000CF911F910F91FF90EF90DF90CF90BF9090
:10158000AF909F908F907F906F905F904F90089555
:1015900001E09ECF4F925F926F927F928F929F92C7
:1015A000AF92BF92CF92DF92EF92FF926B017C01DC
:1015B0008090FC0D9090FD0DA090FE0DB090FF0D61
:1015C0004090F80D5090F90D6090FA0D7090FB0D61
:1015D000A3019201C501B4010E94313687FF1BC0EF
:1015E0006091AF0D70E090E080E00E9402352AE04B
:1015F00037ED43E25CE30E947136A70196010E9439
:1016000071366B017C01AC019B01C301B2010E94E8
:1016100053341816BCF04092B30D5092B40D609242
:10162000B50D7092B60D80E094E0FF90EF90DF90E2
:10163000CF90BF90AF909F908F907F906F905F9072
:101640004F900895A7019601C501B4010E9431365B
:1016500087FD1FC020E030E0A901C701B6010E944C
:10166000533481110BC01092B30D1092B40D10922F
:10167000B50D1092B60D90E080E0D7CF8092B30DFB
:101680009092B40DA092B50DB092B60D81E090E0AD
:10169000CCCFC092B30DD092B40DE092B50DF092C4
:1016A000B60DA5019401C701B6010E945D332091DA
:1016B0000F023091100240911102509112020E94CB
:1016C00071360E943D3520E030E040E85FE30E9443
:1016D0005E330E94D134CB01A8CF9091A50D91111A
:1016E0000EC081110DC01092B30D1092B40D109266
:1016F000B50D1092B60D0E94F1091092B10D08952A
:10170000803191F473989091000E91FF05C0803262
:1017100019F440E050E0BA01CB01BA010E94CA0AB4
:101720000E94E109A59AE9CF739AEDCF019708F4D9
:101730000895EFE9FFE03197F1F700C00000F6CF20
:101740004F925F926F927F929F92AF92BF92CF9291
:10175000DF92EF92FF920F931F93CF93DF93CDB75A
:10176000DEB7A4970FB6F894DEBF0FBECDBF8CE0F6
:10177000EBE8FDE0DE01119601900D928A95E1F70C
:10178000BE016F5F7F4FCE010D960E948B038CE3ED
:101790000E9488078091A40D883009F4EBC008F0FE
:1017A000C6C0813009F4EFC008F4DFC0823009F40C
:1017B000EDC0843009F4E4C0E090EF0D2E2D2170CF
:1017C000922EE0FE04C08091B20D81114BC040907A
:1017D0004C0E50904D0E60904E0E70904F0E84E364
:1017E000C82E8EE0D82E5E0189E1A80EB11C8E01B4
:1017F000035F1F4FF12CF6016191719181919191DD
:101800006F0120853185428553850E945E33F50145
:1018100061937193819391935F01F2E0FF12CBC0CA
:10182000A30192010E945E3369A37AA38BA39CA3B8
:10183000911018C0F5013497208131814281538184
:10184000F80160817181828193810E945D33F8018A
:101850006083718382839383F3940C5F1F4FF3E063
:10186000FF12C9CFE1FE20C086E193E00E94BB08D1
:101870009091820D8091810D981708F4A0C08D5D24
:10188000891B0E9496088CE20E9488078091840D33
:101890009091830D981708F494C09091830D981B34
:1018A000892F80950E9496080E94C109182F8823CD
:1018B000D9F088E093E00E94BB0881E310FF80E349
:1018C0000E94880781E311FF80E30E94880781E37B
:1018D00012FF80E30E94880781E313FF80E30E94E8
:1018E0008807812F0E94510912B110951170409BF9
:1018F0001260119B1460419969C018608BEF92E0EF
:101900000E94BB0881E310FF80E30E94880781E307
:1019100011FF80E30E94880781E312FF80E30E94A9
:10192000880781E313FF80E30E94880751C080325B
:1019300021F198F4803109F03FCF8091A60D87FD09
:101940001CC08CE393E00E94BB088091A60D80FF31
:101950002EC080E30E9488072FCF8034D1F08038DA
:1019600009F02ACF8BE193E002C088E493E00E9463
:10197000BB0822CF82E493E0FACF88E393E0F7CF6D
:1019800083E393E0F4CF8DE293E0F1CF87E293E03D
:10199000EECF81E293E00E94BB088091A60D83FF09
:1019A00002C083E3D7CF82FF04C085FFD2CF81E39B
:1019B000D1CF82E3CFCF992009F43CCF4DCF8150D6
:1019C0005FCF9091830D8150891B6CCF111196CF01
:1019D000E2B0E2FAEE24E0F881E0E826429902C0A3
:1019E0006894E1F8F2B0F3FAFF24F0F881E0F82609
:1019F000439902C06894F1F802B10295017081E048
:101A00000827449B026012B115FB112710F981E0F1
:101A10001827459B12608F2D8E29802B812B91F1E9
:101A20008EEE92E00E94BB0881E3E0FE80E30E941C
:101A300088078E2D827009F4CAC081E30E9488074E
:101A400081E3F0FE80E30E9488078F2D827009F405
:101A5000C0C081E30E94880781E300FF80E30E9409
:101A60008807027081E309F480E30E94880781E31C
:101A700010FF80E30E948807127081E309F480E37D
:101A80000E94880782B111E0982F907486FD10E0C3
:101A90004699A1C0126081EE92E00E94BB0881E3EA
:101AA00010FF80E30E94880781E311FF80E30E941A
:101AB00088078091060180FD6FC089ED92E00E9449
:101AC000BB0881E30E94880780E00E949F0980E0B4
:101AD0000E948E0980E00E947D0980E00E946C09CE
:101AE0000E94C109182F882309F456C080FF39C00D
:101AF000082F047086708630D1F413FF18C083E07D
:101B00000E949F0988EC90E00E94960B83E00E945F
:101B10008E0988EC90E00E94960B83E00E947D097C
:101B200088EC90E00E94960B83E00E946C090023F1
:101B3000C1F081E00E949F0988EC90E00E94960B22
:101B400081E00E948E0988EC90E00E94960B81E073
:101B50000E947D0988EC90E00E94960B81E00E9433
:101B60006C091A701A30C1F482E00E949F0988EC57
:101B700090E00E94960B82E00E948E0988EC90E033
:101B80000E94960B82E00E947D0988EC90E00E9402
:101B9000960B82E00E946C098EE30E9488070E94E7
:101BA000C908A4960FB6F894DEBF0FBECDBFDF9173
:101BB000CF911F910F91FF90EF90DF90CF90BF904A
:101BC000AF909F907F906F905F904F90089580E3CB
:101BD00035CF80E33FCF91116CCF11E05CCF809186
:101BE0006F008D7F80936F0080918100887F81607E
:101BF0008093810010921B048091EE0D9091A40DB2
:101C00008F3FF1F42091860D21111AC09038D1F444
:101C100090E00E94960B81E09091000E92FF02C02E
:101C200091E08927882381F05F9A80910801846080
:101C300080930801809108018160809308010895D4
:101C4000943031F780E0E8CF5F98809108018B7F76
:101C500080930801809108018E7FEFCF0F931F932F
:101C6000CF93DF930E94EF0DECE4F5E081E3DF0119
:101C70001D928A95E9F70CE114E087E2F8011192D0
:101C80008A95E9F710927E0510927D051092430423
:101C90001092950481E08093440410921B040E94EA
:101CA0001407C8E1D4E08881D80151968C935197EC
:101CB000898152968C9352973A8153963C93E8E0EF
:101CC000F1E020812F7BA5E1B4E09C91292B2083BA
:101CD00020812D7F9881292B208320812F7B1196B5
:101CE0009C911197292B208390819F77982B90832B
:101CF0009081977F12968C91982B908380818D7F15
:101D0000832B8083DF91CF911F910F910895809154
:101D1000850D84FD1DC080E10E9433030E94F109FE
:101D20000E944A099091A40D892F8C7221F4809110
:101D3000A80D867069F0943049F48091860D811168
:101D400003C086E00E9423030C94EF0D83E0FACFDA
:101D500008952F923F924F925F926F927F928F924F
:101D60009F92AF92BF92CF92DF92EF92FF920F932A
:101D70001F93CF93DF93CDB7DEB7EB970FB6F894F1
:101D8000DEBF0FBECDBF8091A80D80FD4AC29091ED
:101D9000430480914404981709F443C280917D055F
:101DA00090917E05892B09F07EC01091A80D12FF3D
:101DB00051C28091820D28E3829FC00111248F5768
:101DC0009A4F90937E0580937D0540917D055091BB
:101DD0007E055A874987452B09F423C200914D059A
:101DE00000FF3BC210924D0510925F0510926005F6
:101DF0001092610510926205A985BA8590962D9181
:101E00003D914D915C91939729833A834B835C83F9
:101E100060E070E080E09FE30E9458346D837E8331
:101E20008F839887E985FA8544A055A066A077A09E
:101E3000808C918CA28CB38C11FF04C3F2E0F093E0
:101E40005E05A50194010E9471369B01AC01C3019E
:101E5000B2010E945D336B017C0120E030E0A901FA
:101E60000E94533487FFDDC229813A814B815C8116
:101E7000CA01B9010E945E33A30192010E9471362A
:101E80009B01AC01C501B4010E945D330E94E436A0
:101E900060936B0570936C0580936D0590936E0550
:101EA00018601093A80DE0919504F8E0EF9FD00121
:101EB0001124BA8BA98BFD01EB5BFB4F80914C0584
:101EC000848320917D0530917E053A872987D90149
:101ED0009496BC91BDA3F901F5A1FEA3D9019696F4
:101EE000BC91BFA3F901F7A1F8A720915A05309141
:101EF0005B0540915C0550915D056DA17EA18B2F26
:101F00009F2F0E945D3369AB7AAB8BAB9CAB20E01B
:101F100030E0A9010E94533487FF04C019AA1AAA0D
:101F20001BAA1CAA209167052D8B309168053E8B5A
:101F3000409169054F8B50916A05588F80916F05CC
:101F40008D8F909170059E8FA0917105AF8FB0918C
:101F50007205B8A3E0917305E9A7F0917405FAA79B
:101F6000209175052BA7309176053CA7409163051C
:101F70004AAF509164055BAF00916505109166050D
:101F800080915E058D8790915F059DA7A09160056A
:101F9000AEA7B0916105BFA7E0916205E8ABF091F3
:101FA0006B05FEAB20916C052FAB30916D0538AF02
:101FB00040916E0549AF29A53AA54BA55CA56D8D4D
:101FC0007E8D8F8D98A10E9453348111CAC352E037
:101FD0005DAB9DA1998FAEA1AA8FBFA1BB8FE8A5D4
:101FE000EC8F8EE3C82E83ECD82E8EE2E82E89E3A8
:101FF000F82E412C512C3201A701960129A33AA3B6
:102000004BA35CA35D85513009F446C4A985BA850C
:10201000513008F4D6C3533009F074C490962D9112
:102020003D914D915C919397C701B6010E94713625
:102030004B015C012D893E894F89588D6AAD7BAD7E
:10204000C8010E945D339B01AC01C501B4010E942F
:10205000313687FD90C32D8D3E8D4F8D58A16DA1DA
:102060007EA18FA198A50E945D339B01AC010E94C7
:102070005E336B017C012D893E894F89588D6AAD95
:102080007BADC8010E945E339B01AC01C701B60164
:102090000E9458346B017C01BD89BAAFEE89EBAF69
:1020A0000F89188D2D8C3E8CFF8DF98328A12D83EF
:1020B00031E03D87A7019601C301B2010E945E3362
:1020C0002B013C0129A13AA14BA15CA10E945334F0
:1020D00087FF82C4A301920169A17AA18BA19CA16F
:1020E0000E945D336B017C01910149815D816DA589
:1020F0007EA58FA598A90E94533487FD35C38AAD6C
:102100009BADD8018093630590936405A09365050A
:10211000B09366053D8530935E05E0919604F0919D
:1021200097048389811104C09091A80D93FF32C058
:10213000A985BA8553969C915397907309F477C4F7
:10214000D496CD90DD90ED90FC90D7978823A9F0A0
:1021500020917705309178054091790550917A0565
:102160006AAD7BADC8010E9471369B01AC01C7010D
:10217000B6010E9471366B017C01C701B6010E9455
:10218000CA0A90937C0580937B058091A80D877F78
:102190008093A80D80917B0590917C05E989FA894F
:1021A000EB5BFB4FFAA3E9A3978386832091560547
:1021B000309157054091580550915905B1018981D9
:1021C0009D810E94713669877A878B879C870E94E0
:1021D0003C346B017C0160915205709153058091F4
:1021E0005405909155050E943C344B015C01A701B8
:1021F00096010E945D330E94D1346D877E878F8760
:10220000988BED85FE85A9A1BAA1ED93FC93EF2BE8
:1022100009F01AC48091A80D81FF16C481608093D3
:10222000A80DEB960FB6F894DEBF0FBECDBFDF91C1
:10223000CF911F910F91FF90EF90DF90CF90BF90C3
:10224000AF909F908F907F906F905F904F903F9056
:102250002F9008950E94C304B4CD80914C058F5FE8
:10226000893009F480E080934C05282F30E054E158
:10227000859FC0011124DC01A856BB4F7D01B0939E
:102280009704A0939604E985FA85808950968C93EB
:102290005097818951968C935197828952968C934D
:1022A00090E080E04191519161917191D701A80F27
:1022B000B91F689412F8440F551F661F771F1694B4
:1022C000D1F74D935D936D937C93139704968C3067
:1022D000910541F7A985BA851C966D917D918D91E7
:1022E0009C911F97B4E1B29FA001B39F500D1124A0
:1022F000FA01E856FB4F4B015C0123E0880C991C66
:10230000AA1CBB1C2A95D1F784869586A686B7861B
:102310000E940035609352057093530580935405D5
:1023200090935505E985FA8524A135A146A157A1C9
:102330000E9458349B01AC012093560530935705F9
:10234000409358055093590560E070E080EA9FE3A0
:102350000E94583460935A0570935B0580935C0526
:1023600090935D0510924E0510924F051092500506
:102370001092510511FD02C003FF42C060916B0530
:1023800070916C0580916D0590916E056093630569
:102390007093640580936505909366059B01AC017D
:1023A0000E947136A985BA8558966D937D938D9359
:1023B0009C935B97077F00934D05D70153961C9222
:1023C0008091000E81FF10CDE985FA85838985FF14
:1023D0000BCD20A931A942A953A960E070E080E8A3
:1023E0009FE30E945834609377057093780580933B
:1023F000790590937A05E1E0D7015396EC93F4CCFC
:10240000E985FA85608D718D828D938D0E94E43609
:1024100060936305709364058093650590936605EA
:10242000CCCFC0925F05D0926005E0926105F0923A
:10243000620510926B0510926C0510926D0510925A
:102440006E052ECD10925E0540926F05509270057C
:10245000609271057092720512FF6AC010926B054E
:1024600010926C0510926D0510926E05C12CD12C46
:10247000760189859A850E945004698B7A8B8B8BB3
:102480009C8B9B01AC010E94713669877A878B8790
:102490009C87A50194010E94533487FF93C029852E
:1024A0003A854B855C85C501B4010E945D332D8161
:1024B0003E814F8158850E9471369B01AC01C3015A
:1024C000B2010E945D3360936F0570937005809335
:1024D00071059093720520E030E0A9010E94533409
:1024E00018160CF449C032E030935E0529813A8118
:1024F0004B815C81CA01B9010E945E33A301920144
:102500000E9471369B01AC01C501B4010E945D338C
:102510000E94E43660936B0570936C0580936D05A3
:1025200090936E0580914D05886080934D05B8CCE1
:10253000E091810DEF5FE43209F4E0E08091820DDB
:10254000C12CD12C76018E1751F028E32E9FF0017B
:102550001124EF57FA4FC08CD18CE28CF38CC70159
:10256000B6010E94E43660936B0570936C0580930E
:102570006D0590936E057DCFA701960169857A85DB
:102580008B859C850E945D332D813E814F815885CE
:102590000E9471366093730570937405809375057E
:1025A0009093760589899A89AB89BC898093670560
:1025B00090936805A0936905B0936A0593E09093A2
:1025C0005E056ECCA7019601C501B4010E945D3382
:1025D0002D813E814F8158850E947136A301920161
:1025E0000E945E3320E030E040E05FE30E947136FD
:1025F0006D877E878F87988B20E030E0A9010E944D
:10260000313618160CF094C0A30192016D857E85B9
:102610008F8598890E94533487FF88C0A70196014F
:1026200069857A858B859C850E945D332D813E81ED
:102630004F8158850E9471369B01AC012093730530
:102640003093740540937505509376056D857E85AE
:102650008F8598890E9431361816BCF529893A89E8
:102660004B895C8920936705309368054093690521
:1026700050936A05A501940169857A858B859C85AF
:102680000E945334811104C031E030935E0508CCC0
:10269000A501940169857A858B859C850E945D33AF
:1026A0002D813E814F8158850E9471369B01AC017E
:1026B000C301B2010E945D3360936F057093700592
:1026C0008093710590937205EBCB8D859E85AF85C8
:1026D000B88980936F0590937005A0937105B093AE
:1026E00072058093730590937405A0937505B0935C
:1026F000760529813A814B815C81CA01B9010E942A
:102700005E332D853E854F8558890E947136A7011D
:1027100096010E945E330E94E436609367057093D1
:1027200068058093690590936A05BACB92E047CF1C
:1027300080916B0590916C05A0916D05B0916E052F
:1027400010926F051092700510927105109272052B
:102750008093670590936805A0936905B0936A0517
:102760009FCB81E08DAB35CC298E3A8E39813B8F62
:102770004D814C8F47CC20E030E040E05FE3C50165
:10278000B4010E9471369B01AC016AAD7BADC801FA
:102790000E945D33A70196010E9471369B01AC0136
:1027A000698D7A8D8B8D9C8D0E945D331B01898391
:1027B0009D83A50194016AAD7BADC8010E945D3384
:1027C00067C090962D913D914D915C919397C70173
:1027D000B6010E9471364B015C0120E030E040E020
:1027E0005FE30E9471362AAD3BADA8010E945E33C3
:1027F000A70196010E9471369B01AC01698D7A8D0B
:102800008B8D9C8D0E945D331B0189839D839B0171
:10281000AC016D8D7E8D8F8D98A10E94313618167A
:1028200084F52D8D3E8D4F8D58A16DA17EA18FA178
:1028300098A50E945D339B01AC010E945E336B0141
:102840007C012D893E894F89588D6AAD7BADC801C9
:102850000E945E339B01AC01C701B6010E9458344F
:102860006B017C01BDA9BD87ED89EAAFFE89FBAF95
:102870000F89188D2D8C3E8C2F8D298338A13D8397
:1028800019CCA50194016AAD7BADC8010E945E33ED
:102890006AAF7BAF8C010ECC2D893E894F89588D54
:1028A000C701B6010E9471369B01AC01698D7A8D1A
:1028B0008B8D9C8D0E945D331B0189839D8329A58F
:1028C0003AA54BA55CA50E94533487FFF3CB29A5FD
:1028D0003AA54BA55CA5698D7A8D8B8D9C8D0E9448
:1028E0005D332D893E894F89588D0E9458346B0184
:1028F0007C0129A43AA44BA549835CA55D8382E0B1
:102900008D87D8CB90962D913D914D915C91939769
:10291000C701B6010E9471364B015C01AC019B01FD
:102920006AAD7BADC8010E94313618163CF520E037
:1029300030E040E05FE3C501B4010E9471369B01C5
:10294000AC016AAD7BADC8010E945D33A701960161
:102950000E9471369B01AC01698D7A8D8B8D9C8DA7
:102960000E945D331B0189839D832DA53EA54FA544
:1029700058A90E94313618160CF41BCF2DA53EA580
:102980004FA558A9698D7A8D8B8D9C8D0E945D33E2
:102990009B01AC010E945E336B017C012EA93FA913
:1029A00048AD59AD6AAD7BADC8010E945E339B0155
:1029B000AC01C701B6010E9458346B017C01BEA96D
:1029C000BAAFEFA9EBAF08AD19AD2DA43EA4FFA59A
:1029D000F98328A92D836ECB29A93AA94BA95CA913
:1029E000B10189819D810E94313618168CF42EE345
:1029F00033EC4EE259E369A17AA18BA19CA10E941C
:102A00005E3369A37AA38BA39CA3A301920168CB35
:102A10008AAD9BADD8018093630590936405A09324
:102A20006505B09366054D8540935E0576CB1092A3
:102A3000B30D1092B40D1092B50D1092B60D109208
:102A40007C0510927B05A1CB20914E0530914F055E
:102A50004091500550915105C301B2010E945E336F
:102A60002B013C0129853A854B855C85C501B40164
:102A70000E945D339B01AC01C301B2010E94583436
:102A80004B015C0120EC31EE44E65EE40E947136BD
:102A90000E943C340E94D134E989FA89EB5BFB4FF8
:102AA000603D37E073078105910508F059C0158234
:102AB000E989FA89EB5BFB4F73836283809144045D
:102AC000809395048F5F8A3009F480C0809344041A
:102AD000E0917D05F0917E05C101A981BD8184A3AE
:102AE00095A3A6A3B7A3C0925205D0925305E09236
:102AF0005405F092550529853A854B855C85C701BB
:102B0000B6010E945D33A50194010E947136609365
:102B10004E0570934F058093500590935105209179
:102B20005F05309160054091610550916205B101EA
:102B300089819D810E945334811129C99091A80DEA
:102B4000998720E030E0A901B10189819D810E942F
:102B500031361816F4F5A985A160A093A80D61CBB4
:102B6000603A4FE074078105910520F551E05583E7
:102B7000E989FA89EB5BFB4F2581022E04C096950B
:102B80008795779567950A94D2F74D855E8502C043
:102B9000440F551F2A95E2F7518340836115710553
:102BA00051E08507910508F483CF8FEF9FEF938362
:102BB000828384CF6034AFE17A078105910518F4F0
:102BC000B2E0B583D5CF23E02583D2CF1092440461
:102BD0007FCFB985B2FF04C0B160B093A80D21CBFF
:102BE00010927E0510927D059091810D8091820D4D
:102BF000891709F4CCC881E0890F843209F480E098
:102C000020917F05921302C080937F058093810DF0
:102C1000BEC84F925F926F927F928F929F92AF92B7
:102C2000BF92CF92DF92EF92FF920F931F93CF93B9
:102C3000DF93C091860DCC2391F181E08093A40DA8
:102C400084EC92E00E94BB088C2F0E9496080E94A0
:102C5000C90884EF91E00E94960BC150C230D0F4B5
:102C60008BEE93E00E94BB0889ED93E00E94BB08C5
:102C70000E94040980E10E9429038091850D80FF54
:102C800005C00E94A00B81E00E9429038091850D60
:102C900084FFF3CF8FB7F8941092860D8FBFC09149
:102CA000850DCC2309F4DBC0C4FF14C081E0809300
:102CB000A50DDF91CF911F910F91FF90EF90DF90C5
:102CC000CF90BF90AF909F908F907F906F905F90CC
:102CD0004F900895C0FF05C00E94A00B81E00E94A4
:102CE00029038C2F887E09F46AC08091A40D982F47
:102CF000937009F053C08872A9F08091A60D807C72
:102D000089F40E94850582E08093A80D8091A40D2E
:102D1000803241F480E2C7FD0CC08091A60D80682E
:102D20008093A60D8091A40D811103C091E0909332
:102D3000A60DC6FF07C085FD05C09091A60D906445
:102D40009093A60DC3FF05C0807E19F480E18093A7
:102D5000A40DC5FF23C08BEE93E00E94BB0887E95A
:102D600093E00E94BB080E9404098091A60D87FD94
:102D700010C09091A40D903451F483FF04C0837E61
:102D800082608093A60D80E48093A40D02C09038E9
:102D9000D1F78091A60D80628093A60DC7FF0CC06D
:102DA0008091A40D813029F48091A60D85608093D7
:102DB000A60D80E88093A40D88EE0E942903C1FF30
:102DC00028C08C2F887611F58091A40D803441F4B1
:102DD0008091A60D85FD04C084FF02C11092A40D50
:102DE0008091A40D882309F401C184FF0FC0909144
:102DF000A60D90FF0BC0803109F0F8C08091B00D96
:102E0000882309F4F3C088608093B00D82E00E94AB
:102E10002903C2FF24C09091A60D8091A40D807D4E
:102E200009F4FDC08091A70D8111F9C097FDF9C08B
:102E30000E9485058091810D80937F050E94A905E0
:102E40008091A80D81FF05C09091A60D916090938F
:102E5000A60D897F8093A80D84E00E94290390919C
:102E6000870D992309F44DC08FB7F8941092870D00
:102E70008FBF4091AD0D842F90FD84E691FD865F5C
:102E800092FD8A5093FD8F5F94FD8150893C08F03C
:102E900088EC8A3008F48AE03091AE0D232F95FD3E
:102EA00024E696FD22E397FD29E1481302C023178B
:102EB00041F18093AD0D2093AE0D1092B10D809035
:102EC000810D4090820DC82D89E9B82E96E7E92E34
:102ED00026E9F22EDEE738E3532EC411C1C08B2D54
:102EE0009E2DAF2DBD2F8093790D90937A0DA093D9
:102EF0007B0DB0937C0D0E94850580927F050E941A
:102F0000A905D091880DDD2309F453C08FB7F8943B
:102F10001092880D8FBF9091AF0D892FD0FD84E660
:102F2000D1FD865FD2FD8A50D3FD8F5FD4FD8150E5
:102F3000893C08F088EC8A3008F48AE09817A1F000
:102F40009091A40D8093AF0D9111DFC040911B0EA5
:102F500050911C0E60911D0E70911E0E8091190EE5
:102F60000E946D0B1092B10D8091A40DD5FF09C088
:102F7000803139F49091B00D9111CDC092E09093D1
:102F8000B00D9D2F907CA9F0882311F0887389F0F3
:102F9000C091180ED7FF03C0C7FFC1C0CF77D6FFBF
:102FA00003C0C6FFBEC0CF7B8C2F0E943309C093E5
:102FB000180E8091A40D8C7F09F47BCEDF91CF9108
:102FC0001F910F91FF90EF90DF90CF90BF90AF9047
:102FD0009F908F907F906F905F904F900C94A90E70
:102FE00082FFFECE88608093A60DFACE1092A80DC7
:102FF0000E94C304892B71F08091A60D86FD0AC042
:103000001092A60D88E08093A40D0E94A90E0E9444
:103010004D07FCCE1092A60D1092A40DF7CE97FF8F
:103020000EC01092A80D0E942F0A0E942E0E6BE86F
:103030007DE088E29EE00E948B030E942E04809136
:10304000A60D85FF08C08F7781608093A60D80E470
:103050008093A40D01CF1092A60D1092A40DFCCE6A
:10306000CC2ED12CC59DC00111248F579A4F0E94A0
:1030700050043B01982EA92E2B2D3E2D4F2D5D2F58
:103080000E9431365C9C80015D9C100D11240F570D
:103090001A4F18169CF52B2D3E2D4F2D5D2F6B2DA5
:1030A0007E2D8F2D9D2F0E947136F801648F758FB4
:1030B000868F978F5C9C80015D9C100D11240F57AB
:1030C0001A4FF801C0A4D1A4E2A4F3A4A701960169
:1030D000648D758D868D978D0E94313618162CF46F
:1030E000F801C48ED58EE68EF78ECF5FC43209F418
:1030F000C0E0B62CE72CF92CDA2DEFCE9301492D48
:103100005A2DB301892D9A2DCECF8091A80D8860BC
:103110008093A80D27CF90FF34CF946030CFC06844
:103120003ECFC06441CFCF92DF92EF92FF921F93C8
:10313000CF93DF930E9409168091A60D882309F48E
:1031400071C00E94C304FC01892B09F03FC090911B
:10315000190EC091180EC92BC0901B0ED0901C0EDA
:10316000E0901D0EF0901E0E8091000E81FF03C0B6
:1031700080E20E941103DC2FD07311E0C07C8091AB
:10318000A60D882309F44EC09091A50D91114AC057
:1031900080FF19C09091A40D292F207C09F495C0BF
:1031A00082FD25C01092B00D40E050E0BA0180E0F1
:1031B0000E946D0B80E00E9433098091A60D8D7FE7
:1031C00084608093A60D0E940916D9CFC389C0736D
:1031D0002C990BC090E08091020186FD9068C92B6C
:1031E000C4A8D5A8E6A8F7A8BFCF90E4F4CF90383C
:1031F00021F58BEE93E00E94BB0884E593E00E94EA
:10320000BB080E94040940E050E0BA0180E00E943F
:103210006D0B80E00E9433090E94EF0D8091A50D97
:10322000882341F0DF91CF911F91FF90EF90DF90C5
:10323000CF9008950E940916F1CF903449F40E946E
:10324000C70380FD05C08091A60D8F7D8093A60DDC
:103250008091A60D83FFB7CF9091190E992359F055
:1032600081FD09C08091000E81FF22C08091A80DD0
:1032700088608093A80D8091180E882371F080914A
:10328000A60D81FD0AC08C2F0E94330941E060E049
:1032900070E080E89FE30E94B1198091A60D81FD46
:1032A00092CF80618093A60D82E00E9433038BCF82
:1032B000B701A6018D2F0E946D0B41E060E070E028
:1032C00080E890E40E94B119D6CF8091B00D882398
:1032D000C9F181FF0DC08091190E882351F140E0A2
:1032E00050E0BA0180E00E946D0B1093B00D6BCFDF
:1032F0008C7009F468CF8091190E882399F08BEEB9
:1033000093E00E94BB088DE593E00E94BB080E94F9
:1033100004098091000E81FF0FC08091A80D886084
:103320008093A80D8091B00D83FF03C082E00E94BE
:1033300033031092B00D47CFB701A6018D2F0E9425
:103340006D0BF0CF8091A80D83FF3DCFB701A60193
:103350008D2F0E946D0B8091A80D877F8093A80D03
:1033600032CF1F93CF93DF93142F20E030E040EA59
:1033700051E40E9471360E943C340E94D134EB012A
:103380002097C9F08091A50D811115C011110DC0B4
:103390000E9493182FEF80E792E0215080409040E8
:1033A000E1F700C000002197EBCF0E940916809141
:1033B000A60D81FFEFCFDF91CF911F9108950E945D
:1033C00080070E9493188091A50D811108C00E946A
:1033D000C304892BB1F78091A40D883091F308952F
:1033E000CF93DF9321E031E0829FE001839FD00DF6
:1033F0001124DD5F40E051E0BE018AE89EE00E94BA
:103400004305892B79F410928A0E0E94DF1940E05F
:1034100051E06AE87EE0CE010E94F30480E0DF9193
:10342000CF91089581E0FBCF0E94DF191092B20D79
:1034300008950F931F93CF93C82F8B010E94DF191C
:103440002DE0C29FC00111244CE050E0B8019E5F06
:10345000CF911F910F910C94F3041F93CF93DF939F
:10346000182FEB018DE0189FB00111247E5F4CE016
:1034700050E0CE010E944305892B71F48CE0FE01DF
:1034800011928A95E9F7BE01812F0E94191A80E0F6
:10349000DF91CF911F91089581E0FACFEF92FF92D3
:1034A0000F931F93CF93DF93CDB7DEB72C970FB653
:1034B000F894DEBF0FBECDBF182F80FF15C0EBEB19
:1034C000FDE085E5DF011D928A95E9F780E090E057
:1034D000AAE7B4E48093B70D9093B80DA093B90D0B
:1034E000B093BA0D0E942E0511FF10C0FE01319657
:1034F0007F018CE0DF011D928A95E9F700E0B701BA
:10350000802F0E94191A0F5F0830C9F712FF14C0EC
:1035100060E080E093E00E94D30460E081E093E00B
:103520000E94D30460E081E094E00E94D30460E054
:1035300082E094E00E94D30413FF0AC060E08EEAA8
:1035400093E00E94D30460E08FEA93E00E94D304EA
:103550002C960FB6F894DEBF0FBECDBFDF91CF9192
:103560001F910F91FF90EF9008958091A40D8230EC
:1035700041F00E94DF198091A50D811102C01092C7
:10358000B10D0895CF92DF92EF92FF92CF93909179
:10359000A40D923079F06A017B01C82F0E94DF19D7
:1035A000B701A6018C2FCF91FF90EF90DF90CF90C5
:1035B0000C946D0BCF91FF90EF90DF90CF9008951A
:1035C0002F923F924F925F926F927F928F929F9233
:1035D000AF92BF92CF92DF92EF92FF920F931F9321
:1035E000CF93DF93CDB7DEB7C954D1090FB6F894A6
:1035F000DEBF0FBECDBF7C017EAB6DAB8091000EF8
:1036000085FF22C01091A40D103219F1C7010E944C
:103610003C038823C9F081E08093A70D183069F43A
:1036200088E00E9433030E9493188091A50D8111B8
:103630000BC08091A40D8111F6CF0E94870E82E00D
:103640000E9423030E9493188091A40D823009F4F4
:10365000DAC10E9493182091A50D2CAF2111D3C17E
:103660003091810D22963FAF2297809180053813CB
:1036700003C00E948007EDCF4091820D4FAB242EF6
:10368000312C88E3489F90011124F901EF57FA4F3C
:10369000FAABE9AB11928A95E9F7EDA9FEA9F48599
:1036A000FAAF2F2FE9A9FAA9238BEDA9FEA98480EF
:1036B0009580A680B780E9A9FAA984AA95AAA6AAA6
:1036C000B7AAEDA9FEA980859185A285B385E9A950
:1036D000FAA9848B958BA68BB78B8CE0EBE8FDE089
:1036E00021FD02C0E1E6FDE0DE01599601900D9258
:1036F0008A95E1F7EBAAFCAA2BEB3DE028963FAFB9
:103700002EAF2897AE014B5D5F4F26965FAF4EAF51
:103710002697CE01499624969FAF8EAF2497E9A9AC
:10372000FAA92196FFAFEEAF21979E01235F3F4F8D
:1037300039AF28AF3EAF2DAF10E000E028E3229D67
:10374000C001239D900D1124AC0143575A4F2A9676
:103750005FAF4EAF2A97EBA9FCA96191719181915E
:103760009191FCABEBAB2896EEADFFAD2897419065
:103770005190619071902896FFAFEEAF2897A3010A
:1037800092010E9471360E943E362696EEADFFAD44
:10379000269761937193819391932696FFAFEEAF35
:1037A00026972496EEADFFAD2497C190D190E1907D
:1037B000F1902496FFAFEEAF24976C197D098E0926
:1037C0009F099B01AC0197FF07C022273327A9015E
:1037D000261B370B480B590B2196EEADFFAD2197F9
:1037E00021933193419351932196FFAFEEAF2197EF
:1037F0002A96EEADFFAD2A97C080D180E280F3809B
:10380000C216D306E406F50610F469017A012A9679
:10381000EEADFFAD2A97C082D182E282F3820E9490
:103820000235A30192010E945834EDADFEAD6193C3
:10383000719381939193FEAFEDAF20E030E0A90149
:103840000E94533487FF0BC092E0013009F490E8E6
:10385000E9A9FAA9E00FF11F8089892B808B0F5FFE
:103860001F4F0330110509F076CFCD28CE28CF2881
:1038700009F4B5C1CE010D960E94400A4B015C01CE
:1038800028E3229DC001239D900D11249C012F57F8
:103890003A4F7901F90184A295A2A6A2B7A2BE016E
:1038A000635F7F4F83ED9DE00E94D803F70160A323
:1038B00071A382A393A3BE01635F7F4F87EC9DE05A
:1038C0000E94D803F70164A775A786A797A7138955
:1038D00010FF05C060AB71AB82AB93AB0DC0EDA91F
:1038E000FEA9208131814281538113FDA6C0F701D9
:1038F00020AB31AB42AB53AB2296FFAD22972FA941
:10390000F21711F011FF9FC088E3829DF001839DA3
:10391000F00D1124EF57FA4F108E118E128E138E68
:1039200010A611A612A613A688E3829D8001839D8E
:10393000100D11240F571A4FF801838981FD63C0C0
:1039400089A99AA90E9450046B017C018090790D8D
:1039500090907A0DA0907B0DB0907C0DA501940104
:103960000E94313618160CF035C1A5019401C5012D
:10397000B4010E947136F801648F758F868F978F1E
:1039800088E3829D8001839D100D11240F571A4FEB
:10399000F80180A491A4A2A4B3A4A5019401648D0C
:1039A000758D868D978D0E94313618162CF4F8018E
:1039B000848E958EA68EB78EC092790DD0927A0D98
:1039C000E0927B0DF0927C0D8CE0FE013D96ADE621
:1039D000BDE001900D928A95E1F78CE0FE01B5966D
:1039E000A1E6BDE001900D928A95E1F780918005F6
:1039F0008093820D8F5F843209F08CAFFCADF09321
:103A000080050E94A905C75BDF4F0FB6F894DEBFA3
:103A10000FBECDBFDF91CF911F910F91FF90EF901F
:103A2000DF90CF90BF90AF909F908F907F906F90DE
:103A30005F904F903F902F900895C501B4010E9470
:103A40007136F70147CF4DE65DE05CAB4BAB8E01C5
:103A50000F5F1F4F88AD99AD0C969BAF8AAFC12CFD
:103A6000D12C76010DAB1FABEBA9FCA981909190F5
:103A7000A190B190FCABEBABE8ADF9AD41905190AA
:103A800061907190F9AFE8AFA3019201C501B40153
:103A90000E9471369B01AC01C701B6010E945D33E3
:103AA0006B017C01A5019401C301B2010E945D3349
:103AB000F80161937193819391938F012AAD3BAD8E
:103AC00048AD59AD2417350779F62FEE3FEF4FE794
:103AD0005FE3C701B6010E94313618164CF488E343
:103AE000829DF001839DF00D1124EF57FA4F18CFFE
:103AF0002FEE3FEF4FE75FEBC701B6010E94533453
:103B000087FF11C088E3829DF001839DF00D112491
:103B1000EF57FA4F89E996E7A6E9BEE780A791A794
:103B2000A2A7B3A701CF8DA99FA90E94400A6DA9A2
:103B30007FA983ED9DE00E94D8034B015C01A701A2
:103B4000960160E070E080E89FE30E945D3320E032
:103B500030E040E05FE30E9471360E94E4366B0182
:103B60007C012091F00D3091F10D4091F20D5091BA
:103B7000F30DC501B4010E947136A70196010E94A0
:103B800071364B015C01A701960160E070E080E8AE
:103B90009FE30E945D339B01AC01C501B4010E940B
:103BA00058346B017C0120E030E0A9010E945334BD
:103BB00087FF03C0C12CD12C760188E3829DF001E0
:103BC000839DF00D1124EF57FA4FC0A6D1A6E2A6AF
:103BD000F3A6AACEA7019601C701B601CACE80916D
:103BE000000E81FF10CF2AAD24FF0DCFB501A40137
:103BF00080E10E94C21A07CF2F923F924F925F92AC
:103C00006F927F928F929F92AF92BF92CF92DF92EC
:103C1000EF92FF920F931F93CF93DF93CDB7DEB751
:103C2000E7970FB6F894DEBF0FBECDBFE0E5FEE02C
:103C30008AE3DF011D928A95E9F78BE0E0E1FEE07F
:103C4000A1E5BEE001900D928A95E1F78091230EE7
:103C500080937D0E80918A0E843271F01E8E1F8EAD
:103C600018A219A21AA21BA2812C912C5401412C3A
:103C7000512C3201439474C081E08093510E109214
:103C8000520E83E08E8FB1E0BF8FEACF2FEBF22E82
:103C9000F00EE9E1EF1510F40C946B288F5F8E8F16
:103CA000BE01665E7F4FCE014E960E94640288235D
:103CB00011F40C946E28F4E1FF1508F440C1EF2DC7
:103CC000FF0CFF0B8827E859F14E8F4F0C94683793
:103CD0007D1E121F151F231F311F3F1F4D1F9F1FCA
:103CE0009F1F9F1F9F1F9F1F9F1F9F1F9F1F9F1FE4
:103CF0005B1F9F1F9F1F9A1F8A1E82E794E00E94EE
:103D0000BB086A8D7B8D8C8D9D8D0E94D134862F52
:103D10000E94510988A199A1AAA1BBA1012E04C0AA
:103D2000B695A795979587950A94D2F780FF02C01C
:103D30000C947128D301C201012E04C0880F991F71
:103D4000AA1FBB1F0A94D2F728A139A14AA15BA1DF
:103D5000282B392B4A2B5B2B28A339A34AA35BA31F
:103D60008E8DE82FF0E0E657F14F008101118ECFE4
:103D700081149104A104B10409F040C118A648A11E
:103D800045FF0FC080916D0E90916E0EA0916F0E49
:103D9000B091700E81389649A849B10514F00C9481
:103DA00074288F8D882309F42CC198A190FF3CC101
:103DB0008091530E8130B1F423E333E34BEC51E4B3
:103DC00060915C0E70915D0E80915E0E90915F0E21
:103DD0000E94713660935C0E70935D0E80935E0E50
:103DE00090935F0E28A139A14AA15BA130FD10C0BC
:103DF00080911B0E90911C0EA0911D0EB0911E0E75
:103E00008093790E90937A0EA0937B0EB0937C0EE4
:103E10002090500E34E023122AC148A146FD1EC155
:103E20008CE1A7C086E694E06ACF87E594E00E9423
:103E3000BB086A8D7B8D8C8D9D8D0E94D134862F21
:103E40000E949F0967CF88E494E00E94BB086A8DB6
:103E50007B8D8C8D9D8D0E94D134862F0E948E0982
:103E600059CF89E394E00E94BB086A8D7B8D8C8DCD
:103E70009D8D0E94D134862F0E947D094BCF8DE20B
:103E800094E00E94BB086A8D7B8D8C8D9D8D0E9475
:103E9000D134862F0E946C093DCF81E294E00E94CC
:103EA000BB086A8D7B8D8C8D9D8D0E94D134862FB1
:103EB0000E94B0092FCF84E194E00E94BB08CA8C15
:103EC000DB8CEC8CFD8C20E030E0A901C701B60151
:103ED0000E94533481110DC00E949F0980E00E940E
:103EE0008E0980E00E947D0980E00E94B00980E098
:103EF000D1CF20E030E040E85FE3C701B6010E9487
:103F00005334811107CF83E00E949F0988EC90E031
:103F10000E94960B83E00E948E0988EC90E00E943C
:103F2000960B83E00E947D0988EC90E00E94960B3E
:103F300083E0B0CF88E094E00E94BB08EBCE083568
:103F400089F580E094E00E94BB088A8D9B8DAC8D42
:103F5000BD8D80937E0E90937F0EA093800EB093C4
:103F6000810E689480F81AE00855033008F4D2CE28
:103F700084E1E7960FB6F894DEBF0FBECDBFDF91A8
:103F8000CF911F910F91FF90EF90DF90CF90BF9056
:103F9000AF909F908F907F906F905F904F903F90E9
:103FA0002F9008950935A1F489EF93E00E94BB0892
:103FB0008A8D9B8DAC8DBD8D8093820E9093830EE8
:103FC000A093840EB093850E689481F81BE0CCCF4B
:103FD0000A3551F681EF93E00E94BB088A8D9B8DD4
:103FE000AC8DBD8D8093860E9093870EA093880E26
:103FF000B093890E689482F81CE0B6CF32E038A7FF
:10400000BECE8091520E813089F4A8A5A23009F06D
:10401000E9CE8091510E803509F4E4CE882309F46D
:10402000E1CEB8A1B0FDDECE86E1A3CF8091110E26
:104030008111D8CEE8A1E0FDBBCE80911F0E9091FA
:10404000200EA091210EB091220E80935C0E9093D1
:104050005D0EA0935E0EB0935F0EC4CE88A199A1B1
:10406000AAA1BBA18F7B88A399A3AAA3BBA380917C
:10407000530E8130B1F500E5E02E0EE0F02E10E099
:1040800000E0CC24C394D12CC601002E02C0880FBE
:10409000991F0A94E2F7092E000CAA0BBB0B88218A
:1040A0009921AA21BB21892B8A2B8B2B91F023E309
:1040B00033E34BEC51E4D7019E966D917D918D9148
:1040C0009C91D1970E947136F70166A777A780ABC4
:1040D00091AB0F5F1F4FF4E0EF0EF11C03301105A1
:1040E00099F68CE0E4E3FEE0DE011E9601900D926D
:1040F0008A95E1F72AE0221609F468C03CE5231608
:1041000009F426C181149104A104B10409F442C048
:104110003090540E80914C0E90914D0EA0914E0E09
:10412000B0914F0E8CA39DA3AEA3BFA370E1C72E89
:104130007EE0D72EE0E5EE2EEEE0FE2E10E000E071
:1041400081E090E0002E02C0880F991F0A94E2F7E8
:10415000092E000CAA0BBB0B88219921AA21BB2197
:10416000892B8A2B8B2B09F067C1F601808D918DED
:10417000A28DB38DF70186A797A7A0ABB1AB0F5F58
:104180001F4FF4E0CF0ED11C24E0E20EF11C0330EF
:104190001105B1F63EE1231609F49FC145E324164B
:1041A00009F4D0C15CE160E67EE086E0251237C10B
:1041B0000E942D1A882309F445C081149104A1049A
:1041C000B10409F08EC1212C18A6AFC0811491044E
:1041D000A104B10411F48AE1CCCE88A199A1AAA1CD
:1041E000BBA180759927AA27BB27892B8A2B8B2BEC
:1041F00009F416CE6091710E7091720E8091730E5B
:104200009091740E0E9428370E94D1348DE167305E
:1042100008F0AFCE80916C0E843131F0823009F01D
:10422000A7CE48A147FDA4CE22242A94260E6111D0
:1042300002C02090570E60E67EE0822D0E942D1A6B
:10424000811102C087E095CE30906C0E80914C0EAB
:1042500090914D0EA0914E0EB0914F0E8CA39DA348
:10426000AEA3BFA3B0E5EB2EBEE0FB2E10E1C12E46
:104270001EE0D12E10E000E081E090E0002E02C0B0
:10428000880F991F0A94E2F7092E000CAA0BBB0BAA
:1042900088219921AA21BB21892B8A2B8B2B81F183
:1042A000D7019E964D905D906D907C90D197B4E132
:1042B0003B1248C0F60120A931A942A953A9608D3B
:1042C000718D828D938D0E945D33A30192010E94B6
:1042D0005D33D70150966D937D938D939C93539747
:1042E000023071F42CA13DA14EA15FA10E945D336B
:1042F0006093680E7093690E80936A0E90936B0EB4
:104300000F5F1F4FF4E0EF0EF11C24E0C20ED11C32
:104310000330110509F0B0CF88A199A1AAA1BBA1D2
:104320008F7A88A399A3AAA3BBA31091510E10352D
:1043300009F00FC181149104A104B10409F432C140
:104340008FE117CEF701408A518A628A738AD8CFEB
:1043500081149104A104B10409F43DCF40904C0EA6
:1043600050904D0E60904E0E70904F0EF0E1CF2E9B
:10437000FEE0DF2E1E019EE0290E311CA0E5EA2E94
:10438000AEE0FA2E10E000E081E090E0002E02C0E6
:10439000880F991F0A94E2F7092E000CAA0BBB0B99
:1043A00088219921AA21BB21892B8A2B8B2BC9F12A
:1043B000D1012D913D914D915C91F601608D718DF2
:1043C000828D938D0E945D33D7019E962D913D91F4
:1043D0004D915C91D1970E945D33F70166A777A755
:1043E00080AB91AB023061F4A30192010E945D3376
:1043F0006093860E7093870E8093880E9093890E3B
:104400000F5F1F4FF4E0CF0ED11C24E0220E311CB1
:1044100034E0E30EF11C0330110509F0B5CF212C77
:1044200084CFF60180A991A9A2A9B3A9F70186A713
:1044300097A7A0ABB1ABE4CFF5E32F1609F49FCE5D
:10444000D7019E964D905D906D907C90D1973110E4
:1044500033C0F801EE0FFF1FEE0FFF1F2EE030E01C
:104460002C0F3D1FE20FF31FD601D0962D913D91E9
:104470004D915C91D39760817181828193810E947B
:104480005E33A30192010E945E33F70166A777A70E
:1044900080AB91AB023009F072CE2CA13DA14EA1B0
:1044A0005FA10E945E336093860E7093870E8093A7
:1044B000880E9093890E63CEA3019201D60158967F
:1044C0006D917D918D919C915B970E945E33F70178
:1044D00066A777A780AB91AB52CE60E67EE087E01F
:1044E00067CE60E17EE0E0E5FEE030E020E041E024
:1044F00050E0CA01022E02C0880F991F0A94E2F709
:10450000092E000CAA0BBB0B6C017D01C820D92021
:10451000EA20FB20CD28CE28CF2859F4DB0158967D
:10452000CD90DD90ED90FC905B97C08AD18AE28AB5
:10453000F38A2F5F3F4F6C5F7F4F349623303105F6
:10454000C1F66DCF8091510E823008F468CF8EE1B4
:1045500010CDB8A5B23031F5111107C08114910406
:10456000A104B104F9F418A61DC020E030E0A901AF
:1045700060915C0E70915D0E80915E0E90915F0E69
:104580000E945334882309F44FCD1C3809F491C09C
:1045900008F086C0123009F4A6C0133009F4A6C092
:1045A0001130E1F20091500E82EC800F8430A0F4C3
:1045B00058A156FF35CC20E030E040E450E4609153
:1045C000710E7091720E8091730E9091740E0E9414
:1045D000313618160CF491C5CE0101967C018DE0A0
:1045E000D7011D928A95E9F7BF8DB0FFDBC1053376
:1045F00019F080E10111BDCC80911B0E90911C0E31
:10460000A0911D0EB0911E0E8D839E83AF83B8873F
:104610008091190E9091180E892B40915C0E50914B
:104620005D0E60915E0E70915F0E49835A836B83BD
:104630007C8384608D8780916D0E90916E0EA09129
:104640006F0EB091700E89879A87AB87BC87809177
:10465000000E85FF06C08EE79EE00E943C0381119C
:104660004FC5B7018EE79EE00E94E01A8091A40D2D
:1046700081110BC00E94C304892B39F080E2809322
:10468000A40D0E94A90E0E944D078CE0EEE7FEE00B
:10469000A8E2BEE001900D928A95E1F780E069CC36
:1046A0001E3839F018F01F3809F07CCF3F8D30618B
:1046B0003F8F82E7810F823018F44F8D48604F8F13
:1046C00081149104A104B10409F485CD4CE050E0BB
:1046D0006EE77EE088E29EE00E948A37892B09F02F
:1046E00061CF81E246CCEF8DE460EF8F81149104BD
:1046F000A104B10409F46FCD21E030E0C901822B9F
:10470000932B092E000CAA0BBB0B88219921AA21FF
:10471000BB21892B8A2B8B2B09F4E9C4F8A183E2F6
:10472000F7FF27CC28A139A14AA15BA12F7728A3A5
:1047300039A34AA35BA34CE050E06EE77EE088E239
:104740009EE00E948A37892B61F280917E0E9091C3
:104750007F0EA091800EB091810E8CA39DA3AEA37D
:10476000BFA34090280E5090290E60902A0E7090A2
:104770002B0E9C01AD012CA73DA74EA75FA773018F
:1047800062016091750E7091760E8091770E909116
:10479000780E2091530E213071F423E333E34BEC78
:1047A00051E40E9471366093750E7093760E80937B
:1047B000770E9093780EA30192016CA17DA18EA13A
:1047C0009FA10E945D336CA37DA38EA39FA3A7012D
:1047D00096016CA57DA58EA59FA50E945D336CA753
:1047E0007DA78EA79FA74090750E5090760E609083
:1047F000770E7090780E2CA13DA14EA15FA1CA0149
:10480000B9010E94713668AB79AB8AAB9BAB2CA522
:104810003DA54EA55FA5CA01B9010E9471366CABDA
:104820007DAB8EAB9FAB20E030E040E850E4C301AD
:10483000B2010E947136A30192010E94713628A92B
:1048400039A94AA95BA90E945D332CA93DA94EA9AB
:104850005FA90E945D336B017C0120E030E0A9017B
:104860000E94533487FD46C4C701B6010E94E43656
:104870006B017C012CA93DA94EA95FA968A979A962
:104880008AA99BA90E945E330E94E4369B01AC0179
:10489000C701B60190580E9458346B017C01133057
:1048A00021F4F7FAF094F7F8F09420E030E0A90151
:1048B000C301B2010E94533487FF0FC0F7FAF0948E
:1048C000F7F8F094D301C201B0588093750E90931D
:1048D000760EA093770EB093780EA70196016CA583
:1048E0007DA58EA59FA50E9471369B01AC016CA190
:1048F0007DA18EA19FA10E945D3320E030E040E0C9
:104900005FE30E9471362B013C01A70196016CA167
:104910007DA18EA19FA10E9471362CA53DA54EA51B
:104920005FA50E945E3320E030E040E05FE30E943C
:1049300071362091550E222399F0213011F14092C9
:10494000640E5092650E6092660E7092670E6093D0
:10495000680E7093690E80936A0E90936B0E22CE50
:104960004092600E5092610E6092620E7092630EE1
:104970006093640E7093650E8093660E9093670E3D
:1049800011CE4092680E5092690E60926A0E70923B
:104990006B0E6093600E7093610E8093620E909325
:1049A000630E00CE8091000E0091190E81FF12C09F
:1049B0001150133018F0EF8DE064EF8F89288A28AA
:1049C0008B2809F451C1F8A5F23009F04DC12F8DA3
:1049D00020682F8F80916D0E90916E0EA0916F0EBA
:1049E000B091700E8093240E9093250EA093260E06
:1049F000B093270E89879A87AB87BC878091520E28
:104A00008093110E882311F088E08D8780915C0ED1
:104A100090915D0EA0915E0EB0915F0E80931F0E7F
:104A20009093200EA093210EB093220E89839A8337
:104A3000AB83BC838090790E90907A0EA0907B0E11
:104A4000B0907C0EA501940160911B0E70911C0E1C
:104A500080911D0E90911E0E0E9453341F8D107474
:104A6000811103C05F8D55FF1FC0002369F08F8D3A
:104A700087FD0AC040E050E0BA01111102C0B50143
:104A8000A401802F0E94C21A8091790E90917A0E13
:104A9000A0917B0EB0917C0E80931B0E90931C0E08
:104AA000A0931D0EB0931E0E11110CC080911B0E11
:104AB00090911C0EA0911D0EB0911E0E8D839E83B1
:104AC000AF83B88780917D0E8093230E80915A0E1C
:104AD0009091190E981751F04D815E816F81788504
:104AE0000E94C21A80915A0E8093190E8D85909162
:104AF000190E892B8D871091590E8091180E8117F0
:104B000069F08091A40D823029F00E94DF19812F75
:104B10000E9433098091590E8093180E8D859091D3
:104B2000180E892B8D878091500E843099F48091D6
:104B3000A40D823079F08090710E9090720EA0904A
:104B4000730EB090740E0E94DF1940E0C501B401ED
:104B50000E94B1198091550E8093140E8091530ECE
:104B60008093120E8091570E9091160E981769F04F
:104B70008093160E8CE0FE013E96A4E3BEE0019009
:104B80000D928A95E1F70E94141A8091540E809339
:104B9000130E8091500E863209F4B9C008F07BC024
:104BA0008C3109F49AC08E3109F497C08A3009F427
:104BB0007FC08091510E8093100E8035B1F0B8A562
:104BC000B23099F4813009F0B6C0BE016F5F7F4FFB
:104BD0008EE79EE00E94E01A8CE0EEE7FEE0A8E29D
:104BE000BEE001900D928A95E1F78091580E809376
:104BF000170E882391F00E94DF198091170E909173
:104C0000A40D833009F013C2923029F088E00E948D
:104C100033030E9493181092170E8091500E8E53FA
:104C2000843008F03BCD0E94C109182F8091500EAE
:104C30008F3309F43DC208F030C28E3309F02ECD17
:104C40006091710E7091720E8091730E9091740E3E
:104C50000E94D13481E090E001C0880F6A95EAF7A4
:104C6000812B0E94B51A1ACD003109F0B3CE9F8D69
:104C700090748091100E8150833038F4992309F498
:104C8000A9CE3F8D30623F8FA5CE9111A3CE4F8D1F
:104C900040624F8F9FCE8C3509F43FC0863609F4B1
:104CA00042C0883209F085CF68E27EE087E032C0FA
:104CB00060E67EE0822D0E94191A8091160E28125D
:104CC00078CF8CE0E0E6FEE0A4E3BEE001900D9238
:104CD0008A95E1F70E94141A6CCF8D8581608D87CB
:104CE00098A5992329F0B7018EE79EE00E94E01A6B
:104CF000B70180E69EE00E94E01A8CE0E0E6FEE06C
:104D0000A8E2BEE001900D928A95E1F752CF68E2E9
:104D10007EE086E00E94191A4CCF8CE0EEE7FEE0C0
:104D2000A0E4BEE0D3CFE0E4FEE08CE0DF011D9222
:104D30008A95E9F7CFCF811105C08D8581608D8778
:104D4000B70146CF8250823008F013C1C090750E73
:104D5000D090760EE090770EF090780EF0E0E0E0E4
:104D60006091600E7091610E8091620E9091630E61
:104D700010E000E04B015C019B01AC01505828A3FE
:104D800039A34AA35BA3AC019B01505828A739A7BC
:104D90004AA75BA7AF014258514F3A01E85DF14F76
:104DA00020813181428153810E945E339B01AC019D
:104DB000D3016D917D918D919C910E945D336CA387
:104DC0007DA38EA39FA3F801E85DF14F208131817F
:104DD00042815381C501B4010E945E339B01AC0145
:104DE000D3016D917D918D919C910E945D334B011A
:104DF0005C012CA13DA14EA15FA168A179A18AA16E
:104E00009BA10E9471362B013C01A501940168A56C
:104E100079A58AA59BA50E9471369B01AC01C301AF
:104E2000B2010E945E332B013C01A501940168A1EF
:104E300079A18AA19BA10E9471364B015C012CA132
:104E40003DA14EA15FA168A579A58AA59BA50E9459
:104E500071369B01AC01C501B4010E945D33A30111
:104E600092010E94DD334B015C01BF8DB2FF6FC028
:104E70002DEB37E346E055EB0E94313687FD0AC043
:104E80002BED3FE049EC50E4C501B4010E945D33D5
:104E90004B015C014090F40D5090F50D6090F60DC3
:104EA0007090F70DA7019601C701B6010E945E330D
:104EB000A30192010E945D33A30192010E94713609
:104EC0000E94E4362B013C0120E030E040E05FE34B
:104ED000C501B4010E947136A70196010E94713686
:104EE0009F77A30192010E9458340E943D350E9491
:104EF000D1347B016115710509F467CE1D8513FF5F
:104F000012C090E080E00E9400359B01AC016981F5
:104F10007A818B819C810E94713669837A838B832D
:104F20009C83177F1D8701E010E0E016F10609F46D
:104F30004CCEBE016F5F7F4F88E29EE00E94E01A78
:104F40008091A50D811148CE0F5F1F4FEECF2DEB45
:104F500037E346E055E30E94533418160CF49ACF19
:104F60002BED3FE049EC50E4C501B4010E945E33F3
:104F70008FCF8D8584608D878091A40D823009F458
:104F80002BCE0E94DF198091A50D81112ECE1F8D91
:104F900010711092A90D10928A0D80910601B7012F
:104FA0008EE79EE00E94E01A81E08093A30D82E0EC
:104FB0000E9433030E9493188091A50D811115CE94
:104FC0008091A40D8111F6CF8091A30D813059F508
:104FD000112329F18CE0EBE8FDE0A7E9BDE00190A9
:104FE0000D928A95E1F71092A30D10928A0D0E94FE
:104FF00093181092A80D0E942E0E0E942F0A0E9454
:105000002E040E9409098091A90D882309F4E4CD9A
:105010006BE87DE088E29EE00E948B03E6CD85E0B0
:105020000E942303E0CF81E08093A90DDCCF81E0D3
:105030008093100E1092140E1092130E1092110EF7
:105040001092160E1092190E1092180E84E680938C
:10505000AD0D8093AE0D8093AF0D923099F064E367
:105060007EE080E00E942D1A882309F4EBC80E949C
:10507000141A40E050E0BA0180E00E946D0B80E01D
:105080000E9433098BEE93E00E94BB0882E893E014
:105090000E94BB080E940409BECD823408F0FECAFB
:1050A0008091A50D8111FACA1092B10D0C94B91F0F
:1050B0006091710E7091720E8091730E9091740ECA
:1050C0000E94D13481E090E001C0880F6A95EAF730
:1050D00080958123C6CD81E00C94B91F82E00C94A9
:1050E000B91F89E10C94B91F8BE10C94B91F80E2C0
:1050F0000C94B91F82E20C94B91F86E20C94B91F7C
:105100008FE00C94B91F1F920F920FB60F921124CB
:105110008F938091890D8F5F8093890D8F910F9070
:105120000FBE0F901F9018951F920F920FB60F92FF
:1051300011240BB60F922F933F934F935F936F936E
:105140007F938F939F93AF93BF93EF93FF930E94AF
:10515000C703882321F081FF15C00E94870EFF91AD
:10516000EF91BF91AF919F918F917F916F915F91DF
:105170004F913F912F910F900BBE0F900FBE0F904C
:105180001F90189583FF06C08091850D82608093E3
:10519000850DE5CF82FF04C08091850D8860F7CF33
:1051A00080FFDDCF8091850D8062F1CF1F920F923D
:1051B0000FB60F9211240BB60F928F939F93AF935C
:1051C000BF93EF93FF93E8E0F1E080818F7BA5E14F
:1051D000B4E09C91892B808380818F7B11969C9178
:1051E0001197892B80838081877F12969C91892BD0
:1051F000808315BCFF91EF91BF91AF919F918F91EB
:105200000F900BBE0F900FBE0F901F9018951F921E
:105210000F920FB60F9211240BB60F920F931F939C
:105220002F933F934F935F936F937F938F939F93AE
:10523000AF93BF93EF93FF9380911B04811142C200
:10524000809108018D7F90912D04892B8093080116
:10525000809108018F7790912E04892B809308010B
:10526000809108018D7F90912F04892B80930801F4
:10527000809108018F7B90912A04892B80930801EB
:10528000809108018F7B90912B04892B80930801DA
:1052900080910801877F90912C04892B80930801CD
:1052A0008091290486BD82E085BD81E080931B0446
:1052B00078948091410490914204892B09F0ACC00C
:1052C0008091430490919504981709F4E6C1809168
:1052D000430498E0899FD0011124FD01EB5BFB4F53
:1052E000F0934204E093410422813381309389009A
:1052F000209388002081318130933D0420933C0429
:10530000E48120913E042E1761F1E0933E0484E194
:10531000E89FF0011124E856FB4FF0934004E0931E
:105320003F044485558566857785769567955795BD
:10533000479540932404509325046093260470936A
:105340002704409320045093210460932204709317
:10535000230440931C0450931D0460931E04709317
:105360001F04E0913F04F09140042091180430891B
:10537000232720932D04218930911904232720937A
:105380002E04228930911A04232720932F04AB5B2B
:10539000BB4F15969C911597408151816281738115
:1053A000092E04C076956795579547950A94D2F7CC
:1053B000409330045093310460933204709333046B
:1053C0004481558166817781092E04C07695679561
:1053D000579547950A94D2F7409334045093350477
:1053E00060933604709337044085518562857385D8
:1053F00004C076956795579547959A95D2F740934F
:1054000038045093390460933A0470933B04169621
:105410008D919C910E94E1098091A30D8130B1F49E
:105420008091060180918A0D882381F01092A30D4E
:105430008CE0EBE8FDE0A7E9BDE001900D928A95D4
:10544000E1F78091850D80648093850D10922A0488
:1054500010922B0410922C0480911C0490911D0436
:10546000A0911E04B0911F0440913004509131046A
:105470006091320470913304840F951FA61FB71FEB
:1054800080931C0490931D04A0931E04B0931F04EA
:10549000E0913F04F0914004448555856685778509
:1054A000481759076A077B0728F520E420932A0448
:1054B000841B950BA60BB70B80931C0490931D04C3
:1054C000A0931E04B0931F0480918B0D90918C0DBE
:1054D000A0918D0DB0918E0D208921FF08C10197FB
:1054E000A109B10980938B0D90938C0DA0938D0D24
:1054F000B0938E0D8091200490912104A0912204FC
:10550000B0912304009134041091350420913604A5
:1055100030913704800F911FA21FB31F8093200486
:1055200090932104A0932204B093230448175907B1
:105530006A077B0728F520E420932B04841B950B36
:10554000A60BB70B8093200490932104A093220410
:10555000B093230480918F0D9091900DA091910DA7
:10556000B091920D218927FFC6C00197A109B10909
:1055700080938F0D9093900DA093910DB093920D09
:105580008091240490912504A0912604B0912704D1
:10559000009138041091390420913A0430913B0471
:1055A000800F911FA21FB31F8093240490932504A2
:1055B000A0932604B0932704481759076A077B076E
:1055C00028F528E020932C04841B950BA60BB70B21
:1055D0008093240490932504A0932604B093270479
:1055E0008091930D9091940DA091950DB091960D91
:1055F000228921FF84C00197A109B1098093930DED
:105600009093940DA093950DB093960D3091A40DA9
:1056100090E080E0343069F4DC01A45EBB4F1E965C
:105620002C911E97FC01EC55F24F468124231E96C7
:105630002C9301968330910569F780913C049091F9
:105640003D04019790933D0480933C04892B69F4B9
:105650001092420410924104809143048F5F809322
:1056600043048A3011F41092430480911504909100
:105670002A04892780932A048091160490912B0490
:10568000892780932B0480912C04909117048927FB
:1056900080932C0410921B0415C00E94EF0DE09122
:1056A0003F04F09140048389882349F01092AD00B3
:1056B0001092AC008091A000877F8093A00084E0CE
:1056C0000E943303FF91EF91BF91AF919F918F9112
:1056D0007F916F915F914F913F912F911F910F910A
:1056E0000F900BBE0F900FBE0F901F901895019654
:1056F000A11DB11DF7CE0196A11DB11D39CF019697
:10570000A11DB11D7BCF1F920F920FB60F921124D6
:105710000BB60F922F933F934F935F936F937F93AB
:105720008F939F93AF93BF93EF93FF93E091C60046
:10573000E13209F450C008F02EC0E83109F434C059
:10574000E7FF7DC0E458EE3108F030C0F0E0882774
:10575000E355F44D8F4F0C946837ED2BEF2BD62B80
:10576000D62BD62BD62BD62BD62BD62BD62BD62B31
:10577000D62BFB2BFF2B012C032C052C072C092CE3
:105780000B2CD62B0D2C112C132C152C172C192C63
:10579000D62B1B2C1D2CEF33E1F082E0EE3709F005
:1057A000CFCF0E94330302C00E94870EFF91EF917A
:1057B000BF91AF919F918F917F916F915F914F9129
:1057C0003F912F910F900BBE0F900FBE0F901F9027
:1057D000189581E0E6CF88E0E4CF80E2E2CF8091C7
:1057E000A40D85FFE3CF80E40E9433038091830DF5
:1057F0008093840DDBCF81E00E941A03D7CF82E033
:10580000FBCF84E0F9CF88E0F7CF80E1F5CF80E2ED
:10581000F3CF80E4F1CF80E8EFCF81E00E94110365
:10582000C5CF82E0FBCF84E0F9CF88E0F7CF80E1FD
:10583000F5CF80E2F3CF80E4F1CF80E8EFCF809125
:10584000830D8F5F9091840D981749F0A091830D7F
:10585000B0E0AB5EBC4FEC938093830DA7CF8BE0A1
:105860000E942303A3CF1F920F920FB60F92112411
:105870000BB60F928F939F93EF93FF938091140336
:10588000E82FF0E0EC5EFD4F90819093C6008F5FB3
:105890008093140390911302981305C08091C10066
:1058A0008F7D8093C100FF91EF919F918F910F9019
:1058B0000BBE0F900FBE0F901F901895CF93DF93E4
:1058C000CDB7DEB766970FB6F894DEBF0FBECDBF7B
:1058D0008091C00082608093C0001092C50080E17A
:1058E0008093C4008091C10088698093C10090E0DA
:1058F00080E00E943B058A3069F087E00E94CD0875
:105900008FEF0E944E1A0E94E1088091800D811154
:10591000FECF0AC049E550E061E070E087EB9DE012
:105920000E944305892B49F380910701806480938D
:10593000070180910701806480930701809107012E
:10594000886080930701579A809107018460809353
:105950000701809107018160809307018091070111
:10596000826080930701809107018068809307011E
:1059700080910701826080930701809181008F7E72
:105980008093810080918100886080938100809164
:1059900080008C7F80938000809180008F70809346
:1059A000800080916E00887F80936E0014BC15BCCF
:1059B00080916E00816080936E0080910701817EEE
:1059C00080930701809108018E6180930801809186
:1059D0006D008E6180936D0080916800846080937B
:1059E000680080910A0110920A0180910B018FEFEB
:1059F00080930B0180910E02816080930E0288E5F6
:105A000080937D0D80910D02826080930D0289E567
:105A100080937E0D80910C02846080930C028AE555
:105A200080937F0DEBE8FDE08CE0DF011D928A950D
:105A3000E9F778941092A40DA4EA2A2EADE03A2E4C
:105A4000EE24E394FE2C8091A40D93E1F1011192D8
:105A50009A95E9F78093A40D84E68093AD0D809329
:105A6000AE0D8093AF0DE7E9FDE08CE0DF011D9204
:105A70008A95E9F71092A30D1092850D1092860D6C
:105A80001092870D1092880D8091830D8093840D64
:105A9000E0E1FEE080E4DF011D928A95E9F764E32E
:105AA0007EE080E00E942D1A811103C087E00E94F1
:105AB000CD080E94F809249A8091010180648093A6
:105AC00001010E944A090A9A3A9A0B9A3B9A0C9A47
:105AD0003C9A0D9A3D9A089A389A099A399A0E9AE0
