:100000000C9465020C9486020C9486020C94860271
:100010000C9486020C9486020C9486020C94860240
:100020000C9486020C9486020C9486020C94EE2AA0
:100030000C9486020C9486020C9486020C94860220
:100040000C9486020C94582B0C9486020C94860215
:100050000C9486020C9486020C9486020C94302B2D
:100060000C9486020C94C82D0C94782E0C94860265
:100070000C9486020C9486020C9486020C948602E0
:100080000C9486020C9486020C9486020C94DD2A51
:100090000C9486020C9486020C9486020C948602C0
:1000A0000C9486020C9486020C9486020C948602B0
:1000B0000C9486020C9486020C9486020C948602A0
:1000C0000C9486020C9486020C9486020C94860290
:1000D0000C9486020C9486020C9486020C94860280
:1000E0000C948602084AD73B3BCE016E84BCBFFD10
:1000F000C12F3D6C74319ABD56833DDA3D00C77FF8
:1001000011BED9E4BB4C3E916BAAAABE0000008090
:100110003F000C94442E0C94622E0C949F340C944B
:10012000322E0C944C200C9486200C944E2E0C9461
:1001300069200C94DA1F0C9458340C944A2E0C94B9
:1001400006350C94F2340C94602E0C948A340C9482
:1001500072340C945E2E0C941B2E0C94F2210C9491
:10016000482E0C94CF340C94502E0C9455340C948F
:100170004C2E0C94A9340C945D340C9460340C9483
:1001800081340C94A11F0C945C2E0C94E3340C94D9
:10019000342E0C947E340C94522E0C94462E0C94D7
:1001A00012310C94DF1E0C94402E0C940F350C94DD
:1001B000BF200C94FB340C9413200C9493340C94B7
:1001C0004F340C94582E0C94EC340C945A2E0C94FE
:1001D0006A340C9496210C94DA340C94562E0C94B8
:1001E000D7340C940A210D0A3D3E20447261672DDC
:1001F0004C6F6767657220312E322D4F5A205B2776
:10020000242720666F722068656C705D0D0A0024DB
:100210004E005B4F50543A003A005B4158533A004D
:100220005B5645523A312E322D4F5A2E31312D31F7
:10023000312D323032353A005B544C4F3A005B4737
:1002400039323A003330003238005B47005B4C6192
:100250006D70753A005B53656E736F723A0020479C
:1002600000204D0020530020460020540033382E3B
:10027000005B47433A47005B484C503A2424202413
:100280002320244420244720244920244E2024785D
:100290003D76616C20244E783D6C696E6520244A61
:1002A0003D6C696E652024534C5020244320245813
:1002B000202448207E2021203F206374726C2D78FA
:1002C0005D0D0A00414C41524D3A000000C8430008
:1002D00000C8430000C84300803B4400803B44000A
:1002E000803B4400C82F4800C82F4800C82F480052
:1002F00000C8C3000048C3000048C30A0000FE0154
:100300000AD7A33C6F12033B00803B4600800944A0
:1003100000000000C84100007A43FA000000A0403D
:100320000D0A006F6B0D0A005B5052423A007C537D
:10033000746172743A007C53746172744C616D70B4
:10034000753A007C53746167654C616D70753A0055
:100350007C537461676553656E736F723A007C42BB
:10036000663A00536C65657000446F6F723A0043E3
:100370006865636B00416C61726D00486F6D65006C
:100380004A6F6700486F6C643A004379636C65009C
:1003900049646C65006572726F723A00536C6565F2
:1003A00070696E6700526573746F72696E6720734F
:1003B00070696E646C6500526573746F72696E6704
:1003C0002064656661756C74730050676D20456EBE
:1003D0006400436865636B204C696D697473004306
:1003E0006865636B20446F6F720044697361626C6F
:1003F000656400456E61626C656400436175746993
:100400006F6E3A20556E6C6F636B656400272448ED
:10041000277C2724582720746F20756E6C6F636BC0
:1004200000526573657420746F20636F6E74696E1B
:100430007565005B4D53473A005A5A5A5A5A5A5AF0
:10044000005959595959590058585858585858002E
:100450005B475D204D455241480D0A005B515D20D0
:10046000474F4F4F4F4F0D0A005B475D204D4552A0
:1004700041480D0A005B465D2048494A41550D0A36
:10048000005B455D204B554E494E4720330D0A0019
:100490005B445D204B554E494E4720320D0A005BB0
:1004A000435D204B554E494E4720310D0A005B42BB
:1004B0005D2053544147450D0A005B415D20505279
:1004C000452D53544147450D0A0011241FBECFEF5F
:1004D000D1E2DEBFCDBF00E00CBF12E0A0E0B2E091
:1004E000ECE7F3E700E00BBF02C007900D92AC30E1
:1004F000B107D9F72FE0ACE0B2E001C01D92A638F9
:10050000B207E1F70E94A32E0C94BC390C940000B2
:100510008F929F92AF92BF92CF92DF92EF92FF9213
:100520000F931F93CF93DF937C016B01DC01EC9160
:10053000F0E0EA57F14F8081EF018D3229F52296E4
:10054000818101E0912CF0E010E020E030E0A90191
:100550005E01E0EDE80FEA3018F5FF5FF930E0F4F6
:1005600091101150A5E0B0E00E9495399B01AC01BB
:10057000220F331F441F551F2E0F311D411D511DCA
:100580002196D5018C91E4CF8B3219F0219600E0B1
:10059000D9CF22968181FBCF9110F2CF1F5FF0CF90
:1005A000EE3F29F4911003C099249394E9CFFF23DF
:1005B000F9F0CA01B9010E9425374B015C0120E026
:1005C00030E0A9010E94783681112BC0002309F484
:1005D00045C0B7FAB094B7F8B094F6018082918222
:1005E000A282B382C658DE40C150F701C083F1E059
:1005F0008F2FDF91CF911F910F91FF90EF90DF90A0
:10060000CF90BF90AF909F908F9008952AE037EDE4
:1006100043E25CE3C501B4010E9496384B015C01E2
:100620001E5F1F3F9CF31F3F59F42DEC3CEC4CEC3C
:100630005DE3C501B4010E9496384B015C01C6CF51
:10064000112321F220E030E040E251E4C501B40181
:100650000E9496384B015C011150F2CFD6018D9269
:100660009D92AD92BC921397BDCF2FB7F894909105
:10067000880D892B8093880D2FBF08952FB7F8948C
:100680009091870D892B8093870D2FBF08959FB779
:10069000F8948093860D9FBF08959FB7F89420919A
:1006A000850D809582238093850D9FBF08952FB778
:1006B000F8949091850D892B8093850D2FBF089517
:1006C0004F925F926F927F92AF92BF92CF92DF92E2
:1006D000EF92FF920F931F93CF93DF930BED1DE0EB
:1006E000EC015C018CE0A80EB11CF801C190D19026
:1006F000E190F1908F0120E030E0A901C701B6013F
:100700000E9478368823A9F0488059806A807B80CF
:1007100020E030E0A901C301B2010E94563818164A
:10072000E4F0A3019201C701B6010E9456381816E1
:10073000A4F02496CA15DB05C1F680E0DF91CF91C5
:100740001F910F91FF90EF90DF90CF90BF90AF90EF
:100750007F906F905F904F90089581E0EFCF8F92E0
:100760009F92AF92BF92CF92DF92EF92FF920F9340
:100770001F93CF93DF93EB0127EBE22E2DE0F22EB8
:100780008C016B018CE0C80ED11C69917991899123
:100790009991F70181909190A190B1907F010E9471
:1007A0002737A50194010E947D36F801619371936A
:1007B000819391938F01CC15DD0539F7DF91CF91AE
:1007C0001F910F91FF90EF90DF90CF90BF90AF906F
:1007D0009F908F90089590910601892F8E7159F006
:1007E00094FB882780F921E0822791FF826092FFA5
:1007F000846093FF886008956F927F928F929F929A
:10080000AF92BF92CF92DF92EF92FF920F931F931E
:10081000CF93DF93EB018C015B018CE0A80EB11C40
:1008200089E9682E96E7792E26E9822E3EE7932EF7
:10083000C990D990E990F99020E030E0A901C70172
:10084000B6010E9478368823B9F0A7019601F80115
:1008500060817181828193810E947D366B017C0170
:10086000E894F7F89301A401C701B6010E94563835
:10087000181614F0360147010C5F1F4FCA15DB052F
:10088000B9F6B301C401DF91CF911F910F91FF9091
:10089000EF90DF90CF90BF90AF909F908F907F9020
:1008A0006F900895E1E6FDE0ABE8BDE04D915D910C
:1008B0006D917C9113974083518362837383149667
:1008C0004D915D916D917C9117974483558366831B
:1008D000778318968D919D910D90BC91A02D808766
:1008E0009187A287B3870895BF92CF92DF92EF924C
:1008F000FF920F931F93CF93DF937C01FC0100A91C
:1009000011A9D2A9C3A9838980FF33C06091AE0D1C
:1009100070E090E080E00E9427372AE037ED43E264
:100920005CE30E9496389B01AC01B8018D2F9C2F8F
:100930000E9496388B01D82FC92F20E030E040E884
:100940005FE3B8018D2F9C2F0E945638181624F0B3
:1009500000E010E0D0E8CFE3B8018D2F9C2FDF91AD
:10096000CF911F910F91FF90EF90DF90CF90BF90AC
:10097000089582FD17C06091AD0D70E090E080E0B9
:100980000E9427372AE037ED43E25CE30E94963865
:100990009B01AC01B8018D2F9C2F0E9496388B01D2
:1009A000D82FC92FF701B4A4C5A4D6A4F7A49801E1
:1009B0004D2F5C2F6B2D7C2D8D2D9F2D0E94783619
:1009C00087FFBBCF0B2D1C2DDD2DCF2DB6CF8091FA
:1009D000810D9091820D981739F028E3829FC00114
:1009E00011248F579A4F089590E080E00895F8946D
:1009F000F999FECF92BD81BD81E08FBB20B5862FD6
:100A00008227082E000C990B50E086239523892B12
:100A100049F084E16F3F11F060BD84E08FBBF99A2B
:100A2000789408952617E1F360BD84E2F7CF9F9292
:100A3000AF92BF92CF92DF92EF92FF920F931F93EC
:100A4000CF93DF935C018A017B01E40EF51EEB017D
:100A5000912C6C01C61AD70ACE018C0D9D1D21E088
:100A6000911007C0292D990C330B232F221F222709
:100A7000221F6991962E920E0E94F704CE15DF0573
:100A800059F7692DC501800F911FDF91CF911F91FB
:100A90000F91FF90EF90DF90CF90BF90AF909F901D
:100AA0000C94F7046AE090E080E00E94F70445E5CA
:100AB00050E067EB7DE081E090E00C941705F99938
:100AC000FECF92BD81BD81E08FBB80B508959F921E
:100AD000AF92BF92CF92DF92EF92FF920F931F934C
:100AE000CF93DF935B018A017C01E40EF51EEC01DC
:100AF000912C6B01C81AD90AC6018C0F9D1F0E9448
:100B00005F0521E0911007C0292D990C330B232F8D
:100B1000221F2227221F982E920E8993CE15DF05C1
:100B200059F7C501800F911F0E945F0521E030E059
:100B3000891511F030E020E0C901DF91CF911F91BC
:100B40000F91FF90EF90DF90CF90BF90AF909F906C
:100B50000895CF93DF93C0917D05D0917E052097B6
:100B6000C9F080914D05816080934D0560916305CA
:100B70007091640580916505909166059B01AC01BB
:100B80000E949638688F798F8A8F9B8F10927E058E
:100B900010927D05DF91CF9108952F923F924F9251
:100BA0005F926F927F928F929F92AF92BF92CF92FD
:100BB000DF92EF92FF920F931F93CF93DF9300D0BA
:100BC0001F92CDB7DEB70091820D002309F486C0D5
:100BD000098339813150398310917F05131709F446
:100BE00066C0C32ED12CE8E33E9FC00111249C01B6
:100BF0002F573A4F7901F901748C858C968CA78C0C
:100C000060A171A182A193A19B01AC010E948335D7
:100C1000F70124A135A146A157A10E949638B62E0E
:100C2000E72EF82E9B83262F372F482F592F672D1D
:100C3000782D892D9A2D0E94783687FF03C0B72C16
:100C40007401AB8288E38C9DF0018D9DF00D112421
:100C5000EF57FA4F8B2D9E2DAF2DBB81808F918F3B
:100C6000A28FB38FF9818F2FF11101C084E2FF248D
:100C7000FA94F80E3090810D1F1133C0131102C089
:100C80000E94A905E8E31E9FC00111248F579A4FC7
:100C90009A83898333243394310EF4E23F1201C0E6
:100CA000312C88E3282E031185C010937F050F9007
:100CB0000F900F900F90DF91CF911F910F91FF90A8
:100CC000EF90DF90CF90BF90AF909F908F907F90EC
:100CD0006F905F904F903F902F90089524E229836A
:100CE00078CF298188E3289F900111242F573A4F0C
:100CF0003C832B8328E3E22E8F2C912CFE9CC00199
:100D00001124FC01EF57FA4FFA83E983F11002C076
:100D100094E2F92EFA94F31002C00E94A905E89C0F
:100D2000C001E99C900D11249C012F573A4F690195
:100D3000F901448C558C668C778CA3019201608DEF
:100D4000718D828D938D0E947836882339F1F6015A
:100D500060A171A182A193A19B01AC010E94833586
:100D6000F60124A135A146A157A10E949638EB8136
:100D7000FC81208D318D428D538D0E9483354B0136
:100D80005C01AC019B01C301B2010E945638F6011F
:100D900018165CF4808E918EA28EB38E29813A81D2
:100DA0003C832B831F11A8CF6DCF408E518E628E56
:100DB000738EF4CFC32CD12C329CC00111249C0122
:100DC0002F573A4F7901E981FA81408C518C628C1E
:100DD000738CF901808C918CA28CB38CA501940149
:100DE000C301B2010E94783687FF26C0E981FA81EB
:100DF00060A171A182A193A19B01AC010E948335E6
:100E0000E981FA8124A135A146A157A10E94963813
:100E1000A30192010E9483352B013C01AC019B018F
:100E2000C501B4010E945638181634F4F701408EFB
:100E3000518E628E738E132D2C9CF0012D9CF00D23
:100E40001124EF57FA4F248D358D468D578D608DC7
:100E5000718D828D938D0E947836811101C0132D82
:100E60003394F4E23F1201C0312CFA82E9821BCFA5
:100E7000CF93DF932091E80D30E04091E90D50E0F1
:100E8000A8E1B4E0E5E1F4E090E080E0682FE9015A
:100E9000082E02C0D595C7950A94E2F7C0FF1EC080
:100EA00071E0882321F078E0813009F470E47083E8
:100EB000EA0102C0D595C7956A95E2F7C0FF10C058
:100EC00062E0813009F460E86C93019611963196E6
:100ED00083309105D9F6DF91CF9108951082E8CF44
:100EE0001C92F3CF8091FC0D82FF21C05F9A8A9AF9
:100EF000809108018160809308018091150480939E
:100F00002A048091160480932B0480911704809307
:100F10002C048091E70D8250990B880F8195809366
:100F2000290480916F00826080936F0008955F981C
:100F30008A98809108018E7FDECF0E94E704892B7A
:100F400019F082E00C9457030895E091130291E0A8
:100F50009E0F20911403291761F0F0E0EC5EFD4F25
:100F60008083909313028091C10080628093C100BE
:100F700004C02091850D24FFECCF0895CF93DF931B
:100F8000C6E8DEE08991811103C0DF91CF91089519
:100F90000E94A507F7CFCF93C82F81E3C0FF80E35E
:100FA0000E94A50781E3C1FF80E30E94A50781E3BA
:100FB000C2FF80E30E94A50781E3C3FF80E3CF91D6
:100FC0000C94A5078F929F92AF92BF92CF92DF921F
:100FD000EF92FF920F931F93CF93DF93CDB7DEB7BE
:100FE0002D970FB6F894DEBF0FBECDBF6B017C010D
:100FF000042F20E030E0A9010E94783687FF07C067
:101000008DE20E94A507F7FAF094F7F8F094102FFC
:10101000123008F054C000FF0AC020E030E040E287
:1010200051E4C701B6010E9496386B017C0120E0B3
:1010300030E040E05FE3C701B6010E9483350E94C3
:10104000EF3610E03AE0832E912CA12CB12CE12F49
:10105000F0E06115710581059105E9F581E090E009
:101060008C0F9D1FE80FF91F80E3101708F445C08F
:10107000101309C0E1E0F0E0EC0FFD1FE10FF11DDE
:1010800080E380831F5FEE24E394F12CEC0EFD1EC1
:10109000E10EF11C111134C02D960FB6F894DEBF8D
:1010A0000FBECDBFDF91CF911F910F91FF90EF90B9
:1010B000DF90CF90BF90AF909F908F90089520E0E9
:1010C00030E048EC52E4C701B6010E9496386B014B
:1010D0007C0112509DCFEE24E394F12CEC0EFD1E0A
:1010E000EE0EFF1EA50194010E946B39605DF701B1
:1010F0006083B901CA011F5FAACF1F5F8193B5CF7B
:10110000101303C08EE20E94A507F70182917F01B0
:101110000E94A5071150BECF2091FC0D43E020FF97
:1011200007C02BE832E441E25DE30E94963844E0D8
:101130000C94E2070F931F93CF938C01C0E0F8014A
:1011400061917191819191918F010E948C08C230BF
:1011500019F08CE20E94A507CF5FC33081F7CF91D1
:101160001F910F910895CF93DF93843658F06AE072
:101170000E945F39C0E3C90F6AE00E945F39D0E383
:10118000D90F04C0C0E0D0E08A30B0F7805D0E9483
:10119000A507DD2319F08D2F0E94A507CC2329F088
:1011A0008C2FDF91CF910C94A507DF91CF910895FB
:1011B000CF93DF93EC01FE0184912196811103C04E
:1011C000DF91CF9108950E94A507F5CF80E293E0CB
:1011D0000C94D808CF93C82F85E993E00E94D808D3
:1011E0008C2F0E94B308CF910C94E608811104C0A3
:1011F00083E293E00C94D8080C94EA08CF92DF9233
:10120000EF92FF92CF93DF93D82F6A017B01C22F19
:1012100084E20E94A5078D2F0E94B3088DE30E94EF
:10122000A5074C2FC701B6010E94E207DF91CF91BD
:10123000FF90EF90DF90CF900C94E608CF93DF9370
:10124000D82FC62F84E20E94A5078D2F0E94B308D5
:101250008DE30E94A5078C2F0E94B308DF91CF91E8
:101260000C94E608EF92FF920F931F93CF93DF93B6
:1012700081E08093800D6091E70D70E080E00E9436
:101280001E096091EA0D70E081E00E941E096091E4
:10129000E80D70E082E00E941E096091E90D70E0A7
:1012A00083E00E941E096091FC0D62FB662760F9D5
:1012B00070E084E00E941E096091FC0D66FB6627C9
:1012C00060F970E085E00E941E098091FC0D082EF7
:1012D000000C990B692F661F6627661F70E086E079
:1012E0000E941E096091EB0D70E08AE00E941E09C9
:1012F0004091EC0D5091ED0D6091EE0D7091EF0D60
:1013000023E08BE00E94FE084091F00D5091F10D1A
:101310006091F20D7091F30D23E08CE00E94FE08C5
:101320006091FC0D617070E08DE00E941E0960917B
:10133000FC0D65FB662760F970E084E10E941E09E0
:101340006091FC0D63FB662760F970E085E10E9407
:101350001E096091FC0D6295617070E086E10E944B
:101360001E096091FD0D70E087E10E941E09409109
:10137000FE0D5091FF0D6091000E7091010E23E063
:1013800088E10E94FE084091020E5091030E609188
:10139000040E7091050E23E089E10E94FE08609121
:1013A000060E7091070E8AE10E941E094091080EF8
:1013B0005091090E60910A0E70910B0E23E08BE1A3
:1013C0000E94FE084091F40D5091F50D6091F60DCC
:1013D0007091F70D20E08EE10E94FE084091F80D1B
:1013E0005091F90D6091FA0D7091FB0D20E08FE1A5
:1013F0000E94FE086091FC0D6695617070E080E2CD
:101400000E941E0984E6F82E10E0C7EBDDE000E044
:10141000E02EEF0C123021F1133079F11130D9F0B8
:10142000488159816A817B8123E08E2D0E94FE08CC
:101430000F5F2496033061F78AE0F80E1F5F8CE897
:10144000F812E3CF1092800DDF91CF911F910F9191
:10145000FF90EF9008954C855D856E857F85E4CF84
:1014600020E030E041E655E4688D798D8A8D9B8DD2
:101470000E947D36AB01BC01D7CF4CA15DA16EA10E
:101480007FA17058D1CF8DE50E94A5070C94E60886
:10149000CF93DF93CDB7DEB72C970FB6F894DEBFAE
:1014A0000FBECDBF88E293E00E94D80867E97DE0D7
:1014B000CE0101960E94AF03CE0101960E949A08C8
:1014C0008AE30E94A5078091A90D0E94B3080E949B
:1014D000430A2C960FB6F894DEBF0FBECDBFDF9146
:1014E000CF9108959091A50D91110CC086FF0BC06E
:1014F0002C9A87FF0AC080910201806480930201C8
:101500001092B10D08952C98F4CF809102018F7B39
:10151000F5CF2C98E2E0F1E080818F7B8083089505
:101520008091090181709091090191FD82609091F3
:10153000090192FD84609091090193FD88600895EE
:101540008091090181709091090191FD82609091D3
:10155000090192FD84609091090193FD886090914A
:10156000090194FD80619091090196FD806290913E
:10157000090195FD80649091090197FD80680895A7
:101580009093AD008093AC00892B31F48091A00042
:10159000877F8093A00008958091A0008860F9CF94
:1015A000E0EAF0E08081877F8083A5980895E0EAF3
:1015B000F0E08081877F80839D9A83E080838AE149
:1015C0008093A10080E094E09093A9008093A8000C
:1015D0009D9A6B9A2091F80D3091F90D4091FA0D7A
:1015E0005091FB0D6091F40D7091F50D8091F60D09
:1015F0009091F70D0E9482359B01AC0160E070EC88
:101600008FE794E40E947D3660930F02709310027E
:1016100080931102909312020C94D00AE1E6FDE04F
:101620008CE1DF011D928A95E9F71092810D1092ED
:10163000820D81E08093800510927F0508954F927E
:101640005F926F927F928F929F92AF92BF92CF9252
:10165000DF92EF92FF920F931F93CF93DF93EC01F2
:101660008DE7E82E8DE0F82E6E01812C912C54012F
:1016700010E0EDE7FDE080E007C02191D7019C91EB
:10168000291709F464C08F5F8113F7CF00E0F601DA
:1016900041905190619071906F0120E030E0A9017C
:1016A000C301B2010E947836882381F001110EC077
:1016B000A3019201C301B2010E9496389B01AC01C3
:1016C000C501B4010E9483354B015C011F5FFFEF30
:1016D000EF1AFF0A133069F6C501B4010E940939F7
:1016E0006B017C01AC019B0160E070E080E89FE34E
:1016F0000E947D362B013C018E01045F1F4F6991D2
:101700007991899199915E0124E0A21AB108A3010F
:1017100092010E949638D5016D937D938D939C9391
:101720001397C017D10759F7C701B601DF91CF91C1
:101730001F910F91FF90EF90DF90CF90BF90AF90EF
:101740009F908F907F906F905F904F90089501E0F1
:101750009ECF4F925F926F927F928F929F92AF92A5
:10176000BF92CF92DF92EF92FF926B017C0180904B
:10177000F80D9090F90DA090FA0DB090FB0D4090EF
:10178000F40D5090F50D6090F60D7090F70DA301DB
:101790009201C501B4010E94563887FF1BC06091B9
:1017A000AF0D70E090E080E00E9427372AE037ED2F
:1017B00043E25CE30E949638A70196010E949638A6
:1017C0006B017C01AC019B01C301B2010E94783620
:1017D0001816BCF04092B30D5092B40D6092B50D46
:1017E0007092B60D80E094E0FF90EF90DF90CF9084
:1017F000BF90AF909F908F907F906F905F904F9031
:101800000895A7019601C501B4010E94563887FDCD
:101810001FC020E030E0A901C701B6010E94783660
:1018200081110BC01092B30D1092B40D1092B50D32
:101830001092B60D90E080E0D7CF8092B30D9092D9
:10184000B40DA092B50DB092B60D81E090E0CCCF72
:10185000C092B30DD092B40DE092B50DF092B60DDA
:10186000A5019401C701B6010E94823520910F02A3
:101870003091100240911102509112020E9496384C
:101880000E94623720E030E040E85FE30E94833549
:101890000E94F636CB01A8CF9091A50D91110EC0F4
:1018A00081110DC01092B30D1092B40D1092B50DB0
:1018B0001092B60D0E94D00A1092B10D0895803199
:1018C00091F473989091FC0D91FF05C0803219F44A
:1018D00040E050E0BA01CB01BA010E94A90B0E947E
:1018E000C00AA59AE9CF739AEDCF019708F408953D
:1018F000EFE9FFE03197F1F700C00000F6CF4F921B
:101900005F926F927F929F92AF92BF92CF92DF923F
:10191000EF92FF920F931F93CF93DF93CDB7DEB774
:10192000A4970FB6F894DEBF0FBECDBF8CE0EBE8F6
:10193000FDE0DE01119601900D928A95E1F7BE015E
:101940006F5F7F4FCE010D960E94AF038CE30E9424
:10195000A5078091A40D883009F42DC108F008C1B5
:10196000813009F431C108F421C1823009F42FC15A
:10197000843009F426C1E090EB0D2E2D2170922EBB
:10198000E0FE04C08091B20D81114BC04090480E22
:101990005090490E60904A0E70904B0E80E3C82E16
:1019A0008EE0D82E5E0189E1A80EB11C8E01035F86
:1019B0001F4FF12CF60161917191819191916F010D
:1019C00020853185428553850E948335F5016193D9
:1019D0007193819391935F01F2E0FF120DC1A30116
:1019E00092010E94833569A37AA38BA39CA39110D3
:1019F00018C0F50134972081318142815381F8016B
:101A000060817181828193810E948235F8016083B7
:101A1000718382839383F3940C5F1F4FF3E0FF1273
:101A2000C9CFE1FE20C08EE593E00E94D8089091D6
:101A3000820D8091810D981708F4E2C08D5D891B9D
:101A40000E94B3088CE20E94A5078091840D9091BA
:101A5000830D981708F4D6C09091830D981B892F99
:101A600080950E94B3080E94A00A182F8823E1F0F5
:101A700080E593E00E94D80810FFC9C081E30E946E
:101A8000A507089A11FFC8C081E30E94A507389AEC
:101A900012FFC7C081E30E94A507099A13FFC6C0C1
:101AA00081E30E94A507399A0E94900A182F882383
:101AB000C1F083E493E00E94D80881E310FF80E343
:101AC0000E94A50781E311FF80E30E94A50781E33F
:101AD00012FF80E30E94A50781E313FF80E30E94C9
:101AE000A50712B1812F8095182F1C7329F082FB56
:101AF000112710F981E01827429B1260139B146094
:101B0000439B1860149B1061449B1062159B1064EA
:101B1000459991C0106886E393E00E94D80810FFB1
:101B200003C084E40E94A50781E311FF80E30E94C3
:101B3000A50781E312FF80E30E94A50781E313FF5D
:101B400080E30E94A50781E314FF80E30E94A507BC
:101B500081E315FF80E30E94A50781E316FF80E380
:101B60000E94A50781E317FF80E30E94A50765C0D7
:101B7000803221F198F4803109F0FDCE8091A60DDC
:101B800087FD1CC084E893E00E94D8088091A60DD0
:101B900080FF2EC080E30E94A507EDCE8034D1F0F7
:101BA000803809F0E8CE83E693E002C080E993E054
:101BB0000E94D808E0CE8AE893E0FACF80E893E06C
:101BC000F7CF8BE793E0F4CF85E793E0F1CF8FE693
:101BD00093E0EECF89E693E00E94D8088091A60DAD
:101BE00083FF02C083E3D7CF82FF04C085FFD2CF3B
:101BF00081E3D1CF82E3CFCF992009F4FACE0BCF86
:101C000081501DCF9091830D8150891B2ACF80E395
:101C10000E94A507089836CF80E30E94A507389850
:101C200037CF80E30E94A507099838CF80E30E9450
:101C3000A507399839CF11116ECF8091060180FD2B
:101C40002EC08EE293E00E94D80881E30E94A5078F
:101C50000E94A00A882319F1982F95709530F9F405
:101C60008A708A30E1F40A980B980C980D983A988B
:101C70003B983C983D980A9A3A9A88EC90E00E94EA
:101C8000750C0B9A3B9A88EC90E00E94750C0C9AAC
:101C90003C9A88EC90E00E94750C0D9A3D9A8EE378
:101CA0000E94A5070E94E608A4960FB6F894DEBF2E
:101CB0000FBECDBFDF91CF911F910F91FF90EF909D
:101CC000DF90CF90BF90AF909F907F906F905F908C
:101CD0004F90089580916F008D7F80936F00809169
:101CE0008100887F81608093810010921B04809125
:101CF000EA0D9091A40D8F3FD1F42091860D211112
:101D000016C09038B1F490E00E94750C81E090917B
:101D1000FC0D92FF02C091E08927882361F05F9A51
:101D20008A9A809108018160809308010895943017
:101D300051F780E0ECCF5F988A98809108018E7F00
:101D4000F3CFCF93DF930E946A0EECE4F5E081E3DA
:101D5000DF011D928A95E9F7CCE1D4E087E2FE012C
:101D600011928A95E9F710927E0510927D051092E6
:101D700043041092950481E08093440410921B0464
:101D80000E943807A8E1B4E08C91898B11968C9160
:101D900011978A8B12963C9112973B8B21B32E7F21
:101DA000E5E1F4E09081292B21BB21B32D7F9C91AB
:101DB000292B21BB21B32F7B9181292B21BB91B3EF
:101DC0009F77982B91BB91B3977F8281982B91BB82
:101DD00081B38D7F832B81BBDF91CF91089580915B
:101DE000850D84FD1DC080E10E9457030E94D00A2A
:101DF0000E94890A9091A40D892F8C7221F4809100
:101E0000A80D867069F0943049F48091860D811197
:101E100003C086E00E9447030C946A0E83E0FACF69
:101E200008952F923F924F925F926F927F928F927E
:101E30009F92AF92BF92CF92DF92EF92FF920F9359
:101E40001F93CF93DF93CDB7DEB7EB970FB6F89420
:101E5000DEBF0FBECDBF8091A80D80FD4AC290911C
:101E6000430480914404981709F443C280917D058E
:101E700090917E05892B09F07EC01091A80D12FF6C
:101E800051C28091820D28E3829FC00111248F5797
:101E90009A4F90937E0580937D0540917D055091EA
:101EA0007E055A874987452B09F423C200914D05C9
:101EB00000FF3BC210924D0510925F051092600525
:101EC0001092610510926205A985BA8590962D91B0
:101ED0003D914D915C91939729833A834B835C8329
:101EE00060E070E080E09FE30E947D366D837E833A
:101EF0008F839887E985FA8544A055A066A077A0CE
:101F0000808C918CA28CB38C11FF04C3F2E0F0930F
:101F10005E05A50194010E9496389B01AC01C301A6
:101F2000B2010E9482356B017C0120E030E0A90102
:101F30000E94783687FFDDC229813A814B815C811E
:101F4000CA01B9010E948335A30192010E9496380B
:101F50009B01AC01C501B4010E9482350E94093980
:101F600060936B0570936C0580936D0590936E057F
:101F700018601093A80DE0919504F8E0EF9FD00150
:101F80001124BA8BA98BFD01EB5BFB4F80914C05B3
:101F9000848320917D0530917E053A872987D90178
:101FA0009496BC91BDA3F901F5A1FEA3D901969623
:101FB000BC91BFA3F901F7A1F8A720915A05309170
:101FC0005B0540915C0550915D056DA17EA18B2F55
:101FD0009F2F0E94823569AB7AAB8BAB9CAB20E024
:101FE00030E0A9010E94783687FF04C019AA1AAA16
:101FF0001BAA1CAA209167052D8B309168053E8B8A
:10200000409169054F8B50916A05588F80916F05FB
:102010008D8F909170059E8FA0917105AF8FB091BB
:102020007205B8A3E0917305E9A7F0917405FAA7CA
:10203000209175052BA7309176053CA7409163054B
:102040004AAF509164055BAF00916505109166053C
:1020500080915E058D8790915F059DA7A091600599
:10206000AEA7B0916105BFA7E0916205E8ABF09122
:102070006B05FEAB20916C052FAB30916D0538AF31
:1020800040916E0549AF29A53AA54BA55CA56D8D7C
:102090007E8D8F8D98A10E9478368111CAC352E03F
:1020A0005DAB9DA1998FAEA1AA8FBFA1BB8FE8A503
:1020B000EC8F8EE3C82E83ECD82E8EE2E82E89E3D7
:1020C000F82E412C512C3201A701960129A33AA3E5
:1020D0004BA35CA35D85513009F446C4A985BA853C
:1020E000513008F4D6C3533009F074C490962D9142
:1020F0003D914D915C919397C701B6010E9496382E
:102100004B015C012D893E894F89588D6AAD7BADAD
:10211000C8010E9482359B01AC01C501B4010E9437
:10212000563887FD90C32D8D3E8D4F8D58A16DA1E2
:102130007EA18FA198A50E9482359B01AC010E94CF
:1021400083356B017C012D893E894F89588D6AAD9D
:102150007BADC8010E9483359B01AC01C701B6016C
:102160000E947D366B017C01BD89BAAFEE89EBAF71
:102170000F89188D2D8C3E8CFF8DF98328A12D831E
:1021800031E03D87A7019601C301B2010E9483356A
:102190002B013C0129A13AA14BA15CA10E947836F8
:1021A00087FF82C4A301920169A17AA18BA19CA19E
:1021B0000E9482356B017C01910149815D816DA591
:1021C0007EA58FA598A90E94783687FD35C38AAD74
:1021D0009BADD8018093630590936405A09365053A
:1021E000B09366053D8530935E05E0919604F091CD
:1021F00097048389811104C09091A80D93FF32C088
:10220000A985BA8553969C915397907309F477C426
:10221000D496CD90DD90ED90FC90D7978823A9F0CF
:1022200020917705309178054091790550917A0594
:102230006AAD7BADC8010E9496389B01AC01C70115
:10224000B6010E9496386B017C01C701B6010E945D
:10225000A90B90937C0580937B058091A80D877FC7
:102260008093A80D80917B0590917C05E989FA897E
:10227000EB5BFB4FFAA3E9A3978386832091560576
:10228000309157054091580550915905B101898108
:102290009D810E94963869877A878B879C870E94E8
:1022A00061366B017C0160915205709153058091FC
:1022B0005405909155050E9461364B015C01A701C0
:1022C00096010E9482350E94F6366D877E878F8741
:1022D000988BED85FE85A9A1BAA1ED93FC93EF2B18
:1022E00009F01AC48091A80D81FF16C48160809303
:1022F000A80DEB960FB6F894DEBF0FBECDBFDF91F1
:10230000CF911F910F91FF90EF90DF90CF90BF90F2
:10231000AF909F908F907F906F905F904F903F9085
:102320002F9008950E94E704B4CD80914C058F5FF3
:10233000893009F480E080934C05282F30E054E187
:10234000859FC0011124DC01A856BB4F7D01B093CD
:102350009704A0939604E985FA85808950968C931A
:102360005097818951968C935197828952968C937C
:1023700090E080E04191519161917191D701A80F56
:10238000B91F689412F8440F551F661F771F1694E3
:10239000D1F74D935D936D937C93139704968C3096
:1023A000910541F7A985BA851C966D917D918D9116
:1023B0009C911F97B4E1B29FA001B39F500D1124CF
:1023C000FA01E856FB4F4B015C0123E0880C991C95
:1023D000AA1CBB1C2A95D1F784869586A686B7864B
:1023E0000E942537609352057093530580935405DE
:1023F00090935505E985FA8524A135A146A157A1F9
:102400000E947D369B01AC01209356053093570501
:10241000409358055093590560E070E080EA9FE3CF
:102420000E947D3660935A0570935B0580935C052E
:1024300090935D0510924E0510924F051092500535
:102440001092510511FD02C003FF42C060916B055F
:1024500070916C0580916D0590916E056093630598
:102460007093640580936505909366059B01AC01AC
:102470000E949638A985BA8558966D937D938D9361
:102480009C935B97077F00934D05D70153961C9251
:102490008091FC0D81FF10CDE985FA85838985FF48
:1024A0000BCD20A931A942A953A960E070E080E8D2
:1024B0009FE30E947D366093770570937805809343
:1024C000790590937A05E1E0D7015396EC93F4CC2B
:1024D000E985FA85608D718D828D938D0E94093911
:1024E000609363057093640580936505909366051A
:1024F000CCCFC0925F05D0926005E0926105F0926A
:10250000620510926B0510926C0510926D05109289
:102510006E052ECD10925E0540926F0550927005AB
:10252000609271057092720512FF6AC010926B057D
:1025300010926C0510926D0510926E05C12CD12C75
:10254000760189859A850E947404698B7A8B8B8BBE
:102550009C8B9B01AC010E94963869877A878B8798
:102560009C87A50194010E94783687FF93C0298536
:102570003A854B855C85C501B4010E9482352D8169
:102580003E814F8158850E9496389B01AC01C30162
:10259000B2010E94823560936F057093700580933D
:1025A00071059093720520E030E0A9010E94783611
:1025B00018160CF449C032E030935E0529813A8147
:1025C0004B815C81CA01B9010E948335A30192014C
:1025D0000E9496389B01AC01C501B4010E9482356E
:1025E0000E94093960936B0570936C0580936D05AB
:1025F00090936E0580914D05886080934D05B8CC11
:10260000E091810DEF5FE43209F4E0E08091820D0A
:10261000C12CD12C76018E1751F028E32E9FF001AA
:102620001124EF57FA4FC08CD18CE28CF38CC70188
:10263000B6010E94093960936B0570936C05809315
:102640006D0590936E057DCFA701960169857A850A
:102650008B859C850E9482352D813E814F815885D6
:102660000E94963860937305709374058093750586
:102670009093760589899A89AB89BC89809367058F
:1026800090936805A0936905B0936A0593E09093D1
:102690005E056ECCA7019601C501B4010E9482358A
:1026A0002D813E814F8158850E949638A301920169
:1026B0000E94833520E030E040E05FE30E949638DE
:1026C0006D877E878F87988B20E030E0A9010E947C
:1026D000563818160CF094C0A30192016D857E85C2
:1026E0008F8598890E94783687FF88C0A701960158
:1026F00069857A858B859C850E9482352D813E81F6
:102700004F8158850E9496389B01AC012093730538
:102710003093740540937505509376056D857E85DD
:102720008F8598890E9456381816BCF529893A89F0
:102730004B895C8920936705309368054093690550
:1027400050936A05A501940169857A858B859C85DE
:102750000E947836811104C031E030935E0508CCC8
:10276000A501940169857A858B859C850E948235B7
:102770002D813E814F8158850E9496389B01AC0186
:10278000C301B2010E94823560936F05709370059A
:102790008093710590937205EBCB8D859E85AF85F7
:1027A000B88980936F0590937005A0937105B093DD
:1027B00072058093730590937405A0937505B0938B
:1027C000760529813A814B815C81CA01B9010E9459
:1027D00083352D853E854F8558890E949638A701FF
:1027E00096010E9483350E940939609367057093B2
:1027F00068058093690590936A05BACB92E047CF4C
:1028000080916B0590916C05A0916D05B0916E055E
:1028100010926F051092700510927105109272055A
:102820008093670590936805A0936905B0936A0546
:102830009FCB81E08DAB35CC298E3A8E39813B8F91
:102840004D814C8F47CC20E030E040E05FE3C50194
:10285000B4010E9496389B01AC016AAD7BADC80102
:102860000E948235A70196010E9496389B01AC0117
:10287000698D7A8D8B8D9C8D0E9482351B01898399
:102880009D83A50194016AAD7BADC8010E9482358C
:1028900067C090962D913D914D915C919397C701A2
:1028A000B6010E9496384B015C0120E030E040E028
:1028B0005FE30E9496382AAD3BADA8010E948335A4
:1028C000A70196010E9496389B01AC01698D7A8D13
:1028D0008B8D9C8D0E9482351B0189839D839B017A
:1028E000AC016D8D7E8D8F8D98A10E945638181683
:1028F00084F52D8D3E8D4F8D58A16DA17EA18FA1A8
:1029000098A50E9482359B01AC010E9483356B0122
:102910007C012D893E894F89588D6AAD7BADC801F8
:102920000E9483359B01AC01C701B6010E947D3630
:102930006B017C01BDA9BD87ED89EAAFFE89FBAFC4
:102940000F89188D2D8C3E8C2F8D298338A13D83C6
:1029500019CCA50194016AAD7BADC8010E948335F5
:102960006AAF7BAF8C010ECC2D893E894F89588D83
:10297000C701B6010E9496389B01AC01698D7A8D22
:102980008B8D9C8D0E9482351B0189839D8329A597
:102990003AA54BA55CA50E94783687FFF3CB29A505
:1029A0003AA54BA55CA5698D7A8D8B8D9C8D0E9477
:1029B00082352D893E894F89588D0E947D366B0165
:1029C0007C0129A43AA44BA549835CA55D8382E0E0
:1029D0008D87D8CB90962D913D914D915C91939799
:1029E000C701B6010E9496384B015C01AC019B0106
:1029F0006AAD7BADC8010E94563818163CF520E040
:102A000030E040E05FE3C501B4010E9496389B01CD
:102A1000AC016AAD7BADC8010E948235A701960169
:102A20000E9496389B01AC01698D7A8D8B8D9C8DAF
:102A30000E9482351B0189839D832DA53EA54FA54C
:102A400058A90E94563818160CF41BCF2DA53EA588
:102A50004FA558A9698D7A8D8B8D9C8D0E948235EA
:102A60009B01AC010E9483356B017C012EA93FA91B
:102A700048AD59AD6AAD7BADC8010E9483359B015D
:102A8000AC01C701B6010E947D366B017C01BEA975
:102A9000BAAFEFA9EBAF08AD19AD2DA43EA4FFA5C9
:102AA000F98328A92D836ECB29A93AA94BA95CA942
:102AB000B10189819D810E94563818168CF42EE34D
:102AC00033EC4EE259E369A17AA18BA19CA10E944B
:102AD000833569A37AA38BA39CA3A301920168CB3E
:102AE0008AAD9BADD8018093630590936405A09354
:102AF0006505B09366054D8540935E0576CB1092D3
:102B0000B30D1092B40D1092B50D1092B60D109237
:102B10007C0510927B05A1CB20914E0530914F058D
:102B20004091500550915105C301B2010E94833577
:102B30002B013C0129853A854B855C85C501B40193
:102B40000E9482359B01AC01C301B2010E947D3617
:102B50004B015C0120EC31EE44E65EE40E949638C5
:102B60000E9461360E94F636E989FA89EB5BFB4FD9
:102B7000603D37E073078105910508F059C0158263
:102B8000E989FA89EB5BFB4F73836283809144048C
:102B9000809395048F5F8A3009F480C08093440449
:102BA000E0917D05F0917E05C101A981BD8184A3DD
:102BB00095A3A6A3B7A3C0925205D0925305E09265
:102BC0005405F092550529853A854B855C85C701EA
:102BD000B6010E948235A50194010E949638609347
:102BE0004E0570934F0580935005909351052091A9
:102BF0005F05309160054091610550916205B1011A
:102C000089819D810E947836811129C99091A80DF2
:102C1000998720E030E0A901B10189819D810E945E
:102C200056381816F4F5A985A160A093A80D61CBBC
:102C3000603A4FE074078105910520F551E0558316
:102C4000E989FA89EB5BFB4F2581022E04C096953A
:102C50008795779567950A94D2F74D855E8502C072
:102C6000440F551F2A95E2F7518340836115710582
:102C700051E08507910508F483CF8FEF9FEF938391
:102C8000828384CF6034AFE17A078105910518F41F
:102C9000B2E0B583D5CF23E02583D2CF1092440490
:102CA0007FCFB985B2FF04C0B160B093A80D21CB2E
:102CB00010927E0510927D059091810D8091820D7C
:102CC000891709F4CCC881E0890F843209F480E0C7
:102CD00020917F05921302C080937F058093810D20
:102CE000BEC84F925F926F927F928F929F92AF92E7
:102CF000BF92CF92DF92EF92FF920F931F93CF93E9
:102D0000DF93C091860DCC2391F181E08093A40DD7
:102D100084EC92E00E94D8088C2F0E94B3080E9495
:102D2000E60884EF91E00E94750CC150C230D0F4E7
:102D300083E394E00E94D80881E294E00E94D808DE
:102D40000E94430A80E10E944D038091850D80FF1F
:102D500005C00E947F0C81E00E944D038091850D8B
:102D600084FFF3CF8FB7F8941092860D8FBFC09178
:102D7000850DCC2309F4DBC0C4FF14C081E080932F
:102D8000A50DDF91CF911F910F91FF90EF90DF90F4
:102D9000CF90BF90AF909F908F907F906F905F90FB
:102DA0004F900895C0FF05C00E947F0C81E00E94F3
:102DB0004D038C2F887E09F46AC08091A40D982F52
:102DC000937009F053C08872A9F08091A60D807CA1
:102DD00089F40E94A90582E08093A80D8091A40D3A
:102DE000803241F480E2C7FD0CC08091A60D80685E
:102DF0008093A60D8091A40D811103C091E0909362
:102E0000A60DC6FF07C085FD05C09091A60D906474
:102E10009093A60DC3FF05C0807E19F480E18093D6
:102E2000A40DC5FF23C083E394E00E94D8088FED72
:102E300093E00E94D8080E94430A8091A60D87FD66
:102E400010C09091A40D903451F483FF04C0837E90
:102E500082608093A60D80E48093A40D02C0903818
:102E6000D1F78091A60D80628093A60DC7FF0CC09C
:102E70008091A40D813029F48091A60D8560809306
:102E8000A60D80E88093A40D88EE0E944D03C1FF3B
:102E900028C08C2F887611F58091A40D803441F4E0
:102EA0008091A60D85FD04C084FF02C11092A40D7F
:102EB0008091A40D882309F401C184FF0FC0909173
:102EC000A60D90FF0BC0803109F0F8C08091B00DC5
:102ED000882309F4F3C088608093B00D82E00E94DB
:102EE0004D03C2FF24C09091A60D8091A40D807D5A
:102EF00009F4FDC08091A70D8111F9C097FDF9C0BB
:102F00000E94A9058091810D80937F050E94CD05C7
:102F10008091A80D81FF05C09091A60D91609093BE
:102F2000A60D897F8093A80D84E00E944D039091A7
:102F3000870D992309F44DC08FB7F8941092870D2F
:102F40008FBF4091AD0D842F90FD84E691FD865F8B
:102F500092FD8A5093FD8F5F94FD8150893C08F06B
:102F600088EC8A3008F48AE03091AE0D232F95FD6D
:102F700024E696FD22E397FD29E1481302C02317BA
:102F800041F18093AD0D2093AE0D1092B10D809064
:102F9000810D4090820DC82D89E9B82E96E7E92E63
:102FA00026E9F22EDEE738E3532EC411C1C08B2D83
:102FB0009E2DAF2DBD2F8093790D90937A0DA09308
:102FC0007B0DB0937C0D0E94A90580927F050E9425
:102FD000CD05D091880DDD2309F453C08FB7F89447
:102FE0001092880D8FBF9091AF0D892FD0FD84E690
:102FF000D1FD865FD2FD8A50D3FD8F5FD4FD815015
:10300000893C08F088EC8A3008F48AE09817A1F02F
:103010009091A40D8093AF0D9111DFC04091170ED8
:103020005091180E6091190E70911A0E8091150E24
:103030000E944C0C1092B10D8091A40DD5FF09C0D7
:10304000803139F49091B00D9111CDC092E0909300
:10305000B00D9D2F907CA9F0882311F0887389F022
:10306000C091140ED7FF03C0C7FFC1C0CF77D6FFF2
:1030700003C0C6FFBEC0CF7B8C2F0E94720AC093D4
:10308000140E8091A40D8C7F09F47BCEDF91CF913B
:103090001F910F91FF90EF90DF90CF90BF90AF9076
:1030A0009F908F907F906F905F904F900C94110F36
:1030B00082FFFECE88608093A60DFACE1092A80DF6
:1030C0000E94E704892B71F08091A60D86FD0AC04D
:1030D0001092A60D88E08093A40D0E94110F0E940B
:1030E0007207FCCE1092A60D1092A40DF7CE97FF9A
:1030F0000EC01092A80D0E940E0B0E94A10E6BE84C
:103100007DE084E29EE00E94AF030E945204809121
:10311000A60D85FF08C08F7781608093A60D80E49F
:103120008093A40D01CF1092A60D1092A40DFCCE99
:10313000CC2ED12CC59DC00111248F579A4F0E94CF
:1031400074043B01982EA92E2B2D3E2D4F2D5D2F63
:103150000E9456385C9C80015D9C100D11240F5715
:103160001A4F18169CF52B2D3E2D4F2D5D2F6B2DD4
:103170007E2D8F2D9D2F0E949638F801648F758FBC
:10318000868F978F5C9C80015D9C100D11240F57DA
:103190001A4FF801C0A4D1A4E2A4F3A4A701960198
:1031A000648D758D868D978D0E94563818162CF477
:1031B000F801C48ED58EE68EF78ECF5FC43209F447
:1031C000C0E0B62CE72CF92CDA2DEFCE9301492D77
:1031D0005A2DB301892D9A2DCECF8091A80D8860EC
:1031E0008093A80D27CF90FF34CF946030CFC06874
:1031F0003ECFC06441CFCF92DF92EF92FF921F93F8
:10320000CF93DF930E9471168091A60D882309F455
:1032100071C00E94E704FC01892B09F03FC0909126
:10322000150EC091140EC92BC090170ED090180E19
:10323000E090190EF0901A0E8091FC0D81FF03C0F2
:1032400080E20E943503DC2FD07311E0C07C8091B6
:10325000A60D882309F44EC09091A50D91114AC086
:1032600080FF19C09091A40D292F207C09F495C0EE
:1032700082FD25C01092B00D40E050E0BA0180E020
:103280000E944C0C80E00E94720A8091A60D8D7FF6
:1032900084608093A60D0E947116D9CFC389C07334
:1032A0002C990BC090E08091020186FD9068C92B9B
:1032B000C4A8D5A8E6A8F7A8BFCF90E4F4CF90386B
:1032C00021F583E394E00E94D8088CE993E00E9402
:1032D000D8080E94430A40E050E0BA0180E00E9412
:1032E0004C0C80E00E94720A0E946A0E8091A50D2B
:1032F000882341F0DF91CF911F91FF90EF90DF90F5
:10330000CF9008950E947116F1CF903449F40E9435
:10331000EB0380FD05C08091A60D8F7D8093A60DE7
:103320008091A60D83FFB7CF9091150E992359F088
:1033300081FD09C08091FC0D81FF22C08091A80D04
:1033400088608093A80D8091140E882371F080917D
:10335000A60D81FD0AC08C2F0E94720A41E060E038
:1033600070E080E89FE30E94191A8091A60D81FD0C
:1033700092CF80618093A60D82E00E9457038BCF8D
:10338000B701A6018D2F0E944C0C41E060E070E077
:1033900080E890E40E94191AD6CF8091B00D88235E
:1033A000C9F181FF0DC08091150E882351F140E0D5
:1033B00050E0BA0180E00E944C0C1093B00D6BCF2E
:1033C0008C7009F468CF8091150E882399F083E3FF
:1033D00094E00E94D80885EA93E00E94D8080E94F1
:1033E000430A8091FC0D81FF0FC08091A80D886079
:1033F0008093A80D8091B00D83FF03C082E00E94EE
:1034000057031092B00D47CFB701A6018D2F0E9430
:103410004C0CF0CF8091A80D83FF3DCFB701A601E2
:103420008D2F0E944C0C8091A80D877F8093A80D52
:1034300032CF1F93CF93DF93142F20E030E040EA88
:1034400051E40E9496380E9461360E94F636EB01E4
:103450002097C9F08091A50D811115C011110DC0E3
:103460000E94FB182FEF80E792E0215080409040AF
:10347000E1F700C000002197EBCF0E947116809108
:10348000A60D81FFEFCFDF91CF911F9108950E948C
:103490009D070E94FB188091A50D811108C00E9414
:1034A000E704892BB1F78091A40D883091F308953A
:1034B000CF93DF9321E031E0829FE001839FD00D25
:1034C0001124DD5F40E051E0BE0186E89EE00E94ED
:1034D0006705892B79F41092860E0E94471A40E006
:1034E00051E066E87EE0CE010E94170580E0DF91A2
:1034F000CF91089581E0FBCF0E94471A1092B20D40
:1035000008950F931F93CF93C82F8B010E94471AE2
:103510002DE0C29FC00111244CE050E0B8019E5F35
:10352000CF911F910F910C9417051F93CF93DF93A9
:10353000182FEB018DE0189FB00111247E5F4CE045
:1035400050E0CE010E946705892B71F48CE0FE01EA
:1035500011928A95E9F7BE01812F0E94811A80E0BD
:10356000DF91CF911F91089581E0FACFEF92FF9202
:103570000F931F93CF93DF93CDB7DEB72C970FB682
:10358000F894DEBF0FBECDBF182F80FF0BC085E5BE
:10359000EBECF2E0A7EBBDE005900D928A95E1F728
:1035A0000E94520511FF10C0CE0101967C018CE0F3
:1035B000F70111928A95E9F700E0B701802F0E9488
:1035C000811A0F5F0830C9F712FF14C060E080E075
:1035D00093E00E94F70460E081E093E00E94F7042A
:1035E00060E081E094E00E94F70460E082E094E013
:1035F0000E94F70413FF0AC060E08EEA93E00E9485
:10360000F70460E08FEA93E00E94F7042C960FB66F
:10361000F894DEBF0FBECDBFDF91CF911F910F9108
:10362000FF90EF9008958091A40D823041F00E94A8
:10363000471A8091A50D811102C01092B10D089515
:10364000CF92DF92EF92FF92CF939091A40D9230A0
:1036500079F06A017B01C82F0E94471AB701A601C1
:103660008C2FCF91FF90EF90DF90CF900C944C0C6B
:10367000CF91FF90EF90DF90CF9008952F923F92DF
:103680004F925F926F927F928F929F92AF92BF9272
:10369000CF92DF92EF92FF920F931F93CF93DF931E
:1036A000CDB7DEB7C954D1090FB6F894DEBF0FBE4F
:1036B000CDBF7C017EAB6DAB8091FC0D85FF22C040
:1036C0001091A40D103219F1C7010E9460038823E4
:1036D000C9F081E08093A70D183069F488E00E945A
:1036E00057030E94FB188091A50D81110BC080919A
:1036F000A40D8111F6CF0E94EF0E82E00E944703D5
:103700000E94FB188091A40D823009F4D6C10E945A
:10371000FB182091A50D2CAF2111CFC13091810D47
:103720003FAF80918005381303C00E949D07EFCF03
:103730004091820D4FAB242E312C88E3489F90019D
:103740001124F901EF57FA4FFAABE9AB11928A95C0
:10375000E9F7EDA9FEA9F485FAAF2F2FE9A9FAA997
:10376000238BEDA9FEA984809580A680B780E9A966
:10377000FAA984AA95AAA6AAB7AAEDA9FEA9808546
:103780009185A285B385E9A9FAA9848B958BA68B2F
:10379000B78B8CE0EBE8FDE021FD02C0E1E6FDE047
:1037A000DE01599601900D928A95E1F7EBAAFCAAE9
:1037B00027EB3DE028963FAF2EAF2897AE014B5D3B
:1037C0005F4F26965FAF4EAF2697CE01499624965F
:1037D0009FAF8EAF2497E9A9FAA92296FFAFEEAF6B
:1037E00022979E01235F3F4F39AF28AF3EAF2DAFE9
:1037F00010E000E028E3229DC001239D900D1124DC
:10380000AC0143575A4F2A965FAF4EAF2A97EBA9A8
:10381000FCA96191719181919191FCABEBAB2896E0
:10382000EEADFFAD28974190519061907190289630
:10383000FFAFEEAF2897A30192010E9496380E9435
:1038400063382696EEADFFAD269761937193819311
:1038500091932696FFAFEEAF26972496EEADFFAD7F
:103860002497C190D190E190F1902496FFAFEEAFF4
:1038700024976C197D098E099F099B01AC0197FF64
:1038800007C022273327A901261B370B480B590BEA
:103890002296EEADFFAD2297219331934193519340
:1038A0002296FFAFEEAF22972A96EEADFFAD2A9794
:1038B000C080D180E280F380C216D306E406F5060C
:1038C00010F469017A012A96EEADFFAD2A97C08205
:1038D000D182E282F3820E942737A30192010E94E3
:1038E0007D36EDADFEAD6193719381939193FEAF03
:1038F000EDAF20E030E0A9010E94783687FF0BC0D1
:1039000092E0013009F490E8E9A9FAA9E00FF11F6B
:103910008089892B808B0F5F1F4F0330110509F0C1
:1039200076CFCD28CE28CF2809F4B3C1CE010D968D
:103930000E941F0B4B015C0128E3229DC001239DC7
:10394000900D11249C012F573A4F7901F90184A25F
:1039500095A2A6A2B7A2BE01635F7F4F8FEC9DE048
:103960000E94FC03F70160A371A382A393A3BE018D
:10397000635F7F4F83EC9DE00E94FC03F70164A727
:1039800075A786A797A7138910FF05C060AB71AB19
:1039900082AB93AB0DC0EDA9FEA92081318142819C
:1039A000538113FDA4C0F70120AB31AB42AB53AB45
:1039B000FFAD2FA9F21711F011FF9FC088E3829D80
:1039C000F001839DF00D1124EF57FA4F108E118EE8
:1039D000128E138E10A611A612A613A688E3829D3E
:1039E0008001839D100D11240F571A4FF801838910
:1039F00081FD63C089A99AA90E9474046B017C01AE
:103A00008090790D90907A0DA0907B0DB0907C0DF8
:103A1000A50194010E94563818160CF035C1A50175
:103A20009401C501B4010E949638F801648F758F26
:103A3000868F978F88E3829D8001839D100D1124CE
:103A40000F571A4FF80180A491A4A2A4B3A4A50112
:103A50009401648D758D868D978D0E945638181649
:103A60002CF4F801848E958EA68EB78EC092790DB7
:103A7000D0927A0DE0927B0DF0927C0D8CE0FE01ED
:103A80003D96ADE6BDE001900D928A95E1F78CE0A0
:103A9000FE01B596A1E6BDE001900D928A95E1F791
:103AA000809180058093820D8F5F843209F08CAF06
:103AB000FCADF09380050E94CD05C75BDF4F0FB6CC
:103AC000F894DEBF0FBECDBFDF91CF911F910F9154
:103AD000FF90EF90DF90CF90BF90AF909F908F902E
:103AE0007F906F905F904F903F902F900895C50109
:103AF000B4010E949638F70149CF4DE65DE05CAB1A
:103B00004BAB8E010F5F1F4F88AD99AD0C969BAFED
:103B10008AAFC12CD12C76010DAB1FABEBA9FCA950
:103B200081909190A190B190FCABEBABE8ADF9AD79
:103B30004190519061907190F9AFE8AFA30192016B
:103B4000C501B4010E9496389B01AC01C701B601C2
:103B50000E9482356B017C01A5019401C301B20171
:103B60000E948235F80161937193819391938F0143
:103B70002AAD3BAD48AD59AD2417350779F62FEE88
:103B80003FEF4FE75FE3C701B6010E9456381816B2
:103B90004CF488E3829DF001839DF00D1124EF57D2
:103BA000FA4F18CF2FEE3FEF4FE75FEBC701B6019B
:103BB0000E94783687FF11C088E3829DF001839DC3
:103BC000F00D1124EF57FA4F89E996E7A6E9BEE711
:103BD00080A791A7A2A7B3A701CF8DA99FA90E94F3
:103BE0001F0B6DA97FA98FEC9DE00E94FC034B0188
:103BF0005C01A701960160E070E080E89FE30E940D
:103C0000823520E030E040E05FE30E9496380E9479
:103C100009396B017C012091EC0D3091ED0D409143
:103C2000EE0D5091EF0DC501B4010E949638A70129
:103C300096010E9496384B015C01A701960160E055
:103C400070E080E89FE30E9482359B01AC01C501D2
:103C5000B4010E947D366B017C0120E030E0A901B7
:103C60000E94783687FF03C0C12CD12C760188E3EF
:103C7000829DF001839DF00D1124EF57FA4FC0A6ED
:103C8000D1A6E2A6F3A6AACEA7019601C701B60166
:103C9000CACE8091FC0D81FF10CF2AAD24FF0DCF3D
:103CA000B501A40180E10E94201B07CF2F923F9213
:103CB0004F925F926F927F928F929F92AF92BF923C
:103CC000CF92DF92EF92FF920F931F93CF93DF93E8
:103CD000CDB7DEB7E7970FB6F894DEBF0FBECDBF06
:103CE000ECE4FEE08AE3DF011D928A95E9F78BE0C0
:103CF000ECE0FEE0ADE4BEE001900D928A95E1F7C4
:103D000080911F0E8093790E8091860E8432B1F0DF
:103D10001E8E1F8E18A219A21AA21BA2812C912CF2
:103D20005401DD24D39492E0C92E14E008E020E190
:103D3000F22E30E2E32E40E4342E7CC081E080930A
:103D40004D0E10924E0E83E08E8FB1E0BF8FE2CF0A
:103D5000EFEB6E2E670CE9E1E61510F40C94C52A22
:103D60008F5F8E8FBE01665E7F4FCE014E960E94A2
:103D70008802882311F40C94C82AF4E1F61508F49B
:103D800031C3E62D660CFF0B8827E653F14E8F4FAB
:103D90000C948D39DF1EA11FDA1F13204C206920DF
:103DA0008620F221F221F221F221F221F221F221E8
:103DB000F221F221BF20F221F2210A2196218AEB81
:103DC00094E00E94D8084A8C5B8C6C8C7D8C20E03F
:103DD00030E0A901C301B2010E94783681118CC084
:103DE0000898389888A199A1AAA1BBA1022C04C067
:103DF000B695A795979587950A94D2F780FF02C04C
:103E00000C94CB2A81E090E0A0E0B0E0022C04C04A
:103E1000880F991FAA1FBB1F0A94D2F728A139A1A6
:103E20004AA15BA1282B392B4A2B5B2B28A339A352
:103E30004AA35BA38E8DE82FF0E0EA57F14F708024
:103E4000711086CF81149104A104B10409F030C32C
:103E500018A648A145FF0FC08091690E90916A0E87
:103E6000A0916B0EB0916C0E81389649A849B105AE
:103E700014F00C94CE2A8F8D882309F41CC398A1CA
:103E800090FF2CC380914F0E8130B1F423E333E3D4
:103E90004BEC51E46091580E7091590E80915A0E7E
:103EA00090915B0E0E9496386093580E7093590E55
:103EB00080935A0E90935B0E28A139A14AA15BA171
:103EC00030FD10C08091170E9091180EA091190E20
:103ED000B0911A0E8093750E9093760EA093770E84
:103EE000B093780E20904C0E34E023121AC348A1F0
:103EF00046FD0EC38CE193C220E030E040E85FE372
:103F0000C301B2010E947836811103C0089A389A21
:103F100069CF20E030E040E050E4C301B2010E94EC
:103F20007836811102C0089A5CCF20E030E040E48E
:103F300050E4C301B2010E947836811153CF089832
:103F4000E6CF8EEA94E00E94D8084A8C5B8C6C8C99
:103F50007D8C20E030E0A901C301B2010E947836D7
:103F6000811102C0099818C020E030E040E85FE30A
:103F7000C301B2010E947836811103C0099A399AAF
:103F800031CF20E030E040E050E4C301B2010E94B4
:103F90007836811103C0099A399824CF20E030E0A7
:103FA00040E450E4C301B2010E94783681111ACF77
:103FB0000998E5CF8FE994E00E94D8084A8C5B8C81
:103FC0006C8C7D8C20E030E0A901C301B2010E941D
:103FD0007836811103C00A983A9804CF20E030E087
:103FE00040E85FE3C301B2010E947836811103C04B
:103FF0000A9A3A9AF7CE20E030E040E050E4C3015C
:10400000B2010E947836811102C00A9AE5CF20E001
:1040100030E040E450E4C301B2010E9478368111DF
:10402000E1CE0A98E6CF80E994E00E94D8084A8C55
:104030005B8C6C8C7D8C20E030E0A901C301B20167
:104040000E947836811103C00B983B98CBCE20E0BC
:1040500030E040E85FE3C301B2010E94783681118D
:1040600003C00B9A3B9ABECE20E030E040E050E423
:10407000C301B2010E947836811102C00B9AE5CFCC
:1040800020E030E040E450E4C301B2010E94783601
:104090008111A8CE0B98E6CF81E894E00E94D80861
:1040A00020E030E0A9016A8D7B8D8C8D9D8D0E9472
:1040B0007836811103C00C983C9894CE80E090E053
:1040C000A0E8BFE38A8F9B8FAC8FBD8F0C9A3C9A80
:1040D00089CE85E794E00E94D80820E030E0A9016D
:1040E0006A8D7B8D8C8D9D8D0E947836811103C0E9
:1040F0000D983D9877CE80E090E0A0E8BFE38A8FEE
:104100009B8FAC8FBD8F0D9A3D9A6CCE89E694E063
:104110000E94D8084A8C5B8C6C8C7D8C20E030E04F
:10412000A901C301B2010E947836811103C00E9823
:104130003E9858CE20E030E040E85FE3C301B20192
:104140000E947836811103C00E9A3E9A4BCE20E031
:1041500030E040E050E4C301B2010E9478368111A2
:1041600002C00E9AE5CF20E030E040E450E4C30105
:10417000B2010E947836811135CE0E98E6CF8CE5DB
:1041800094E00E94D8084A8C5B8C6C8C7D8C20E07B
:1041900030E0A901C301B2010E94783681110BC041
:1041A0000C983C980B983B980A983A980D983D9833
:1041B00008983898D7CE20E030E040E85FE3C301AC
:1041C000B2010E94783681110DCE81B1812781B96B
:1041D00087B1812787B988EC90E00E94750C81B186
:1041E000802781B987B1802787B988EC90E00E9449
:1041F000750C81B18F2581B987B18F2587B988EC7E
:1042000090E00E94750C81B18E2581B987B18E2511
:1042100087B9E8CD80E594E00E94D80881B18D256A
:1042200081B987B18D2587B988EC90E00E94750C23
:1042300081B18C2581B987B18C2587B988EC90E054
:104240000E94750C81B1812781B987B1812787B917
:1042500088EC90E00E94750C81B1802781B987B10C
:10426000802787B988EC90E00E94750C81B18F257A
:1042700081B987B18F2587B988EC90E00E94750CD1
:1042800081B18E2581B987B18E2587B988EC90E000
:104290000E94750C81B1832581B987B1832587B9C7
:1042A00088EC90E00E94750C81B1832581B987B1BB
:1042B000832587B988EC90E00E94750C81B18E252A
:1042C00081B987B18E2587B988EC90E00E94750C82
:1042D00081B18F2581B987B18F2587B988EC90E0AE
:1042E0000E94750C81B1802781B987B1802787B979
:1042F00088EC90E00E94750C81B1812781B987B16B
:10430000812787B988EC90E00E94750C81B18C25DB
:1043100081B987B18C2587B988EC90E00E94750C33
:1043200081B18D2581B987B18D2572CF81B18D2560
:1043300081B988EC90E00E94750C81B18C2581B91F
:1043400088EC90E00E94750C81B1812781B988ECDE
:1043500090E00E94750C81B1802781B988EC90E0D3
:104360000E94750C81B18F2581B988EC90E00E9484
:10437000750C81B18E2581B988EC90E00E94750C96
:1043800081B1832581B988EC90E00E94750C87B1DA
:10439000832587B988EC90E00E94750C87B18E2543
:1043A00087B988EC90E00E94750C87B18F2587B99A
:1043B00088EC90E00E94750C87B1802787B988EC63
:1043C00090E00E94750C87B1812787B988EC90E056
:1043D0000E94750C87B18C2587B988EC90E00E940B
:1043E000750CA1CF28E5721233C088E494E00E94D6
:1043F000D8088A8D9B8DAC8DBD8D80937A0E90935D
:104400007B0EA0937C0EB0937D0E689480F87AE0CA
:10441000272E88EA870D833008F4E4CC84E1E79600
:104420000FB6F894DEBF0FBECDBFDF91CF911F91C5
:104430000F91FF90EF90DF90CF90BF90AF909F9043
:104440008F907F906F905F904F903F902F90089546
:1044500039E5731215C081E494E00E94D8088A8D72
:104460009B8DAC8DBD8D80937E0E90937F0EA0931F
:10447000800EB093810E689481F86BE0262EC9CF30
:104480004AE57412C6CF89E394E00E94D8088A8D69
:104490009B8DAC8DBD8D8093820E9093830EA093E7
:1044A000840EB093850E689482F85CE0252EB1CF1F
:1044B00032E038A7CECC80914E0E813089F4A8A589
:1044C000A23009F0F9CC80914D0E803509F4F4CC7E
:1044D000882309F4F1CCB8A1B0FDEECC86E19FCFE2
:1044E00080910D0E8111E8CCE8A1E0FDCBCC80914C
:1044F0001B0E90911C0EA0911D0EB0911E0E80936C
:10450000580E9093590EA0935A0EB0935B0ED4CCD4
:1045100088A199A1AAA1BBA18F7B88A399A3AAA3D3
:10452000BBA380914F0E8130B1F50CE4E02E0EE07C
:10453000F02E10E000E0CC24C394D12CC601002E54
:1045400002C0880F991F0A94E2F7092E000CAA0BEB
:10455000BB0B88219921AA21BB21892B8A2B8B2B6C
:1045600091F023E333E34BEC51E4D7019E966D9138
:104570007D918D919C91D1970E949638F70166A705
:1045800077A780AB91AB0F5F1F4FF4E0EF0EF11CEC
:104590000330110599F68CE0E0E3FEE0DE011E96A3
:1045A00001900D928A95E1F72AE0221609F468C07D
:1045B0003CE5231609F426C181149104A104B10439
:1045C00009F442C03090500E8091480E9091490EEF
:1045D000A0914A0EB0914B0E8CA39DA3AEA3BFA396
:1045E0007CE0C72E7EE0D72EECE4EE2EEEE0FE2E31
:1045F00010E000E081E090E0002E02C0880F991FDB
:104600000A94E2F7092E000CAA0BBB0B8821992112
:10461000AA21BB21892B8A2B8B2B09F067C1F601BC
:10462000808D918DA28DB38DF70186A797A7A0AB42
:10463000B1AB0F5F1F4FF4E0CF0ED11C24E0E20EB0
:10464000F11C03301105B1F63EE1231609F49FC1B8
:1046500045E3241609F4D0C15CE16CE57EE086E018
:10466000251237C10E94951A882309F445C0811488
:104670009104A104B10409F08EC1212C18A6AFC089
:1046800081149104A104B10411F48AE1C8CE88A177
:1046900099A1AAA1BBA180759927AA27BB27892B1D
:1046A0008A2B8B2B09F426CC60916D0E70916E0EC7
:1046B00080916F0E9091700E0E944D390E94F636D7
:1046C0008DE1673008F0ABCE8091680E843131F017
:1046D000823009F0A3CE48A147FDA0CE22242A941F
:1046E000260E611102C02090530E6CE57EE0822DF3
:1046F0000E94951A811102C087E091CE3090680E19
:104700008091480E9091490EA0914A0EB0914B0EA7
:104710008CA39DA3AEA3BFA3BCE4EB2EBEE0FB2EF7
:104720001CE0C12E1EE0D12E10E000E081E090E000
:10473000002E02C0880F991F0A94E2F7092E000C80
:10474000AA0BBB0B88219921AA21BB21892B8A2B7B
:104750008B2B81F1D7019E964D905D906D907C9052
:10476000D197B4E13B1248C0F60120A931A942A972
:1047700053A9608D718D828D938D0E948235A30126
:1047800092010E948235D70150966D937D938D934F
:104790009C935397023071F42CA13DA14EA15FA1CF
:1047A0000E9482356093640E7093650E8093660E4E
:1047B0009093670E0F5F1F4FF4E0EF0EF11C24E0A3
:1047C000C20ED11C0330110509F0B0CF88A199A108
:1047D000AAA1BBA18F7A88A399A3AAA3BBA3109176
:1047E0004D0E103509F00FC181149104A104B104DC
:1047F00009F432C18FE113CEF701408A518A628AEF
:10480000738AD8CF81149104A104B10409F43DCF77
:104810004090480E5090490E60904A0E70904B0E9A
:10482000FCE0CF2EFEE0DF2E1E019EE0290E311CA3
:10483000ACE4EA2EAEE0FA2E10E000E081E090E079
:10484000002E02C0880F991F0A94E2F7092E000C6F
:10485000AA0BBB0B88219921AA21BB21892B8A2B6A
:104860008B2BC9F1D1012D913D914D915C91F601B8
:10487000608D718D828D938D0E948235D7019E96B9
:104880002D913D914D915C91D1970E948235F70118
:1048900066A777A780AB91AB023061F4A3019201C8
:1048A0000E9482356093820E7093830E8093840EF3
:1048B0009093850E0F5F1F4FF4E0CF0ED11C24E0C4
:1048C000220E311C34E0E30EF11C0330110509F017
:1048D000B5CF212C84CFF60180A991A9A2A9B3A9B3
:1048E000F70186A797A7A0ABB1ABE4CFF5E32F16EE
:1048F00009F49FCED7019E964D905D906D907C906F
:10490000D197311033C0F801EE0FFF1FEE0FFF1FDC
:104910002EE030E02C0F3D1FE20FF31FD601D096A2
:104920002D913D914D915C91D397608171818281F0
:1049300093810E948335A30192010E948335F70180
:1049400066A777A780AB91AB023009F072CE2CA19D
:104950003DA14EA15FA10E9483356093820E7093AA
:10496000830E8093840E9093850E63CEA3019201F3
:10497000D60158966D917D918D919C915B970E9487
:104980008335F70166A777A780AB91AB52CE6CE574
:104990007EE087E067CE6CE07EE0ECE4FEE030E0B5
:1049A00020E041E050E0CA01022E02C0880F991FAA
:1049B0000A94E2F7092E000CAA0BBB0B6C017D01D7
:1049C000C820D920EA20FB20CD28CE28CF2859F4B2
:1049D000DB015896CD90DD90ED90FC905B97C08AFE
:1049E000D18AE28AF38A2F5F3F4F6C5F7F4F349604
:1049F00023303105C1F66DCF80914D0E823008F421
:104A000068CF8EE10CCDB8A5B23031F5111107C0D9
:104A100081149104A104B104F9F418A61DC020E08A
:104A200030E0A9016091580E7091590E80915A0E94
:104A300090915B0E0E947836882309F44FCD1C3884
:104A400009F491C008F086C0123009F4A6C01330F2
:104A500009F4A6C01130E1F200914C0E82EC800FF7
:104A60008430A0F458A156FF45CA20E030E040E46D
:104A700050E460916D0E70916E0E80916F0E90916A
:104A8000700E0E94563818160CF491C5CE0101968E
:104A90007C018DE0D7011D928A95E9F7BF8DB0FFAB
:104AA000DBC1053319F080E10111B9CC8091170EFB
:104AB0009091180EA091190EB0911A0E8D839E83BD
:104AC000AF83B8878091150E9091140E892B409179
:104AD000580E5091590E60915A0E70915B0E498399
:104AE0005A836B837C8384608D878091690E90915B
:104AF0006A0EA0916B0EB0916C0E89879A87AB8776
:104B0000BC878091FC0D85FF06C08AE79EE00E946D
:104B1000600381114FC5B7018AE79EE00E943E1BEA
:104B20008091A40D81110BC00E94E704892B39F0FC
:104B300080E28093A40D0E94110F0E9472078CE006
:104B4000EAE7FEE0A4E2BEE001900D928A95E1F76B
:104B500080E065CC1E3839F018F01F3809F07CCFA2
:104B60003F8D30613F8F82E7810F823018F44F8D87
:104B700048604F8F81149104A104B10409F485CDDC
:104B80004CE050E06AE77EE084E29EE00E94AF39AC
:104B9000892B09F061CF81E242CCEF8DE460EF8F89
:104BA00081149104A104B10409F46FCD21E030E037
:104BB000C901822B932B092E000CAA0BBB0B882159
:104BC0009921AA21BB21892B8A2B8B2B09F4E9C4BB
:104BD000F8A183E2F7FF23CC28A139A14AA15BA168
:104BE0002F7728A339A34AA35BA34CE050E06AE7E0
:104BF0007EE084E29EE00E94AF39892B61F28091D1
:104C00007A0E90917B0EA0917C0EB0917D0E8CA3BC
:104C10009DA3AEA3BFA34090240E5090250E60909C
:104C2000260E7090270E9C01AD012CA73DA74EA724
:104C30005FA7730162016091710E7091720E809195
:104C4000730E9091740E20914F0E213071F423E376
:104C500033E34BEC51E40E9496386093710E7093ED
:104C6000720E8093730E9093740EA30192016CA147
:104C70007DA18EA19FA10E9482356CA37DA38EA3EE
:104C80009FA3A70196016CA57DA58EA59FA50E9457
:104C900082356CA77DA78EA79FA74090710E50907C
:104CA000720E6090730E7090740E2CA13DA14EA1F7
:104CB0005FA1CA01B9010E94963868AB79AB8AAB93
:104CC0009BAB2CA53DA54EA55FA5CA01B9010E94CD
:104CD00096386CAB7DAB8EAB9FAB20E030E040E80C
:104CE00050E4C301B2010E949638A30192010E94D0
:104CF000963828A939A94AA95BA90E9482352CA90E
:104D00003DA94EA95FA90E9482356B017C0120E07C
:104D100030E0A9010E94783687FD46C4C701B6017C
:104D20000E9409396B017C012CA93DA94EA95FA9FC
:104D300068A979A98AA99BA90E9483350E9409398B
:104D40009B01AC01C701B60190580E947D366B01F2
:104D50007C01133021F4F7FAF094F7F8F09420E096
:104D600030E0A901C301B2010E94783687FF0FC06D
:104D7000F7FAF094F7F8F094D301C201B058809399
:104D8000710E9093720EA093730EB093740EA701E0
:104D900096016CA57DA58EA59FA50E9496389B01C6
:104DA000AC016CA17DA18EA19FA10E94823520E063
:104DB00030E040E05FE30E9496382B013C01A70100
:104DC00096016CA17DA18EA19FA10E9496382CA571
:104DD0003DA54EA55FA50E94833520E030E040E070
:104DE0005FE30E9496382091510E222399F02130E2
:104DF00011F14092600E5092610E6092620E7092BC
:104E0000630E6093640E7093650E8093660E9093AC
:104E1000670E22CE40925C0E50925D0E60925E0E46
:104E200070925F0E6093600E7093610E8093620EBD
:104E30009093630E11CE4092640E5092650E609274
:104E4000660E7092670E60935C0E70935D0E809399
:104E50005E0E90935F0E00CE8091FC0D0091150EBA
:104E600081FF12C01150133018F0EF8DE064EF8F06
:104E700089288A288B2809F451C1F8A5F23009F055
:104E80004DC12F8D20682F8F8091690E90916A0EF1
:104E9000A0916B0EB0916C0E8093200E9093210E1A
:104EA000A093220EB093230E89879A87AB87BC8785
:104EB00080914E0E80930D0E882311F088E08D872F
:104EC0008091580E9091590EA0915A0EB0915B0EA0
:104ED00080931B0E90931C0EA0931D0EB0931E0E7C
:104EE00089839A83AB83BC838090750E9090760EF5
:104EF000A090770EB090780EA50194016091170EE6
:104F00007091180E8091190E90911A0E0E947836A9
:104F10001F8D1074811103C05F8D55FF1FC00023CA
:104F200069F08F8D87FD0AC040E050E0BA01111191
:104F300002C0B501A401802F0E94201B8091750E34
:104F40009091760EA091770EB091780E8093170E07
:104F50009093180EA093190EB0931A0E11110CC055
:104F60008091170E9091180EA091190EB0911A0E03
:104F70008D839E83AF83B8878091790E80931F0EB7
:104F80008091560E9091150E981751F04D815E81CB
:104F90006F8178850E94201B8091560E8093150E9C
:104FA0008D859091150E892B8D871091550E8091CE
:104FB000140E811769F08091A40D823029F00E94AF
:104FC000471A812F0E94720A8091550E8093140E09
:104FD0008D859091140E892B8D8780914C0E843095
:104FE00099F48091A40D823079F080906D0E9090AC
:104FF0006E0EA0906F0EB090700E0E94471A40E0A7
:10500000C501B4010E94191A8091510E8093100EAF
:1050100080914F0E80930E0E8091530E9091120E40
:10502000981769F08093120E8CE0FE013E96A0E383
:10503000BEE001900D928A95E1F70E947C1A809162
:10504000500E80930F0E80914C0E863209F4B9C039
:1050500008F07BC08C3109F49AC08E3109F497C0F6
:105060008A3009F47FC080914D0E80930C0E8035FC
:10507000B1F0B8A5B23099F4813009F0B6C0BE01E4
:105080006F5F7F4F8AE79EE00E943E1B8CE0EAE75D
:10509000FEE0A4E2BEE001900D928A95E1F78091D6
:1050A000540E8093130E882391F00E94471A80912A
:1050B000130E9091A40D833009F013C2923029F0A1
:1050C00088E00E9457030E94FB181092130E8091F3
:1050D0004C0E8E53843008F03BCD0E94A00A182F4E
:1050E00080914C0E8F3309F43DC208F030C28E33EC
:1050F00009F02ECD60916D0E70916E0E80916F0E45
:105100009091700E0E94F63681E090E001C0880F09
:105110006A95EAF7812B0E94131B1ACD003109F022
:10512000B3CE9F8D907480910C0E8150833038F4F3
:10513000992309F4A9CE3F8D30623F8FA5CE9111FE
:10514000A3CE4F8D40624F8F9FCE8C3509F43FC068
:10515000863609F442C0883209F085CF64E27EE0E9
:1051600087E032C06CE57EE0822D0E94811A80913A
:10517000120E281278CF8CE0ECE5FEE0A0E3BEE052
:1051800001900D928A95E1F70E947C1A6CCF8D8573
:1051900081608D8798A5992329F0B7018AE79EE061
:1051A0000E943E1BB7018CE59EE00E943E1B8CE0F6
:1051B000ECE5FEE0A4E2BEE001900D928A95E1F7F5
:1051C00052CF64E27EE086E00E94811A4CCF8CE0F0
:1051D000EAE7FEE0ACE3BEE0D3CFECE3FEE08CE038
:1051E000DF011D928A95E9F7CFCF811105C08D852A
:1051F00081608D87B70146CF8250823008F013C19D
:10520000C090710ED090720EE090730EF090740EFC
:10521000F0E0E0E060915C0E70915D0E80915E0EBA
:1052200090915F0E10E000E04B015C019B01AC012E
:10523000505828A339A34AA35BA3AC019B01505843
:1052400028A739A74AA75BA7AF014658514F3A0193
:10525000EC5DF14F20813181428153810E94833581
:105260009B01AC01D3016D917D918D919C910E9428
:1052700082356CA37DA38EA39FA3F801EC5DF14F53
:105280002081318142815381C501B4010E9483355F
:105290009B01AC01D3016D917D918D919C910E94F8
:1052A00082354B015C012CA13DA14EA15FA168A1FB
:1052B00079A18AA19BA10E9496382B013C01A501EE
:1052C000940168A579A58AA59BA50E9496389B01A3
:1052D000AC01C301B2010E9483352B013C01A50141
:1052E000940168A179A18AA19BA10E9496384B01E3
:1052F0005C012CA13DA14EA15FA168A579A58AA55D
:105300009BA50E9496389B01AC01C501B4010E9487
:105310008235A30192010E9402364B015C01BF8DD0
:10532000B2FF6FC02DEB37E346E055EB0E945638D5
:1053300087FD0AC02BED3FE049EC50E4C501B40104
:105340000E9482354B015C014090F00D5090F10DB0
:105350006090F20D7090F30DA7019601C701B601A0
:105360000E948335A30192010E948235A30192011C
:105370000E9496380E9409392B013C0120E030E060
:1053800040E05FE3C501B4010E949638A701960191
:105390000E9496389F77A30192010E947D360E9459
:1053A00062370E94F6367B016115710509F467CEFC
:1053B0001D8513FF12C090E080E00E9425379B01FD
:1053C000AC0169817A818B819C810E9496386983C6
:1053D0007A838B839C83177F1D8701E010E0E016A2
:1053E000F10609F44CCEBE016F5F7F4F84E29EE070
:1053F0000E943E1B8091A50D811148CE0F5F1F4F6B
:10540000EECF2DEB37E346E055E30E9478361816D1
:105410000CF49ACF2BED3FE049EC50E4C501B40108
:105420000E9483358FCF8D8584608D878091A40DF8
:10543000823009F42BCE0E94471A8091A50D81116C
:105440002ECE1F8D10711092A90D10928A0D809191
:105450000601B7018AE79EE00E943E1B81E080932F
:10546000A30D82E00E9457030E94FB188091A50DB6
:10547000811115CE8091A40D8111F6CF8091A30DDD
:10548000813059F5112329F18CE0EBE8FDE0A7E923
:10549000BDE001900D928A95E1F71092A30D109254
:1054A0008A0D0E94FB181092A80D0E94A10E0E9466
:1054B0000E0B0E9452040E94480A8091A90D882375
:1054C00009F4E4CD6BE87DE084E29EE00E94AF0346
:1054D000E6CD85E00E944703E0CF81E08093A90DEF
:1054E000DCCF81E080930C0E1092100E10920F0E04
:1054F00010920D0E1092120E1092150E1092140EA4
:1055000084E68093AD0D8093AE0D8093AF0D923005
:1055100099F060E37EE080E00E94951A882309F408
:10552000EBC80E947C1A40E050E0BA0180E00E9483
:105530004C0C80E00E94720A83E394E00E94D80839
:105540008AEC93E00E94D8080E94430ABECD8234C0
:1055500008F0FECA8091A50D8111FACA1092B10D12
:105560000C940F2260916D0E70916E0E80916F0EF3
:105570009091700E0E94F63681E090E001C0880F95
:105580006A95EAF780958123C6CD81E00C940F22BD
:1055900082E00C940F2289E10C940F228BE10C9491
:1055A0000F2280E20C940F2282E20C940F2286E2FA
:1055B0000C940F228FE00C940F221F920F920FB6C3
:1055C0000F9211248F938091890D8F5F8093890DA5
:1055D0008F910F900FBE0F901F9018951F920F92F2
:1055E0000FB60F9211240BB60F922F933F934F9348
:1055F0005F936F937F938F939F93AF93BF93EF933B
:10560000FF930E94EB03882321F081FF15C00E94C5
:10561000EF0EFF91EF91BF91AF919F918F917F918D
:105620006F915F914F913F912F910F900BBE0F9013
:105630000FBE0F901F90189583FF06C08091850DB7
:1056400082608093850DE5CF82FF04C08091850D37
:105650008860F7CF80FFDDCF8091850D8062F1CF2C
:105660001F920F920FB60F9211240BB60F928F93C9
:105670009F93EF93FF9381B38E7FE5E1F4E09081F8
:10568000892B81BB81B38F7B9181892B81BB81B3B6
:10569000877F9281892B81BB15BCFF91EF919F91F0
:1056A0008F910F900BBE0F900FBE0F901F9018950B
:1056B0001F920F920FB60F9211240BB60F920F93F9
:1056C0001F932F933F934F935F936F937F938F938A
:1056D0009F93AF93BF93EF93FF9380911B0481112E
:1056E00036C281B38D7F90912D04892B81BB81B30C
:1056F0008F7790912E04892B81BB81B38D7F909100
:105700002F04892B81BB81B38E7F90912A04892B32
:1057100081BB81B38F7B90912B04892B81BB81B39B
:10572000877F90912C04892B81BB8091290486BDB1
:1057300082E085BD81E080931B04789480914104D0
:1057400090914204892B09F0ACC080914304909160
:105750009504981709F4E6C18091430498E0899F65
:10576000D0011124FD01EB5BFB4FF0934204E09369
:105770004104228133813093890020938800208165
:10578000318130933D0420933C04E48120913E0418
:105790002E1761F1E0933E0484E1E89FF0011124AB
:1057A000E856FB4FF0934004E0933F044485558551
:1057B0006685778576956795579547954093240438
:1057C000509325046093260470932704409320048B
:1057D00050932104609322047093230440931C048B
:1057E00050931D0460931E0470931F04E0913F04C6
:1057F000F0914004209118043089232720932D0430
:10580000218930911904232720932E042289309175
:105810001A04232720932F04AB5BBB4F15969C9152
:1058200015974081518162817381092E04C076955C
:105830006795579547950A94D2F740933004509353
:10584000310460933204709333044481558166813E
:105850007781092E04C076956795579547950A94E8
:10586000D2F7409334045093350460933604709318
:105870003704408551856285738504C076956795A8
:10588000579547959A95D2F7409338045093390429
:1058900060933A0470933B0416968D919C910E94FC
:1058A000C00A8091A30D8130B1F4809106018091EE
:1058B0008A0D882381F01092A30D8CE0EBE8FDE0C7
:1058C000A7E9BDE001900D928A95E1F78091850DE1
:1058D00080648093850D10922A0410922B041092FC
:1058E0002C0480911C0490911D04A0911E04B09181
:1058F0001F04409130045091310460913204709142
:105900003304840F951FA61FB71F80931C04909328
:105910001D04A0931E04B0931F04E0913F04F09176
:1059200040044485558566857785481759076A0779
:105930007B0728F521E020932A04841B950BA60BF6
:10594000B70B80931C0490931D04A0931E04B09386
:105950001F0480918B0D90918C0DA0918D0DB091B5
:105960008E0D208921FF08C10197A109B1098093FB
:105970008B0D90938C0DA0938D0DB0938E0D809117
:10598000200490912104A0912204B091230400915D
:105990003404109135042091360430913704800F7F
:1059A000911FA21FB31F8093200490932104A09302
:1059B0002204B0932304481759076A077B0728F588
:1059C00020E420932B04841B950BA60BB70B80932C
:1059D000200490932104A0932204B0932304809187
:1059E0008F0D9091900DA091910DB091920D218904
:1059F00027FFC6C00197A109B10980938F0D90932D
:105A0000900DA093910DB093920D809124049091EC
:105A10002504A0912604B091270400913804109128
:105A2000390420913A0430913B04800F911FA21F4A
:105A3000B31F8093240490932504A0932604B0936D
:105A40002704481759076A077B0728F528E02093A1
:105A50002C04841B950BA60BB70B80932404909306
:105A60002504A0932604B09327048091930D909170
:105A7000940DA091950DB091960D228921FF84C0BF
:105A80000197A109B1098093930D9093940DA09370
:105A9000950DB093960D3091A40D90E080E03430D8
:105AA00069F4DC01A45EBB4F1E962C911E97FC018D
:105AB000EC55F24F468124231E962C930196833099
:105AC000910569F780913C0490913D040197909372
:105AD0003D0480933C04892B69F410924204109297
