:100000000C947A020C949B020C949B020C949B021D
:100010000C949B020C949B020C949B020C949B02EC
:100020000C949B020C949B020C949B020C948432C3
:100030000C949B020C949B020C949B020C949B02CC
:100040000C949B020C94EE320C949B020C949B0239
:100050000C949B020C949B020C949B020C94C63251
:100060000C949B020C945E350C940E360C949B02FF
:100070000C949B020C949B020C949B020C949B028C
:100080000C949B020C949B020C949B020C94733274
:100090000C949B020C949B020C949B020C949B026C
:1000A0000C949B020C949B020C949B020C949B025C
:1000B0000C949B020C949B020C949B020C949B024C
:1000C0000C949B020C949B020C949B020C949B023C
:1000D0000C949B020C949B020C949B020C949B022C
:1000E0000C949B02084AD73B3BCE016E84BCBFFDFB
:1000F000C12F3D6C74319ABD56833DDA3D00C77FF8
:1001000011BED9E4BB4C3E916BAAAABE0000008090
:100110003F05A84CCDB2D44EB93836A9020C50B91F
:10012000918688083CA6AAAA2ABE000000803F004B
:100130000C94E63B0C94E4350C94DC350C94F835C7
:100140000C94543C0C9405250C94CA350C94C83B73
:100150000C94BD3B0C94F5240C941D3C0C94F23B88
:100160000C943A3C0C94C03B0C94B1350C94F03593
:100170000C94DA350C9461240C94F2350C94DA3B2F
:100180000C94403C0C94E5240C94EE230C94073C16
:100190000C9411260C94F4350C94FB3B0C94EC3528
:1001A0000C94E8350C9443240C9424250C94C83505
:1001B0000C94B73B0C94F6350C947A260C943524A9
:1001C0000C94AC240C94EE350C9475240C94D23B16
:1001D0000C946B240C9493240C9477250C94E235A6
:1001E0000C94D6350C94E0350C94D5240C943D3801
:1001F0000C94DE350C94113C0C94313C0C94493C2D
:100200000C94C53B0C94283C0C94E6350C94253C8E
:100210000C94E93B0C945D3C0D0A3D3E2044726118
:10022000672D4C6F6767657220312E322D4F5A2033
:100230005B27242720666F722068656C705D0D0A4D
:1002400000244E005B4F50543A003A005B41585333
:100250003A005B5645523A312E322D4F5A2E3131EB
:100260002D31312D323032353A005B544C4F3A004B
:100270005B4739323A003330003238005B47005B6D
:100280004C616D70753A005B53656E736F723A0026
:10029000204700204D00205300204600205400330A
:1002A000382E005B47433A47005B484C503A2424C1
:1002B00020242320244420244720244920244E2085
:1002C00024783D76616C20244E783D6C696E652003
:1002D000244A3D6C696E652024534C5020244320F1
:1002E0002458202448207E2021203F206374726CF3
:1002F0002D785D0D0A00414C41524D3A000000C876
:10030000430000C8430000C84300803B4400803BDA
:100310004400803B4400C82F4800C82F4800C82F25
:10032000480000C8C3000048C3000048C30A0000DA
:10033000FE010AD7A33C6F12033B00803B460080BE
:10034000094400000000C84100007A43FA000000A0
:10035000A0400D0A005B5052423A007C413A007CBA
:100360004F763A007C506E3A007C53746172743A56
:10037000007C4C616D70753A007C53656E736F72D2
:100380003A007C42663A00536C65657000446F6FBA
:10039000723A00436865636B00416C61726D00489E
:1003A0006F6D65004A6F6700486F6C643A0043796F
:1003B000636C650049646C65006572726F723A0027
:1003C0006F6B0D0A00536C656570696E670052654E
:1003D00073746F72696E67207370696E646C650008
:1003E000526573746F72696E672064656661756CBF
:1003F00074730050676D20456E6400436865636BDD
:10040000204C696D69747300436865636B20446FA9
:100410006F720044697361626C656400456E61626D
:100420006C65640043617574696F6E3A20556E6C3B
:100430006F636B656400272448277C272458272096
:10044000746F20756E6C6F636B00526573657420FA
:10045000746F20636F6E74696E7565005B4D5347F2
:100460003A005A5A5A5A5A5A5A00595959595959C6
:100470000058585858585858005B475D204D455211
:1004800041480D0A005B515D20474F4F4F4F4F0DC4
:100490000A005B475D204D455241480D0A005B460E
:1004A0005D2048494A41550D0A005B455D204B558A
:1004B0004E494E4720330D0A005B445D204B554E9C
:1004C000494E4720320D0A005B435D204B554E4993
:1004D0004E4720310D0A005B425D20535441474591
:1004E0000D0A005B415D205052452D535441474554
:1004F0000D0A000011241FBECFEFD1E2DEBFCDBF39
:1005000000E00CBF12E0A0E0B2E0E2E3F3E800E0BC
:100510000BBF02C007900D92AC30B107D9F72FE0A6
:10052000ACE0B2E001C01D92A638B207E1F70E942C
:1005300039360C9497410C9400008F929F92AF92A1
:10054000BF92CF92DF92EF92FF920F931F93CF93C0
:10055000DF937C016B01DC01EC91F0E0EA57F14F95
:100560008081EF018D3229F52296818101E0912C65
:10057000F0E010E020E030E0A9015E01E0EDE80FDE
:10058000EA3018F5FF5FF930E0F491101150A5E062
:10059000B0E00E9470419B01AC01220F331F441F49
:1005A000551F2E0F311D411D511D2196D5018C91D6
:1005B000E4CF8B3219F0219600E0D9CF22968181C9
:1005C000FBCF9110F2CF1F5FF0CFEE3F29F49110D7
:1005D00003C099249394E9CFFF23F9F0CA01B9012C
:1005E0000E946D3E4B015C0120E030E0A9010E94B9
:1005F000BB3D81112BC0002309F445C0B7FAB0946C
:10060000B7F8B094F60180829182A282B382C65874
:10061000DE40C150F701C083F1E08F2FDF91CF9111
:100620001F910F91FF90EF90DF90CF90BF90AF9010
:100630009F908F9008952AE037ED43E25CE3C50177
:10064000B4010E941D404B015C011E5F1F3F9CF3E3
:100650001F3F59F42DEC3CEC4CEC5DE3C501B401BB
:100660000E941D404B015C01C6CF112321F220E006
:1006700030E040E251E4C501B4010E941D404B014D
:100680005C011150F2CFD6018D929D92AD92BC9239
:100690001397BDCF2FB7F8949091880D892B809335
:1006A000880D2FBF08952FB7F8949091870D892B4F
:1006B0008093870D2FBF08959FB7F8948093860D80
:1006C0009FBF08959FB7F8942091850D8095822350
:1006D0008093850D9FBF08952FB7F8949091850D55
:1006E000892B8093850D2FBF08954F925F926F9253
:1006F0007F92AF92BF92CF92DF92EF92FF920F93D1
:100700001F93CF93DF930BED1DE0EC015C018CE0B8
:10071000A80EB11CF801C190D190E190F1908F0129
:1007200020E030E0A901C701B6010E94BB3D88234B
:10073000A9F0488059806A807B8020E030E0A901E0
:10074000C301B2010E94DD3F1816E4F0A30192013B
:10075000C701B6010E94DD3F1816A4F02496CA1501
:10076000DB05C1F680E0DF91CF911F910F91FF90E3
:10077000EF90DF90CF90BF90AF907F906F905F90A1
:100780004F90089581E0EFCF8F929F92AF92BF92EA
:10079000CF92DF92EF92FF920F931F93CF93DF934D
:1007A000EB0127EBE22E2DE0F22E8C016B018CE0A9
:1007B000C80ED11C6991799189919991F701819025
:1007C0009190A190B1907F010E946F3EA50194018C
:1007D0000E94C53DF80161937193819391938F01BC
:1007E000CC15DD0539F7DF91CF911F910F91FF9067
:1007F000EF90DF90CF90BF90AF909F908F90089533
:1008000090910601892F8E7159F094FB882780F909
:1008100021E0822791FF826092FF846093FF8860CD
:100820000895AF92BF92CF92DF92EF92FF920F9313
:100830001F93CF93DF93A6E0B2E083E0A82E82E07F
:10084000B82EC6E0D2E000E012E030E020E090E018
:1008500080E041E050E070E4F22ECD90DD90F601B2
:100860006081F501E1905F016A0101C0CC0CEA945E
:10087000EAF76C2151F467B1672767B96A01022E64
:1008800001C0CC0C0A94EAF78C29C990D990F601E2
:100890006081F801E1908F016A0101C0CC0CEA94FB
:1008A000EAF76C2139F4FA0102C0EE0FFF1FFA9447
:1008B000E2F79E2B2F5F3F4F2330310569F62091E1
:1008C000FC0D26FF0EC08923886F8095DF91CF91A4
:1008D0001F910F91FF90EF90DF90CF90BF90AF905E
:1008E0000895892BF3CF6D98E4E0F1E080818D7F4E
:1008F000808353986C9880818E7F80835298759AFC
:10090000E5E0F1E08081826080835B9A749A808167
:10091000816080835A9A08956F927F928F929F92FE
:10092000AF92BF92CF92DF92EF92FF920F931F93FD
:10093000CF93DF93EB018C015B018CE0A80EB11C1F
:1009400089E9682E96E7792E26E9822E3EE7932ED6
:10095000C990D990E990F99020E030E0A901C70151
:10096000B6010E94BB3D8823B9F0A7019601F801AA
:1009700060817181828193810E94C53D6B017C0100
:10098000E894F7F89301A401C701B6010E94DD3F86
:10099000181614F0360147010C5F1F4FCA15DB050E
:1009A000B9F6B301C401DF91CF911F910F91FF9070
:1009B000EF90DF90CF90BF90AF909F908F907F90FF
:1009C0006F900895E1E6FDE0ABE8BDE04D915D91EB
:1009D0006D917C9113974083518362837383149646
:1009E0004D915D916D917C911797448355836683FA
:1009F000778318968D919D910D90BC91A02D808745
:100A00009187A287B3870895BF92CF92DF92EF922A
:100A1000FF920F931F93CF93DF937C01FC0100A9FA
:100A200011A9D2A9C3A9838980FF33C06091AE0DFB
:100A300070E090E080E00E946F3E2AE037ED43E2F4
:100A40005CE30E941D409B01AC01B8018D2F9C2FDF
:100A50000E941D408B01D82FC92F20E030E040E8D4
:100A60005FE3B8018D2F9C2F0E94DD3F181624F004
:100A700000E010E0D0E8CFE3B8018D2F9C2FDF918C
:100A8000CF911F910F91FF90EF90DF90CF90BF908B
:100A9000089582FD17C06091AD0D70E090E080E098
:100AA0000E946F3E2AE037ED43E25CE30E941D4066
:100AB0009B01AC01B8018D2F9C2F0E941D408B0122
:100AC000D82FC92FF701B4A4C5A4D6A4F7A49801C0
:100AD0004D2F5C2F6B2D7C2D8D2D9F2D0E94BB3DAE
:100AE00087FFBBCF0B2D1C2DDD2DCF2DB6CF8091D9
:100AF000810D9091820D981739F028E3829FC001F3
:100B000011248F579A4F089590E080E00895F8944B
:100B1000F999FECF92BD81BD81E08FBB20B5862FB4
:100B20008227082E000C990B50E086239523892BF1
:100B300049F084E16F3F11F060BD84E08FBBF99A0A
:100B4000789408952617E1F360BD84E2F7CF9F9271
:100B5000AF92BF92CF92DF92EF92FF920F931F93CB
:100B6000CF93DF935C018A017B01E40EF51EEB015C
:100B7000912C6C01C61AD70ACE018C0D9D1D21E067
:100B8000911007C0292D990C330B232F221F2227E8
:100B9000221F6991962E920E0E948705CE15DF05C1
:100BA00059F7692DC501800F911FDF91CF911F91DA
:100BB0000F91FF90EF90DF90CF90BF90AF909F90FC
:100BC0000C9487056AE090E080E00E94870545E587
:100BD00050E067EB7DE081E090E00C94A705F99987
:100BE000FECF92BD81BD81E08FBB80B508959F92FD
:100BF000AF92BF92CF92DF92EF92FF920F931F932B
:100C0000CF93DF935B018A017C01E40EF51EEC01BA
:100C1000912C6B01C81AD90AC6018C0F9D1F0E9426
:100C2000EF0521E0911007C0292D990C330B232FDC
:100C3000221F2227221F982E920E8993CE15DF05A0
:100C400059F7C501800F911F0E94EF0521E030E0A8
:100C5000891511F030E020E0C901DF91CF911F919B
:100C60000F91FF90EF90DF90CF90BF90AF909F904B
:100C70000895CF93DF93C0917D05D0917E05209795
:100C8000C9F080914D05816080934D0560916305A9
:100C90007091640580916505909166059B01AC019A
:100CA0000E941D40688F798F8A8F9B8F10927E05DE
:100CB00010927D05DF91CF9108952F923F924F9230
:100CC0005F926F927F928F929F92AF92BF92CF92DC
:100CD000DF92EF92FF920F931F93CF93DF9300D099
:100CE0001F92CDB7DEB70091820D002309F486C0B4
:100CF000098339813150398310917F05131709F425
:100D000066C0C32ED12CE8E33E9FC00111249C0194
:100D10002F573A4F7901F901748C858C968CA78CEA
:100D200060A171A182A193A19B01AC010E94C63C6C
:100D3000F70124A135A146A157A10E941D40B62E5E
:100D4000E72EF82E9B83262F372F482F592F672DFC
:100D5000782D892D9A2D0E94BB3D87FF03C0B72CAB
:100D60007401AB8288E38C9DF0018D9DF00D112400
:100D7000EF57FA4F8B2D9E2DAF2DBB81808F918F1A
:100D8000A28FB38FF9818F2FF11101C084E2FF246C
:100D9000FA94F80E3090810D1F1133C0131102C068
:100DA0000E943906E8E31E9FC00111248F579A4F15
:100DB0009A83898333243394310EF4E23F1201C0C5
:100DC000312C88E3282E031185C010937F050F90E6
:100DD0000F900F900F90DF91CF911F910F91FF9087
:100DE000EF90DF90CF90BF90AF909F908F907F90CB
:100DF0006F905F904F903F902F90089524E2298349
:100E000078CF298188E3289F900111242F573A4FEA
:100E10003C832B8328E3E22E8F2C912CFE9CC00177
:100E20001124FC01EF57FA4FFA83E983F11002C055
:100E300094E2F92EFA94F31002C00E943906E89C5D
:100E4000C001E99C900D11249C012F573A4F690174
:100E5000F901448C558C668C778CA3019201608DCE
:100E6000718D828D938D0E94BB3D882339F1F601EF
:100E700060A171A182A193A19B01AC010E94C63C1B
:100E8000F60124A135A146A157A10E941D40EB8186
:100E9000FC81208D318D428D538D0E94C63C4B01CB
:100EA0005C01AC019B01C301B2010E94DD3FF60170
:100EB00018165CF4808E918EA28EB38E29813A81B1
:100EC0003C832B831F11A8CF6DCF408E518E628E35
:100ED000738EF4CFC32CD12C329CC00111249C0101
:100EE0002F573A4F7901E981FA81408C518C628CFD
:100EF000738CF901808C918CA28CB38CA501940128
:100F0000C301B2010E94BB3D87FF26C0E981FA817F
:100F100060A171A182A193A19B01AC010E94C63C7A
:100F2000E981FA8124A135A146A157A10E941D4063
:100F3000A30192010E94C63C2B013C01AC019B0124
:100F4000C501B4010E94DD3F181634F4F701408E4C
:100F5000518E628E738E132D2C9CF0012D9CF00D02
:100F60001124EF57FA4F248D358D468D578D608DA6
:100F7000718D828D938D0E94BB3D811101C0132D17
:100F80003394F4E23F1201C0312CFA82E9821BCF84
:100F9000CF93DF932091E80D30E04091E90D50E0D0
:100FA000A8E1B4E0E5E1F4E090E080E0682FE90139
:100FB000082E02C0D595C7950A94E2F7C0FF1EC05F
:100FC00071E0882321F078E0813009F470E47083C7
:100FD000EA0102C0D595C7956A95E2F7C0FF10C037
:100FE00062E0813009F460E86C93019611963196C5
:100FF00083309105D9F6DF91CF9108951082E8CF23
:101000001C92F3CF8091FC0D82FF21C05F9A8A9AD7
:10101000809108018160809308018091150480937C
:101020002A048091160480932B04809117048093E6
:101030002C048091E70D8250990B880F8195809345
:10104000290480916F00826080936F0008955F98FB
:101050008A98809108018E7FDECF0E947705892BC8
:1010600019F082E00C946C030895E091130291E072
:101070009E0F20911403291761F0F0E0EC5EFD4F04
:101080008083909313028091C10080628093C1009D
:1010900004C02091850D24FFECCF0895CF93DF93FA
:1010A000C6E8DEE08991811103C0DF91CF910895F8
:1010B0000E943508F7CFCF93C82F81E3C0FF80E3AC
:1010C0000E94350881E3C1FF80E30E94350881E377
:1010D000C2FF80E30E94350881E3C3FF80E3CF9124
:1010E0000C9435088F929F92AF92BF92CF92DF926D
:1010F000EF92FF920F931F93CF93DF93CDB7DEB79D
:101100002D970FB6F894DEBF0FBECDBF6B017C01EB
:10111000042F20E030E0A9010E94BB3D87FF07C0FB
:101120008DE20E943508F7FAF094F7F8F094102F4A
:10113000123008F054C000FF0AC020E030E040E266
:1011400051E4C701B6010E941D406B017C0120E003
:1011500030E040E05FE3C701B6010E94C63C0E9458
:10116000373E10E03AE0832E912CA12CB12CE12FD8
:10117000F0E06115710581059105E9F581E090E0E8
:101180008C0F9D1FE80FF91F80E3101708F445C06E
:10119000101309C0E1E0F0E0EC0FFD1FE10FF11DBD
:1011A00080E380831F5FEE24E394F12CEC0EFD1EA0
:1011B000E10EF11C111134C02D960FB6F894DEBF6C
:1011C0000FBECDBFDF91CF911F910F91FF90EF9098
:1011D000DF90CF90BF90AF909F908F90089520E0C8
:1011E00030E048EC52E4C701B6010E941D406B019B
:1011F0007C0112509DCFEE24E394F12CEC0EFD1EE9
:10120000EE0EFF1EA50194010E944641605DF701AC
:101210006083B901CA011F5FAACF1F5F8193B5CF59
:10122000101303C08EE20E943508F70182917F01FE
:101230000E9435081150BECF2091FC0D43E020FFE5
:1012400007C02BE832E441E25DE30E941D4044E028
:101250000C9472080F931F93CF938C01C0E0F80198
:1012600061917191819191918F010E941C09C2300D
:1012700019F08CE20E943508CF5FC33081F7CF911F
:101280001F910F910895CF93DF93843658F06AE051
:101290000E942641C0E3C90F6AE00E942641D0E3C4
:1012A000D90F04C0C0E0D0E08A30B0F7805D0E9462
:1012B0003508DD2319F08D2F0E943508CC2329F045
:1012C0008C2FDF91CF910C943508DF91CF91089549
:1012D000CF93DF93EC01FE0184912196811103C02D
:1012E000DF91CF9108950E943508F5CF82E593E014
:1012F0000C946809CF93C82F89EB93E00E9468098A
:101300008C2F0E944309CF910C947609811104C05F
:1013100080EC93E00C9468090C947A09CF92DF92E8
:10132000EF92FF92CF93DF93D82F6A017B01C22FF8
:1013300084E20E9435088D2F0E9443098DE30E94AC
:1013400035084C2FC701B6010E947208DF91CF917A
:10135000FF90EF90DF90CF900C947609CF93DF93BE
:10136000D82FC62F84E20E9435088D2F0E94430992
:101370008DE30E9435088C2F0E944309DF91CF91A5
:101380000C947609EF92FF920F931F93CF93DF9304
:1013900081E08093800D6091E70D70E080E00E9415
:1013A000AE096091EA0D70E081E00E94AE096091A3
:1013B000E80D70E082E00E94AE096091E90D70E0F6
:1013C00083E00E94AE096091FC0D62FB662760F924
:1013D00070E084E00E94AE096091FC0D66FB662718
:1013E00060F970E085E00E94AE098091FC0D082E46
:1013F000000C990B692F661F6627661F70E086E058
:101400000E94AE096091EB0D70E08AE00E94AE0987
:101410004091EC0D5091ED0D6091EE0D7091EF0D3E
:1014200023E08BE00E948E094091F00D5091F10D68
:101430006091F20D7091F30D23E08CE00E948E0913
:101440006091FC0D617070E08DE00E94AE096091CA
:10145000FC0D65FB662760F970E084E10E94AE092F
:101460006091FC0D63FB662760F970E085E10E94E6
:10147000AE096091FC0D6295617070E086E10E949A
:10148000AE096091FD0D70E087E10E94AE094091C8
:10149000FE0D5091FF0D6091000E7091010E23E042
:1014A00088E10E948E094091020E5091030E6091D6
:1014B000040E7091050E23E089E10E948E0960916F
:1014C000060E7091070E8AE10E94AE094091080E47
:1014D0005091090E60910A0E70910B0E23E08BE182
:1014E0000E948E094091F40D5091F50D6091F60D1A
:1014F0007091F70D20E08EE10E948E094091F80D69
:101500005091F90D6091FA0D7091FB0D20E08FE183
:101510000E948E096091FC0D6695617070E080E21A
:101520000E94AE0984E6F82E10E0C7EBDDE000E093
:10153000E02EEF0C123021F1133079F11130D9F097
:10154000488159816A817B8123E08E2D0E948E091A
:101550000F5F2496033061F78AE0F80E1F5F8CE876
:10156000F812E3CF1092800DDF91CF911F910F9170
:10157000FF90EF9008954C855D856E857F85E4CF63
:1015800020E030E041E655E4688D798D8A8D9B8DB1
:101590000E94C53DAB01BC01D7CF4CA15DA16EA19E
:1015A0007FA17058D1CF8DE50E9435080C94760943
:1015B000CF93DF93CDB7DEB72C970FB6F894DEBF8D
:1015C0000FBECDBF85E593E00E94680967E97DE025
:1015D000CE0101960E94C403CE0101960E942A0901
:1015E0008AE30E9435088091A90D0E9443090E9458
:1015F000D30A2C960FB6F894DEBF0FBECDBFDF9195
:10160000CF9108959091A50D91110CC086FF0BC04C
:101610002C9A87FF0AC080910201806480930201A6
:101620001092B10D08952C98F4CF809102018F7B18
:10163000F5CF2C98E2E0F1E080818F7B80830895E4
:101640002C9B06C080E49091020196FD806808956D
:1016500080E0F9CF9091A50D91110EC080FF0DC0D3
:10166000109881FF0CC0409882FF0BC0119883FF37
:101670000AC041981092B10D0895109AF2CF409A85
:10168000F3CF119AF4CF419AF5CF82B18095817052
:10169000409B8260119B8460419B8860089580918B
:1016A000090181709091090191FD82609091090179
:1016B00092FD84609091090193FD886090910901E9
:1016C00094FD80619091090196FD806290910901DD
:1016D00095FD80649091090197FD8068089590932D
:1016E000AD008093AC00892B31F48091A000877FFE
:1016F0008093A00008958091A0008860F9CFE0EA6F
:10170000F0E08081877F8083A5980895E0EAF0E08B
:101710008081877F80839D9A83E080838AE18093A4
:10172000A10080E094E09093A9008093A8009D9A86
:101730006B9A2091F80D3091F90D4091FA0D50916E
:10174000FB0D6091F40D7091F50D8091F60D909167
:10175000F70D0E94C53C9B01AC0160E070EC8FE787
:1017600094E40E94C53D60930F0270931002809331
:101770001102909312020C947F0B6BE87DE084E2DF
:101780009EE00C94C403E1E6FDE08CE1DF011D92D4
:101790008A95E9F71092810D1092820D81E0809375
:1017A000800510927F0508954F925F926F927F920D
:1017B0008F929F92AF92BF92CF92DF92EF92FF9261
:1017C0000F931F93CF93DF93EC018DE7E82E8DE00D
:1017D000F82E6E01812C912C540110E0EDE7FDE014
:1017E00080E007C02191D7019C91291709F464C0BA
:1017F0008F5F8113F7CF00E0F60141905190619027
:1018000071906F0120E030E0A901C301B2010E9494
:10181000BB3D882381F001110EC0A3019201C301D9
:10182000B2010E941D409B01AC01C501B4010E94A0
:10183000C63C4B015C011F5FFFEFEF1AFF0A13303C
:1018400069F6C501B4010E94BC406B017C01AC018A
:101850009B0160E070E080E89FE30E94C53D2B01A2
:101860003C018E01045F1F4F699179918991999193
:101870005E0124E0A21AB108A30192010E941D405A
:10188000D5016D937D938D939C931397C017D107CA
:1018900059F7C701B601DF91CF911F910F91FF90CA
:1018A000EF90DF90CF90BF90AF909F908F907F9000
:1018B0006F905F904F90089501E09ECF4F925F929E
:1018C0006F927F928F929F92AF92BF92CF92DF9250
:1018D000EF92FF926B017C018090F80D9090F90DD2
:1018E000A090FA0DB090FB0D4090F40D5090F50DC6
:1018F0006090F60D7090F70DA3019201C501B4013F
:101900000E94DD3F87FF1BC06091AF0D70E090E04B
:1019100080E00E946F3E2AE037ED43E25CE30E94E4
:101920001D40A70196010E941D406B017C01AC0186
:101930009B01C301B2010E94BB3D1816BCF040924E
:10194000B30D5092B40D6092B50D7092B60D80E05B
:1019500094E0FF90EF90DF90CF90BF90AF909F907A
:101960008F907F906F905F904F900895A7019601A0
:10197000C501B4010E94DD3F87FD1FC020E030E0BB
:10198000A901C701B6010E94BB3D81110BC0109295
:10199000B30D1092B40D1092B50D1092B60D90E0EB
:1019A00080E0D7CF8092B30D9092B40DA092B50D88
:1019B000B092B60D81E090E0CCCFC092B30DD09242
:1019C000B40DE092B50DF092B60DA5019401C701DA
:1019D000B6010E94C53C20910F0230911002409147
:1019E0001102509112020E941D400E94AA3E20E066
:1019F00030E040E85FE30E94C63C0E943E3ECB01DF
:101A0000A8CF9091A50D91110EC081110DC010921B
:101A1000B30D1092B40D1092B50D1092B60D0E9438
:101A20007F0B1092B10D0895803191F473989091CD
:101A3000FC0D91FF05C0803219F440E050E0BA017E
:101A4000CB01BA010E945E0C0E946F0BA59AE9CFF0
:101A5000739AEDCF2F923F924F925F926F927F9247
:101A60008F929F92AF92BF92CF92DF92EF92FF92AE
:101A70000F931F93CF93DF93CDB7DEB7C454D10933
:101A80000FB6F894DEBF0FBECDBF78AF6FABB0908E
:101A9000820D2B2C312C28E3B29EA0011124BA0117
:101AA0006F577A4F7AAB69ABDB011D922A95E9F744
:101AB000EFA9F8AD2485DB0153962C934481558121
:101AC00066817781E9A9FAA944AB55AB66AB77ABE0
:101AD000AFA9B8AD18964D915D916D917C911B9712
:101AE000448B558B668B778B21FF99C12CE0EBE8FB
:101AF000FDE0DE01599601900D922A95E1F78BAB3E
:101B00009CAB27EB3DE023963FAF2EAF2397BE0162
:101B1000635F7F4F21967FAF6EAF2197CE014996CD
:101B20009EAF8DAFA9A9BAA9BCAFABAF4E01B5E2CC
:101B30008B0E911C9AAE89AE10E000E028E3229D46
:101B4000C001239D900D1124FC01E357FA4F259607
:101B5000FFAFEEAF2597ABA9BCA96D917D918D919B
:101B60009D91BCABABAB2396EEADFFAD23974190FF
:101B70005190619071902396FFAFEEAF2397A30130
:101B800092010E941D400E94EA3F2196AEADBFAD7A
:101B900021976D937D938D939D932196BFAFAEAFAB
:101BA0002197EDADFEADC190D190E190F190FEAFE7
:101BB000EDAF6C197D098E099F099B01AC0197FF60
:101BC00007C022273327A901261B370B480B590BC7
:101BD000ABADBCAD2D933D934D935D93BCAFABAF1F
:101BE0002596EEADFFAD2597C080D180E280F380D1
:101BF000C216D306E406F50610F469017A012596AB
:101C0000AEADBFAD2597CD92DD92ED92FC921397CC
:101C10000E946F3EA30192010E94C53DE9ADFAAD5D
:101C20006193719381939193FAAFE9AF20E030E033
:101C3000A9010E94BB3D87FF0BC092E0013009F46F
:101C400090E8E9A9FAA9E00FF11F8089892B808B20
:101C50000F5F1F4F0330110509F07DCF80E0CD28C5
:101C6000CE28CF2809F4C1C0CE0185960E94D40B9E
:101C70006B017C0188E3829D8001839D100D1124FE
:101C80000F571A4FD8019496CD92DD92ED92FC92A7
:101C90009797BE016B5D7F4F8FEC9DE00E948C0497
:101CA000F80160A371A382A393A3BE016B5D7F4F74
:101CB00083EC9DE00E948C04D8019C966D937D93EB
:101CC0008D939C939F975396AC90A0FEACC0F80167
:101CD00060AB71AB82AB93AB8091810DB81611F004
:101CE000A1FEBBC088E3829DF001839DF00D11240D
:101CF000EF57FA4F108E118E128E138E10A611A66A
:101D000012A613A688E3829D8001839D100D1124E5
:101D10000F571A4FD80153968C9181FD65C089A940
:101D20009AA90E9404056B017C018090790D909026
:101D30007A0DA0907B0DB0907C0DAC019B01C5018C
:101D4000B4010E94BB3D87FF4CC1A5019401C501B0
:101D5000B4010E941D40F801648F758F868F978FA4
:101D600088E3829D8001839D100D11240F571A4F27
:101D7000F80180A491A4A2A4B3A4A5019401648D48
:101D8000758D868D978D0E94DD3F18163CF4D80125
:101D90005C968D929D92AD92BC925F97C092790DA8
:101DA000D0927A0DE0927B0DF0927C0D8CE0FE01DA
:101DB000B596ADE6BDE001900D928A95E1F78CE015
:101DC000FE013D96A1E6BDE001900D928A95E1F7F6
:101DD000809180058093820D8F5F843209F480E0CA
:101DE000809380050E945D0681E0CC5BDF4F0FB6DB
:101DF000F894DEBF0FBECDBFDF91CF911F910F9141
:101E0000FF90EF90DF90CF90BF90AF909F908F901A
:101E10007F906F905F904F903F902F9008952CE0AF
:101E2000E1E6FDE066CEAFA9B8AD2D913D914D91B3
:101E30005C91A3FC06C0F80120AB31AB42AB53ABC5
:101E40004BCFC701B6010E941D40D801D0966D93BB
:101E50007D938D939C93D3973FCFEDE6FDE0F8AF54
:101E6000EFAB8E010F5F1F4F9401245F3F4F3AAFDE
:101E700029AFC12CD12C76015801AFA9B8AD6D9115
:101E80007D918D919D91B8AFAFAB6BAB7CAB8DABC2
:101E90009EABF40141905190619071904F01A3016C
:101EA00092010E941D409B01AC01C701B6010E9436
:101EB000C53C6B017C012BA93CA94DA95EA9C301BE
:101EC000B2010E94C53CD8016D937D938D939D9383
:101ED0008D01E9ADFAADE815F90579F62FEE3FEF82
:101EE0004FE75FE3C701B6010E94DD3F18164CF4CF
:101EF00088E3829DF001839DF00D1124EF57FA4F86
:101F0000FDCE2FEE3FEF4FE75FEBC701B6010E941A
:101F1000BB3D87FF11C088E3829DF001839DF00DDA
:101F20001124EF57FA4F89E996E7A6E9BEE780A7A3
:101F300091A7A2A7B3A7E6CEC5010E94D40BB50115
:101F40008FEC9DE00E948C044B015C01A70196017F
:101F500060E070E080E89FE30E94C53C20E030E054
:101F600040E05FE30E941D400E94BC406B017C0189
:101F70002091EC0D3091ED0D4091EE0D5091EF0D53
:101F8000C501B4010E941D40A70196010E941D4099
:101F90004B015C01A701960160E070E080E89FE3DF
:101FA0000E94C53C9B01AC01C501B4010E94C53D26
:101FB0006B017C0120E030E0A9010E94BB3D87FF5E
:101FC00003C0C12CD12C760188E3829DF001839D52
:101FD000F00D1124EF57FA4FC0A6D1A6E2A6F3A642
:101FE00091CEA7019601C701B6010E941D40D801FC
:101FF0005C966D937D938D939C935F97B1CE019783
:1020000008F40895EFE9FFE03197F1F700C0000010
:10201000F6CF4F925F926F927F929F92AF92BF9254
:10202000CF92DF92EF92FF920F931F93CF93DF93A4
:10203000CDB7DEB7A4970FB6F894DEBF0FBECDBF05
:102040008CE0EBE8FDE0DE01119601900D928A959F
:10205000E1F7BE016F5F7F4FCE010D960E94C40372
:102060008CE30E9435088091A40D883009F489C161
:1020700008F064C1813009F48DC108F47DC182305B
:1020800009F48BC1843009F482C1E090EB0D2E2D50
:102090002170922EE0FE04C08091B20D81114BC0E0
:1020A0004090480E5090490E60904A0E70904B0E32
:1020B00080E3C82E8EE0D82E5E0189E1A80EB11C07
:1020C0008E01035F1F4FF12CF60161917191819197
:1020D00091916F0120853185428553850E94C63CD0
:1020E000F50161937193819391935F01F2E0FF1287
:1020F00069C1A30192010E94C63C69A37AA38BA384
:102100009CA3911018C0F501349720813181428140
:102110005381F80160817181828193810E94C53C65
:10212000F8016083718382839383F3940C5F1F4F64
:10213000F3E0FF12C9CFE1FE20C082E893E00E94E5
:1021400068099091820D8091810D981708F43EC125
:102150008D5D891B0E9443098CE20E9435088091A5
:10216000840D9091830D981708F432C19091830DDE
:10217000981B892F80950E9443090E944F0B182FAE
:10218000882361F189E793E00E94680981E310FFE9
:1021900080E30E94350881E311FF80E30E94350847
:1021A00081E312FF80E30E94350881E313FF80E39F
:1021B0000E94350881E314FF80E30E94350881E323
:1021C00015FF80E30E94350881E316FF80E30E943B
:1021D000350881E317FF80E30E9435080E94450B14
:1021E000182F8823C1F081E793E00E94680981E3FA
:1021F00010FF80E30E94350881E311FF80E30E9415
:10220000350881E312FF80E30E94350881E313FF64
:1022100080E30E9435088091060180FD2EC089E68A
:1022200093E00E94680981E30E9435080E944F0BE9
:10223000882319F1982F95709530F9F48A708A30B7
:10224000E1F40A980B980C980D983A983B983C98B2
:102250003D980A9A3A9A88EC90E00E94FF0F0B9AF8
:102260003B9A88EC90E00E94FF0F0C9A3C9A88EC15
:1022700090E00E94FF0F0D9A3D9A0E941104082FD2
:102280000E940004182F80910601F0908A0D802F83
:10229000812B8F2981F184E693E00E946809FF2059
:1022A00019F080E50E943508002379F000FF03C093
:1022B00088E50E94350801FF03C089E50E943508C2
:1022C00002FF03C08AE50E9435081123A1F010FF28
:1022D00003C084E40E94350811FF03C082E50E9418
:1022E000350812FF03C088E40E94350813FF03C0BD
:1022F00083E50E9435081091B10D112309F46DC0DA
:1023000011501093B10D8EE30E9435080E9476099A
:10231000A4960FB6F894DEBF0FBECDBFDF91CF916C
:102320001F910F91FF90EF90DF90CF90BF90AF90F3
:102330009F907F906F905F904F900895803221F131
:1023400098F4803109F0A1CE8091A60D87FD1CC0C4
:1023500088EA93E00E9468098091A60D80FF2EC054
:1023600080E30E94350891CE8034D1F0803809F0A6
:102370008CCE87E893E002C084EB93E00E9468096A
:1023800084CE8EEA93E0FACF84EA93E0F7CF8FE928
:1023900093E0F4CF89E993E0F1CF83E993E0EECFC6
:1023A0008DE893E00E9468098091A60D83FF02C02A
:1023B00083E3D7CF82FF04C085FFD2CF81E3D1CFA3
:1023C00082E3CFCF992009F49ECEAFCE8150C1CE0B
:1023D0009091830D8150891BCECE8091A40D8C7776
:1023E00009F45AC083E18093B10D8FE593E00E9418
:1023F00068098091AD0D0E9443098CE20E94350866
:102400008091AE0D0E9443098CE20E9435088091B4
:10241000AF0D0E944309A59B07C08091A00083FFD8
:1024200003C073993BC011E00E94200BF82E0E945C
:10243000450BE82E0E944F0B082F111105C0F1101B
:1024400003C0882309F45FCF8BE593E00E946809FD
:10245000112331F083E5113009F083E40E9435083F
:10246000F6FE03C086E40E943508F7FE03C08DE443
:102470000E943508002331F083E50E943508802F43
:102480000E945B08EE2009F43ECF8CE40E943508E0
:102490008E2D0E945B0837CF89E0A5CF12E0C4CF14
:1024A00080916F008D7F80936F0080918100887F85
:1024B00081608093810010921B048091EA0D9091BD
:1024C000A40D8F3FD1F42091860D211116C09038B4
:1024D000B1F490E00E94FF0F81E09091FC0D92FF1B
:1024E00002C091E08927882361F05F9A8A9A8091DF
:1024F00008018160809308010895943051F780E0CD
:10250000ECCF5F988A98809108018E7FF3CFCF93AC
:10251000DF930E945012ECE4F5E081E3DF011D92AD
:102520008A95E9F7CCE1D4E087E2FE0111928A9521
:10253000E9F710927E0510927D05109243041092E7
:10254000950481E08093440410921B040E94C80704
:10255000A8E1B4E08C91898B11968C9111978A8BAC
:1025600012963C9112973B8B21B32E7FE5E1F4E06C
:102570009081292B21BB21B32D7F9C91292B21BB3D
:1025800021B32F7B9181292B21BB91B39F77982B6E
:1025900091BB91B3977F8281982B91BB81B38D7F43
:1025A000832B81BBDF91CF9108958091850D84FDB0
:1025B0001DC080E10E946C030E947F0B0E94190BDA
:1025C0009091A40D892F8C7221F48091A80D8670B2
:1025D00069F0943049F48091860D811103C086E042
:1025E0000E945C030C94501283E0FACF08952F925E
:1025F0003F924F925F926F927F928F929F92AF9293
:10260000BF92CF92DF92EF92FF920F931F93CF93DF
:10261000DF93CDB7DEB7EB970FB6F894DEBF0FBEF2
:10262000CDBF8091A80D80FD4AC290914304809156
:102630004404981709F443C280917D0590917E056A
:10264000892B09F07EC01091A80D12FF51C2809114
:10265000820D28E3829FC00111248F579A4F9093D7
:102660007E0580937D0540917D0550917E055A87BA
:102670004987452B09F423C200914D0500FF3BC259
:1026800010924D0510925F05109260051092610541
:1026900010926205A985BA8590962D913D914D9134
:1026A0005C91939729833A834B835C8360E070E06D
:1026B00080E09FE30E94C53D6D837E838F83988772
:1026C000E985FA8544A055A066A077A0808C918CFE
:1026D000A28CB38C11FF04C3F2E0F0935E05A50158
:1026E00094010E941D409B01AC01C301B2010E94F4
:1026F000C53C6B017C0120E030E0A9010E94BB3D9C
:1027000087FFDDC229813A814B815C81CA01B90111
:102710000E94C63CA30192010E941D409B01AC0196
:10272000C501B4010E94C53C0E94BC4060936B058A
:1027300070936C0580936D0590936E0518601093EF
:10274000A80DE0919504F8E0EF9FD0011124BA8B19
:10275000A98BFD01EB5BFB4F80914C05848320919D
:102760007D0530917E053A872987D9019496BC91E1
:10277000BDA3F901F5A1FEA3D9019696BC91BFA313
:10278000F901F7A1F8A720915A0530915B05409116
:102790005C0550915D056DA17EA18B2F9F2F0E943E
:1027A000C53C69AB7AAB8BAB9CAB20E030E0A901B8
:1027B0000E94BB3D87FF04C019AA1AAA1BAA1CAA23
:1027C000209167052D8B309168053E8B40916905FE
:1027D0004F8B50916A05588F80916F058D8F909126
:1027E00070059E8FA0917105AF8FB0917205B8A34F
:1027F000E0917305E9A7F0917405FAA7209175059A
:102800002BA7309176053CA7409163054AAF5091C4
:1028100064055BAF009165051091660580915E05CA
:102820008D8790915F059DA7A0916005AEA7B0919F
:102830006105BFA7E0916205E8ABF0916B05FEABC7
:1028400020916C052FAB30916D0538AF40916E052E
:1028500049AF29A53AA54BA55CA56D8D7E8D8F8DC1
:1028600098A10E94BB3D8111CAC352E05DAB9DA1FE
:10287000998FAEA1AA8FBFA1BB8FE8A5EC8F8EE385
:10288000C82E83ECD82E8EE2E82E89E3F82E412C58
:10289000512C3201A701960129A33AA34BA35CA3B3
:1028A0005D85513009F446C4A985BA85513008F4D4
:1028B000D6C3533009F074C490962D913D914D913B
:1028C0005C919397C701B6010E941D404B015C01CA
:1028D0002D893E894F89588D6AAD7BADC8010E9414
:1028E000C53C9B01AC01C501B4010E94DD3F87FDE1
:1028F00090C32D8D3E8D4F8D58A16DA17EA18FA1CE
:1029000098A50E94C53C9B01AC010E94C63C6B018E
:102910007C012D893E894F89588D6AAD7BADC801F8
:102920000E94C63C9B01AC01C701B6010E94C53D97
:102930006B017C01BD89BAAFEE89EBAF0F89188DB1
:102940002D8C3E8CFF8DF98328A12D8331E03D87AE
:10295000A7019601C301B2010E94C63C2B013C01B4
:1029600029A13AA14BA15CA10E94BB3D87FF82C473
:10297000A301920169A17AA18BA19CA10E94C53CEF
:102980006B017C01910149815D816DA57EA58FA5BB
:1029900098A90E94BB3D87FD35C38AAD9BADD80188
:1029A0008093630590936405A0936505B0936605D5
:1029B0003D8530935E05E0919604F09197048389FC
:1029C000811104C09091A80D93FF32C0A985BA85EA
:1029D00053969C915397907309F477C4D496CD90F5
:1029E000DD90ED90FC90D7978823A9F02091770592
:1029F000309178054091790550917A056AAD7BADAB
:102A0000C8010E941D409B01AC01C701B6010E9494
:102A10001D406B017C01C701B6010E945E0C9093C2
:102A20007C0580937B058091A80D877F8093A80DFE
:102A300080917B0590917C05E989FA89EB5BFB4FDE
:102A4000FAA3E9A397838683209156053091570511
:102A50004091580550915905B10189819D810E948D
:102A60001D4069877A878B879C870E94A43D6B01F4
:102A70007C016091520570915305809154059091AD
:102A800055050E94A43D4B015C01A70196010E94DF
:102A9000C53C0E943E3E6D877E878F87988BED8573
:102AA000FE85A9A1BAA1ED93FC93EF2B09F01AC4FE
:102AB0008091A80D81FF16C481608093A80DEB96CC
:102AC0000FB6F894DEBF0FBECDBFDF91CF911F913F
:102AD0000F91FF90EF90DF90CF90BF90AF909F90BD
:102AE0008F907F906F905F904F903F902F900895C0
:102AF0000E947705B4CD80914C058F5F893009F431
:102B000080E080934C05282F30E054E1859FC00180
:102B10001124DC01A856BB4F7D01B0939704A0930C
:102B20009604E985FA85808950968C93509781891F
:102B300051968C935197828952968C9390E080E0C5
:102B40004191519161917191D701A80FB91F68947A
:102B500012F8440F551F661F771F1694D1F74D9337
:102B60005D936D937C93139704968C30910541F798
:102B7000A985BA851C966D917D918D919C911F9729
:102B8000B4E1B29FA001B39F500D1124FA01E856A1
:102B9000FB4F4B015C0123E0880C991CAA1CBB1C59
:102BA0002A95D1F784869586A686B7860E946D3EC3
:102BB0006093520570935305809354059093550587
:102BC000E985FA8524A135A146A157A10E94C53DFA
:102BD0009B01AC012093560530935705409358054F
:102BE0005093590560E070E080EA9FE30E94C53D84
:102BF00060935A0570935B0580935C0590935D0527
:102C000010924E0510924F051092500510925105EA
:102C100011FD02C003FF42C060916B0570916C050D
:102C200080916D0590916E056093630570936405C6
:102C300080936505909366059B01AC010E941D4041
:102C4000A985BA8558966D937D938D939C935B97D8
:102C5000077F00934D05D70153961C928091FC0D80
:102C600081FF10CDE985FA85838985FF0BCD20A9E9
:102C700031A942A953A960E070E080E89FE30E9477
:102C8000C53D60937705709378058093790590939F
:102C90007A05E1E0D7015396EC93F4CCE985FA8507
:102CA000608D718D828D938D0E94BC406093630511
:102CB000709364058093650590936605CCCFC092B0
:102CC0005F05D0926005E0926105F0926205109276
:102CD0006B0510926C0510926D0510926E052ECD4D
:102CE00010925E0540926F055092700560927105DA
:102CF0007092720512FF6AC010926B0510926C05FB
:102D000010926D0510926E05C12CD12C760189852B
:102D10009A850E940405698B7A8B8B8B9C8B9B0117
:102D2000AC010E941D4069877A878B879C87A5012B
:102D300094010E94BB3D87FF93C029853A854B854E
:102D40005C85C501B4010E94C53C2D813E814F8147
:102D500058850E941D409B01AC01C301B2010E9435
:102D6000C53C60936F0570937005809371059093D7
:102D7000720520E030E0A9010E94BB3D18160CF45A
:102D800049C032E030935E0529813A814B815C81F4
:102D9000CA01B9010E94C63CA30192010E941D40D4
:102DA0009B01AC01C501B4010E94C53C0E94BC401E
:102DB00060936B0570936C0580936D0590936E0521
:102DC00080914D05886080934D05B8CCE091810DD0
:102DD000EF5FE43209F4E0E08091820DC12CD12C48
:102DE00076018E1751F028E32E9FF0011124EF5742
:102DF000FA4FC08CD18CE28CF38CC701B6010E94D3
:102E0000BC4060936B0570936C0580936D05909347
:102E10006E057DCFA701960169857A858B859C8596
:102E20000E94C53C2D813E814F8158850E941D40E6
:102E30006093730570937405809375059093760580
:102E400089899A89AB89BC898093670590936805C5
:102E5000A0936905B0936A0593E090935E056ECCEC
:102E6000A7019601C501B4010E94C53C2D813E8198
:102E70004F8158850E941D40A30192010E94C63CCB
:102E800020E030E040E05FE30E941D406D877E87D8
:102E90008F87988B20E030E0A9010E94DD3F181653
:102EA0000CF094C0A30192016D857E858F85988971
:102EB0000E94BB3D87FF88C0A701960169857A857E
:102EC0008B859C850E94C53C2D813E814F81588514
:102ED0000E941D409B01AC01209373053093740543
:102EE00040937505509376056D857E858F8598890D
:102EF0000E94DD3F1816BCF529893A894B895C8907
:102F000020936705309368054093690550936A05DF
:102F1000A501940169857A858B859C850E94BB3DBE
:102F2000811104C031E030935E0508CCA501940105
:102F300069857A858B859C850E94C53C2D813E8163
:102F40004F8158850E941D409B01AC01C301B20115
:102F50000E94C53C60936F05709370058093710566
:102F600090937205EBCB8D859E85AF85B889809354
:102F70006F0590937005A0937105B09372058093CF
:102F8000730590937405A0937505B0937605298118
:102F90003A814B815C81CA01B9010E94C63C2D85F2
:102FA0003E854F8558890E941D40A70196010E94C9
:102FB000C63C0E94BC40609367057093680580938F
:102FC000690590936A05BACB92E047CF80916B0573
:102FD00090916C05A0916D05B0916E0510926F05F2
:102FE000109270051092710510927205809367051A
:102FF00090936805A0936905B0936A059FCB81E023
:103000008DAB35CC298E3A8E39813B8F4D814C8FDB
:1030100047CC20E030E040E05FE3C501B4010E940E
:103020001D409B01AC016AAD7BADC8010E94C53C4F
:10303000A70196010E941D409B01AC01698D7A8D0C
:103040008B8D9C8D0E94C53C1B0189839D83A501AE
:1030500094016AAD7BADC8010E94C53C67C09096E3
:103060002D913D914D915C919397C701B6010E94BE
:103070001D404B015C0120E030E040E05FE30E9436
:103080001D402AAD3BADA8010E94C63CA701960198
:103090000E941D409B01AC01698D7A8D8B8D9C8DAA
:1030A0000E94C53C1B0189839D839B01AC016D8DF2
:1030B0007E8D8F8D98A10E94DD3F181684F52D8D91
:1030C0003E8D4F8D58A16DA17EA18FA198A50E9424
:1030D000C53C9B01AC010E94C63C6B017C012D8963
:1030E0003E894F89588D6AAD7BADC8010E94C63CB0
:1030F0009B01AC01C701B6010E94C53D6B017C017B
:10310000BDA9BD87ED89EAAFFE89FBAF0F89188D98
:103110002D8C3E8C2F8D298338A13D8319CCA501A0
:1031200094016AAD7BADC8010E94C63C6AAF7BAF1B
:103130008C010ECC2D893E894F89588DC701B6016F
:103140000E941D409B01AC01698D7A8D8B8D9C8DF9
:103150000E94C53C1B0189839D8329A53AA54BA5E7
:103160005CA50E94BB3D87FFF3CB29A53AA54BA5E3
:103170005CA5698D7A8D8B8D9C8D0E94C53C2D89B7
:103180003E894F89588D0E94C53D6B017C0129A461
:103190003AA44BA549835CA55D8382E08D87D8CB9B
:1031A00090962D913D914D915C919397C701B601F9
:1031B0000E941D404B015C01AC019B016AAD7BADDF
:1031C000C8010E94DD3F18163CF520E030E040E0E9
:1031D0005FE3C501B4010E941D409B01AC016AADD3
:1031E0007BADC8010E94C53CA70196010E941D400D
:1031F0009B01AC01698D7A8D8B8D9C8D0E94C53CA5
:103200001B0189839D832DA53EA54FA558A90E942A
:10321000DD3F18160CF41BCF2DA53EA54FA558A9D0
:10322000698D7A8D8B8D9C8D0E94C53C9B01AC0174
:103230000E94C63C6B017C012EA93FA948AD59AD47
:103240006AAD7BADC8010E94C63C9B01AC01C701C1
:10325000B6010E94C53D6B017C01BEA9BAAFEFA9C2
:10326000EBAF08AD19AD2DA43EA4FFA5F98328A9A5
:103270002D836ECB29A93AA94BA95CA9B1018981FB
:103280009D810E94DD3F18168CF42EE333EC4EE254
:1032900059E369A17AA18BA19CA10E94C63C69A3B4
:1032A0007AA38BA39CA3A301920168CB8AAD9BADAB
:1032B000D8018093630590936405A0936505B0934E
:1032C00066054D8540935E0576CB1092B30D109246
:1032D000B40D1092B50D1092B60D10927C0510929F
:1032E0007B05A1CB20914E0530914F0540915005B3
:1032F00050915105C301B2010E94C63C2B013C0113
:1033000029853A854B855C85C501B4010E94C53C81
:103310009B01AC01C301B2010E94C53D4B015C01A0
:1033200020EC31EE44E65EE40E941D400E94A43D84
:103330000E943E3EE989FA89EB5BFB4F603D37E036
:1033400073078105910508F059C01582E989FA894A
:10335000EB5BFB4F738362838091440480939504FD
:103360008F5F8A3009F480C080934404E0917D052A
:10337000F0917E05C101A981BD8184A395A3A6A377
:10338000B7A3C0925205D0925305E0925405F09233
:10339000550529853A854B855C85C701B6010E9494
:1033A000C53CA50194010E941D4060934E05709399
:1033B0004F05809350059093510520915F05309102
:1033C00060054091610550916205B10189819D813F
:1033D0000E94BB3D811129C99091A80D998720E0D9
:1033E00030E0A901B10189819D810E94DD3F18165D
:1033F000F4F5A985A160A093A80D61CB603A4FE0D8
:1034000074078105910520F551E05583E989FA8912
:10341000EB5BFB4F2581022E04C09695879577952F
:1034200067950A94D2F74D855E8502C0440F551FFB
:103430002A95E2F7518340836115710551E08507B4
:10344000910508F483CF8FEF9FEF9383828384CF1E
:103450006034AFE17A078105910518F4B2E0B583D5
:10346000D5CF23E02583D2CF109244047FCFB985F6
:10347000B2FF04C0B160B093A80D21CB10927E05BD
:1034800010927D059091810D8091820D891709F42C
:10349000CCC881E0890F843209F480E020917F0557
:1034A000921302C080937F058093810DBEC84F9216
:1034B0005F926F927F928F929F92AF92BF92CF92C4
:1034C000DF92EF92FF920F931F93CF93DF93C09100
:1034D000860DCC2391F181E08093A40D86EF92E0DC
:1034E0000E9468098C2F0E9443090E94760984EF8C
:1034F00091E00E94FF0FC150C230D0F48CE594E0FF
:103500000E9468098AE494E00E9468090E94D30A34
:1035100080E10E9462038091850D80FF05C00E94BA
:10352000091081E00E9462038091850D84FFF3CF32
:103530008FB7F8941092860D8FBFC091850DCC2364
:1035400009F4DBC0C4FF14C081E08093A50DDF91B6
:10355000CF911F910F91FF90EF90DF90CF90BF9090
:10356000AF909F908F907F906F905F904F90089555
:10357000C0FF05C00E94091081E00E9462038C2FE9
:10358000887E09F46AC08091A40D982F937009F089
:1035900053C08872A9F08091A60D807C89F40E94A6
:1035A000390682E08093A80D8091A40D803241F409
:1035B00080E2C7FD0CC08091A60D80688093A60DA7
:1035C0008091A40D811103C091E09093A60DC6FFD8
:1035D00007C085FD05C09091A60D90649093A60D3F
:1035E000C3FF05C0807E19F480E18093A40DC5FF60
:1035F00023C08CE594E00E94680988E094E00E9472
:1036000068090E94D30A8091A60D87FD10C0909191
:10361000A40D903451F483FF04C0837E82608093B4
:10362000A60D80E48093A40D02C09038D1F780915C
:10363000A60D80628093A60DC7FF0CC08091A40DDB
:10364000813029F48091A60D85608093A60D80E8D5
:103650008093A40D88EE0E946203C1FF28C08C2FC6
:10366000887611F58091A40D803441F48091A60DE7
:1036700085FD04C084FF02C11092A40D8091A40DA9
:10368000882309F401C184FF0FC09091A60D90FF1B
:103690000BC0803109F0F8C08091B00D882309F487
:1036A000F3C088608093B00D82E00E946203C2FF85
:1036B00024C09091A60D8091A40D807D09F4FDC0D9
:1036C0008091A70D8111F9C097FDF9C00E943906BC
:1036D0008091810D80937F050E945D068091A80DE9
:1036E00081FF05C09091A60D91609093A60D897FF2
:1036F0008093A80D84E00E9462039091870D992326
:1037000009F44DC08FB7F8941092870D8FBF409188
:10371000AD0D842F90FD84E691FD865F92FD8A5069
:1037200093FD8F5F94FD8150893C08F088EC8A30CE
:1037300008F48AE03091AE0D232F95FD24E696FD26
:1037400022E397FD29E1481302C0231741F180933A
:10375000AD0D2093AE0D1092B10D8090810D409073
:10376000820DC82D89E9B82E96E7E92E26E9F22EBA
:10377000DEE738E3532EC411BDC08B2D9E2DAF2D37
:10378000BD2F8093790D90937A0DA0937B0DB0930C
:103790007C0D0E94390680927F050E945D06D091C3
:1037A000880DDD2309F453C08FB7F8941092880D6B
:1037B0008FBF9091AF0D892FD0FD84E6D1FD865F3C
:1037C000D2FD8A50D3FD8F5FD4FD8150893C08F033
:1037D00088EC8A3008F48AE09817A1F09091A40D43
:1037E0008093AF0D9111DBC04091170E5091180ED0
:1037F0006091190E70911A0E8091150E0E94010DA4
:103800001092B10D8091A40DD5FF09C0803139F41B
:103810009091B00D9111C9C092E09093B00D9D2F81
:10382000907CA9F0882311F0887389F0C091140E60
:10383000D7FF03C0C7FFBDC0CF77D6FF03C0C6FF09
:10384000BAC0CF7B8C2F0E94020BC093140E8091C4
:10385000A40D8C7F09F47BCEDF91CF911F910F9146
:10386000FF90EF90DF90CF90BF90AF909F908F90A0
:103870007F906F905F904F900C94F71282FFFECE76
:1038800088608093A60DFACE1092A80D0E9477054D
:10389000892B71F08091A60D86FD0AC01092A60DAD
:1038A00088E08093A40D0E94F7120E940208FCCECB
:1038B0001092A60D1092A40DF7CE97FF0AC0109299
:1038C000A80D0E94C30B0E9487120E94BD0B0E948C
:1038D000E2048091A60D85FF08C08F7781608093F8
:1038E000A60D80E48093A40D05CF1092A60D109232
:1038F000A40D00CFCC2ED12CC59DC00111248F5713
:103900009A4F0E9404053B01982EA92E2B2D3E2D87
:103910004F2D5D2F0E94DD3F5C9C80015D9C100D52
:1039200011240F571A4F18169CF52B2D3E2D4F2D95
:103930005D2F6B2D7E2D8F2D9D2F0E941D40F80138
:10394000648F758F868F978F5C9C80015D9C100DB6
:1039500011240F571A4FF801C0A4D1A4E2A4F3A474
:10396000A7019601648D758D868D978D0E94DD3F30
:1039700018162CF4F801C48ED58EE68EF78ECF5F24
:10398000C43209F4C0E0B62CE72CF92CDA2DF3CEC2
:103990009301492D5A2DB301892D9A2DCECF8091B7
:1039A000A80D88608093A80D2BCF90FF38CF94602E
:1039B00034CFC06842CFC06445CFCF92DF92EF9240
:1039C000FF921F93CF93DF930E94571A8091A60D09
:1039D000882309F46CC00E9477057C01009709F0E8
:1039E0003FC0C091150E8091140EC82BC090170EC9
:1039F000D090180EE090190EF0901A0E8091FC0DE8
:103A000081FF03C080E20E944A03DC2FD07311E0E3
:103A1000C07C8091A60D882309F449C09091A50D22
:103A2000911145C080FF19C09091A40D292F207CD1
:103A300009F490C082FD20C01092B00D40E050E02B
:103A4000BA0180E00E94010D80E00E94020B80918B
:103A5000A60D8D7F84608093A60D0E94571AD9CF42
:103A6000FC01C389C0730E94200BC82BF701C4A8B6
:103A7000D5A8E6A8F7A8C2CF903821F58CE594E048
:103A80000E94680985EC93E00E9468090E94D30AAD
:103A900040E050E0BA0180E00E94010D80E00E9409
:103AA000020B0E9450128091A50D882341F0DF91F6
:103AB000CF911F91FF90EF90DF90CF9008950E94DB
:103AC000571AF1CF903449F40E94000480FD05C0DC
:103AD0008091A60D8F7D8093A60D8091A60D83FF0A
:103AE000BCCF9091150E992359F081FD09C08091AA
:103AF000FC0D81FF22C08091A80D88608093A80DE5
:103B00008091140E882371F08091A60D81FD0AC06A
:103B10008C2F0E94020B41E060E070E080E89FE3A0
:103B20000E940C208091A60D81FD97CF806180932B
:103B3000A60D82E00E946C0390CFB701A6018D2FE5
:103B40000E94010D41E060E070E080E890E40E9496
:103B50000C20D6CF8091B00D8823C9F181FF0DC014
:103B60008091150E882351F140E050E0BA0180E0C9
:103B70000E94010D1093B00D70CF8C7009F46DCFC1
:103B80008091150E882399F08CE594E00E946809D5
:103B90008EEC93E00E9468090E94D30A8091FC0D8C
:103BA00081FF0FC08091A80D88608093A80D80913F
:103BB000B00D83FF03C082E00E946C031092B00D31
:103BC0004CCFB701A6018D2F0E94010DF0CF80913F
:103BD000A80D83FF42CFB701A6018D2F0E94010DD2
:103BE0008091A80D877F8093A80D37CF2F923F92A9
:103BF0004F925F926F927F928F929F92AF92BF92FD
:103C0000CF92DF92EF92FF920F931F93CF93DF93A8
:103C1000CDB7DEB7A8970FB6F894DEBF0FBECDBF05
:103C20009091A50D9111C1C1382E8DE0FE01319604
:103C3000DF011D928A95E9F786E08D87E7EBFDE0CD
:103C4000F9A3E8A35F019E01265E3F4F490110E002
:103C500000E0C12CD12C7601832D90E09BA38AA398
:103C6000802F91E0002321F098E0013009F490E4E6
:103C7000D4019D934D01EAA1FBA102C0F595E79502
:103C80008A95E2F7E0FF24C020E030E040EC5FEBF3
:103C9000D50194966D917D918D919C9197970E94FD
:103CA0001D402B013C01A70196010E94BB3D87FDF1
:103CB00002C06201730120E030E040EA50E4C70135
:103CC000B6010E94BB3D87FF03C08AE00E945C03EF
:103CD0000F5F1F4FB4E0AB0EB11C0330110509F0AC
:103CE000BFCF8090020E9090030EA090040EB09073
:103CF000050E04E011E0222423946BE87DE0CE0160
:103D00000E960E94C4038091FD0DE82FF0E0F8A705
:103D1000EFA3FE013E962BE83DE03DA32CA3B901A5
:103D2000AE01435E5F4F1EA290E080E026013701A6
:103D300077FA709477F87094DA011D92AD012AA198
:103D40003BA1082E02C0359527950A94E2F720FF83
:103D50002FC0BEA1BF5FBEA3DB011D921D921D92AD
:103D60001C9213972FA138A5082E02C035952795D0
:103D70000A94E2F720FF07C0112339F040825182F4
:103D80006282738206C01123C9F3C082D182E282AB
:103D9000F382AAE1B0E0AC0FBD1FA80FB91F2C91B0
:103DA000DA0111972C93DC01AC55B24F16962C9387
:103DB000019634966C5F7F4F8330910509F0BCCF3C
:103DC000BEA16B2F70E090E080E00E946D3E0E94EB
:103DD000BC40A50194010E941D4069837A838B83B6
:103DE0009C83BE016F5F7F4FCE010E960E942A0D0D
:103DF000E4E0E093A80D0E94F7120E94020811234C
:103E000069F10E9411049AEAA92E9DE0B92EAE0133
:103E1000465E5F4FFE017D9630E020E090E0BF01FE
:103E2000C080DA01DD90AD01FC2CFD2061F07C0149
:103E3000022E02C0F594E7940A94E2F7E0FE03C074
:103E4000D094DC20D0823196DB016C91D5016D934A
:103E50005D012F5F3F4F2330310509F70E94F712B4
:103E60008091850D847309F083C08D8D8111C7CF3A
:103E70008E8D8111C4CF8F8D8111C1CF0E94871289
:103E80008091060E9091070E0E94FF0F122509F4F3
:103E9000A9C020E030E040EA50E46091080E709143
:103EA000090E80910A0E90910B0E0E941D406B012D
:103EB0007C018090FE0D9090FF0DA090000EB090C0
:103EC000010E015009F019CF2090FD0D312CC0904A
:103ED000080ED090090EE0900A0EF0900B0E26010D
:103EE000370177FA709477F8709410E000E08AA1B7
:103EF0009BA1002E02C0959587950A94E2F780FF5A
:103F000024C0E8A1F9A180809180A280B380C10182
:103F1000002E02C0959587950A94E2F780FF73C042
:103F200024A135A146A157A1C701B6010E94C63CF4
:103F3000A50194010E941D400E94EA3FACA1BDA1D1
:103F40006D937D938D939C9313970F5F1F4FECA1FF
:103F5000FDA13496FDA3ECA328A139A12C5F3F4F0E
:103F600039A328A30330110511F61092A80D1DC026
:103F7000F090850DF4FE03C086E00E945C03F5FE20
:103F800003C087E00E945C03111142C00E9411042B
:103F9000832119F088E00E945C038091860D8823BC
:103FA000E9F00E94D5120E94DD1CA8960FB6F89485
:103FB000DEBF0FBECDBFDF91CF911F910F91FF905C
:103FC000EF90DF90CF90BF90AF909F908F907F90B9
:103FD0006F905F904F903F902F90089584E00E94E3
:103FE00062034CCFC090080ED090090EE0900A0EEC
:103FF000F0900B0E8090020E9090030EA090040E95
:10400000B090050E5ECFA5019401C301B20192CF1D
:10401000F2FEC3CF89E0BFCF1F93CF93DF93142F5E
:1040200020E030E040EA51E40E941D400E94A43D9F
:104030000E943E3EEB012097C9F08091A50D8111B1
:1040400015C011110DC00E94DD1C2FEF80E792E01A
:10405000215080409040E1F700C000002197EBCF55
:104060000E94571A8091A60D81FFEFCFDF91CF916B
:104070001F9108950E942D080E94DD1C8091A50DBE
:10408000811108C00E947705892BB1F78091A40D9A
:10409000883091F30895CF93DF9321E031E0829F40
:1040A000E001839FD00D1124DD5F40E051E0BE01AF
:1040B00086E89EE00E94F705892B79F41092860E1F
:1040C0000E943A2040E051E066E87EE0CE010E9486
:1040D000A70580E0DF91CF91089581E0FBCF0E949A
:1040E0003A201092B20D08950F931F93CF93C82FCB
:1040F0008B010E943A202DE0C29FC00111244CE0A8
:1041000050E0B8019E5FCF911F910F910C94A705CD
:104110001F93CF93DF93182FEB018DE0189FB00111
:1041200011247E5F4CE050E0CE010E94F705892B00
:1041300071F48CE0FE0111928A95E9F7BE01812F9E
:104140000E94742080E0DF91CF911F91089581E05B
:10415000FACFEF92FF920F931F93CF93DF93CDB7D8
:10416000DEB72C970FB6F894DEBF0FBECDBF182F69
:1041700080FF0BC085E5EDEFF2E0A7EBBDE0059019
:104180000D928A95E1F70E94E20511FF10C0CE0161
:1041900001967C018CE0F70111928A95E9F700E025
:1041A000B701802F0E9474200F5F0830C9F712FFFB
:1041B00014C060E080E093E00E94870560E081E049
:1041C00093E00E94870560E081E094E00E9487050B
:1041D00060E082E094E00E94870513FF0AC060E07F
:1041E0008EEA93E00E94870560E08FEA93E00E94E8
:1041F00087052C960FB6F894DEBF0FBECDBFDF91BA
:10420000CF911F910F91FF90EF9008958091A40D91
:10421000823041F00E943A208091A50D811102C0A8
:104220001092B10D0895CF92DF92EF92FF92CF934B
:104230009091A40D923079F06A017B01C82F0E9401
:104240003A20B701A6018C2FCF91FF90EF90DF901D
:10425000CF900C94010DCF91FF90EF90DF90CF9015
:104260000895882371F00E94F61D0E94DD1C809144
:10427000A50D81110BC00E94BD0B0E94E2040C949D
:10428000730484E00E94F61D83E0EDCF0895FF9251
:104290000F931F93CF93DF938C01EB018091FC0D63
:1042A00085FF23C0F090A40D80E2F81611F1C8013B
:1042B0000E9475038823C9F081E08093A70D88E0F0
:1042C000F8120CC00E946C030E94DD1C8091A50DA9
:1042D00081110BC08091A40D8111F6CF0E94D512DF
:1042E00082E00E945C030E94DD1C8091A40D82305C
:1042F00041F10E94DD1C8091A50D811122C0909199
:10430000810D80918005981303C00E942D08F1CF84
:10431000BE01C8010E942A0D811113C08091FC0DBD
:1043200081FF0FC08C8584FF0CC04C815D816E8144
:104330007F8180E1DF91CF911F910F91FF900C94CD
:104340001321DF91CF911F910F91FF9008952F922C
:104350003F924F925F926F927F928F929F92AF9215
:10436000BF92CF92DF92EF92FF920F931F93CF9362
:10437000DF93CDB7DEB7C355D1090FB6F894DEBFD2
:104380000FBECDBFECE4FEE08AE3DF011D928A950B
:10439000E9F78BE0ECE0FEE0ADE4BEE001900D92C9
:1043A0008A95E1F780911F0E8093790E8091860E99
:1043B000843279F01E8E312C1F8E18A219A21AA2F7
:1043C0001FA618AA19AA1AAA412C512C3201212C75
:1043D000A2C181E080934D0E10924E0E83E08E8F2D
:1043E00033243394E9CF5FEBE52EEF0CB9E1BE1532
:1043F00010F40C9423328F5F8E8FBE01665E7F4F68
:10440000CE014E960E949D02882311F40C94263210
:104410008A8C9B8CAC8CBD8CC501B4010E94004180
:104420000E943E3E162F70E090E080E00E946F3EBA
:104430009B01AC01C501B4010E94C53C20E030E005
:1044400048EC52E40E941D400E948A400E943E3E79
:10445000CB01E7E4FE1631F1FDE4FF1609F401C1DA
:1044600034E13E1508F446C4EE2DEE0CFF0B882710
:10447000E35CFD4D8F4F0C94684175249324AC246C
:10448000D524E524F52405257A267A267A267A2667
:10449000EE237A2635247A264324242561246B24AE
:1044A00077251126183209F4DAC028F5143160F4A2
:1044B000113108F097C0143009F472C0B0F01A300E
:1044C00009F467C084E195C01C3109F462C040F46E
:1044D0001631C0F725E1211B20934F0E06E086C060
:1044E0001E3109F456C0163269F721100C94293296
:1044F00042E0242E27C01D3309F4ACC0D8F4153394
:1045000009F44EC080F41B3211F01133D9F621109A
:104510000C942932113309F096C01092520E33E0F8
:10452000232E08E04FC01C3368F616531093530E29
:1045300009E05CC01C3510F51A3508F074C0103560
:1045400009F0C0CF10934D0E01E0163209F04EC0B5
:104550008431910551F08E31910539F08832910501
:1045600021F08233910509F0ADCF6AE070E00E943E
:104570003241665760934D0E01E024C01C3549F06E
:104580001F3508F09FCF2EE5211B20934E0E05E02E
:104590002DC0009729F421100C9429322224239451
:1045A00010934C0E212F2D7F2C3119F000E01C357B
:1045B000E9F4009719F00A9709F084CF610F60932E
:1045C0004C0E00E08FA598A9A9A9BAA9002E04C095
:1045D000B695A795979587950A94D2F780FF83C0E3
:1045E00085E107C011511093510E02E0892B51F360
:1045F00087E1CD5ADF4F0FB6F894DEBF0FBECDBFB7
:10460000DF91CF911F910F91FF90EF90DF90CF90AE
:10461000BF90AF909F908F907F906F905F904F90E2
:104620003F902F900895892B29F41A551093500E1E
:1046300003E0C8CF6A30710509F044CF1A3509F498
:1046400041CF04E0BFCF0A9709F03CCF81E08093CF
:10465000520E65CF892B09F035CF0AE0B3CF07E0C2
:10466000C5CF892B29F61A3078F4173058F5133056
:10467000C0F0163008F026CF1430F9F080E1153084
:10468000E9F41092560E1CC01E3179F008F41ACFCE
:1046900082EC810F843008F015CF10934C0E0FE0A0
:1046A00091CF112329F0113031F01093540E03C033
:1046B00083E08093540E0BE085CF80E28093560E0A
:1046C0000CE080CF183041F08091550E8068193091
:1046D00031F41092550E05C08091550E8064809380
:1046E000550E0DE06FCF81E090E0A0E0B0E0002E2D
:1046F00004C0880F991FAA1FBB1F0A94D2F72FA5C9
:1047000038A949A95AA9282B392B4A2B5B2B2FA74B
:1047100038AB49AB5AAB8E8DE82FF0E0EA57F14F3A
:10472000F080F11060CE411451046104710421F055
:10473000211002C092E0292E3F8D35FF0FC08091DD
:10474000690E90916A0EA0916B0EB0916C0E81383B
:104750009649A849B10514F00C943232332009F47B
:1047600013C35F8D50FF22C380914F0E8130B1F48F
:1047700023E333E34BEC51E46091580E7091590EF2
:1047800080915A0E90915B0E0E941D406093580ECE
:104790007093590E80935A0E90935B0E2F8D38A113
:1047A00049A15AA130FD10C08091170E9091180EAA
:1047B000A091190EB0911A0E8093750E9093760EFB
:1047C000A093770EB093780E80914C0E843009F050
:1047D00010C33F8D36FD04C38CE10BCF1093680EE0
:1047E00004E0102F8F8D98A1A9A1BAA1002E04C0BA
:1047F000B695A795979587950A94D2F780FF02C042
:104800000C942C3281E693E0A0E0B0E0002E04C0CE
:10481000B695A795979587950A94D2F780FF0DC016
:1048200020E030E0A9016A8D7B8D8C8D9D8D0E94EA
:10483000BB3D87FF02C00C942F3281E090E0A0E0E6
:10484000B0E004C0880F991FAA1FBB1F1A95D2F7AA
:104850002F8D38A149A15AA1282B392B4A2B5B2B2C
:104860002F8F38A349A35AA356CF812F90E0B0E0F1
:10487000A0E08093690E90936A0EA0936B0EB093A4
:104880006C0E05E0AECF80914C0E8E53843080F4D8
:10489000612F70E090E080E00E946D3E60936D0EAD
:1048A00070936E0E80936F0E9093700E06E099CF0A
:1048B00080926D0E90926E0EA0926F0EB092700E5E
:1048C000F5CF8092710E9092720EA092730EB092FC
:1048D000740E07E086CF8092750E9092760EA092AD
:1048E000770EB092780E08E07CCF83EE94E00E94C1
:1048F00068090E94450BD82E20E030E0A9016A8D9E
:104900007B8D8C8D9D8D0E94BB3D811106C08D2DB0
:104910008E7F0E942A0B089864CF8D2D81600E94A3
:104920002A0B089A5ECF87ED94E00E94680920E088
:1049300030E0A9016A8D7B8D8C8D9D8D0E94BB3DE1
:10494000811106C009988D2D8B7F0E942A0B49CFBB
:10495000099A8D2D8460F9CF88EC94E00E94680953
:104960008A8C9B8CAC8CBD8C20E030E040E85FE30F
:10497000C501B4010E94BB3D811105C081B194E025
:10498000892781B92ECF20E030E040E050E4C50116
:10499000B4010E94BB3D882389F391B124E09227A2
:1049A00091B987B1822787B91CCF89EB94E00E9427
:1049B000680920E030E0A9016A8D7B8D8C8D9D8D8A
:1049C0000E94BB3D91B128E0EACF8AEA94E00E94C0
:1049D000680920E030E0A9016A8D7B8D8C8D9D8D6A
:1049E0000E94BB3D91B120E1DACF8EE994E00E94B4
:1049F000680920E030E0A9016A8D7B8D8C8D9D8D4A
:104A00000E94BB3D91B120E2CACF82E994E00E94AE
:104A100068098A8C9B8CAC8CBD8C20E030E0A901AD
:104A2000C501B4010E94BB3D811103C091B120E4D6
:104A3000B6CF20E030E040E85FE3C501B4010E945A
:104A4000BB3D8111CECEF2CF85E894E00E9468098B
:104A50008A8C9B8CAC8CBD8C20E030E0A901C50118
:104A6000B4010E94BB3D811116C091B120E1922793
:104A700091B987B1822787B991B128E0922791B97E
:104A800087B1822787B991B124E0922791B987B184
:104A9000822787B9B7CF20E030E040E85FE3C50167
:104AA000B4010E94BB3D81119CCE91B124E09227BC
:104AB00091B987B1822787B988EC90E00E94FF0FF7
:104AC00091B128E0922791B987B1822787B988EC04
:104AD00090E00E94FF0F91B120E1922791B987B138
:104AE000822787B988EC90E00E94FF0F8BCF89E77F
:104AF00094E00E94680981B111E0812781B987B1F2
:104B0000812787B988EC90E00E94FF0F81B1E2E035
:104B1000FE2E8F2581B987B18F2587B988EC90E06B
:104B20000E94FF0F81B1F4E0EF2E8E2581B987B18D
:104B30008E2587B988EC90E00E94FF0F81B1A8E034
:104B4000CA2E8C2581B987B18C2587B988EC90E075
:104B50000E94FF0F81B1B0E1BB2E8B2581B987B1D7
:104B60008B2587B988EC90E00E94FF0F81B190E21D
:104B7000A92E8A2581B987B18A2587B988EC90E06A
:104B80000E94FF0F81B120E4922E892581B987B15F
:104B9000892587B988EC90E00E94FF0F81B18925B3
:104BA00081B987B1982697B888EC90E00E94FF0FF2
:104BB00081B18A2581B987B1A826A7B888EC90E091
:104BC0000E94FF0F81B18B2581B987B1B826B7B894
:104BD00088EC90E00E94FF0F81B18C2581B987B1EC
:104BE000C826C7B888EC90E00E94FF0F81B18E25DF
:104BF00081B987B1E826E7B888EC90E00E94FF0F02
:104C000081B18F2581B987B1F826F7B888EC90E09B
:104C10000E94FF0F81B1812781B987B1182717B989
:104C2000E0CD81B111E0812781B988EC90E00E944C
:104C3000FF0F81B122E0F22E8F2581B988EC90E040
:104C40000E94FF0F81B134E0E32E8E2581B988ECFC
:104C500090E00E94FF0F81B148E0C42E8C2581B9FD
:104C600088EC90E00E94FF0F81B150E1B52E8B25BA
:104C700081B988EC90E00E94FF0F81B160E2A62E1E
:104C80008A2581B988EC90E00E94FF0F81B170E421
:104C9000972E892581B988EC90E00E94FF0F87B19B
:104CA000982697B888EC90E00E94FF0F87B1A8265D
:104CB000A7B888EC90E00E94FF0F87B1B826B7B87C
:104CC00088EC90E00E94FF0F87B1C826C7B888EC37
:104CD00090E00E94FF0F87B1E826E7B888EC90E0EB
:104CE0000E94FF0F87B1F826F7B888EC90E00E9489
:104CF000FF0F93CF48E5F41219C081E794E00E94BA
:104D000068098A8D9B8DAC8DBD8D80937A0E9093B2
:104D10007B0EA0937C0EB0937D0E689440F80AE061
:104D200088EA8F0D833008F45CCDCCCB59E5F512C1
:104D300014C08AE694E00E9468098A8D9B8DAC8D30
:104D4000BD8D80937E0E90937F0EA093800EB093C6
:104D5000810E689441F80BE0E3CF8AE5F812E0CFCA
:104D600082E694E00E9468098A8D9B8DAC8DBD8D92
:104D70008093820E9093830EA093840EB093850E41
:104D8000689442F80CE0CCCF80914E0E813081F4D3
:104D900082E0281203CD80914D0E803509F4FECCBF
:104DA000882309F4FBCC9F8D90FDF8CC86E121CCC3
:104DB00080910D0E8111F2CCAF8DA0FDD5CC8091EC
:104DC0001B0E90911C0EA0911D0EB0911E0E809393
:104DD000580E9093590EA0935A0EB0935B0EDECCF2
:104DE0008F8D98A1A9A1BAA18F7B8F8F98A3A9A31A
:104DF000BAA38091510E882379F0813009F4DFC085
:104E000021E029AF34E038AF42E04FAB1EAE52E0B4
:104E10005BAB81E08BA70BC094E099AFA2E0A8AF99
:104E2000B1E0BFABE2E0EEAFF1E0FBAB1BA68091DF
:104E30004F0E8130B1F51CE4E12E1EE0F12E10E0A2
:104E400000E0CC24C394D12CC601002E02C0880FF0
:104E5000991F0A94E2F7092E000CAA0BBB0B8421C0
:104E60009521A621B721892B8A2B8B2B91F023E347
:104E700033E34BEC51E4D7019E966D917D918D917A
:104E80009C91D1970E941D40F70166A777A780AB40
:104E900091AB0F5F1F4FF4E0EF0EF11C03301105D3
:104EA00099F623E022120CC08091520E813041F419
:104EB00085E234E0431651046104710409F099CB92
:104EC0008CE0E0E3FEE0DE011E9601900D928A95F3
:104ED000E1F78FA598A9A9A9BAA991FD7CC09091E5
:104EE0004C0E9BA39A3009F48AC09C3509F445C145
:104EF00043E0241609F449C04114510461047104CB
:104F000009F443C05091500E5FA38091480E9091D8
:104F1000490EA0914A0EB0914B0E8AAF9BAFACAF39
:104F2000BDAF6CE0C62E6EE0D62E7CE4E72E7EE0B0
:104F3000F72E10E000E081E090E0002E02C0880F24
:104F4000991F0A94E2F7092E000CAA0BBB0B8421CF
:104F50009521A621B721892B8A2B8B2B09F086C19D
:104F6000F601808D918DA28DB38DF70186A797A74D
:104F7000A0ABB1AB0F5F1F4FF4E0CF0ED11C24E00C
:104F8000E20EF11C03301105B1F63BA13E3109F4EC
:104F9000BFC1353309F4F1C16CE57EE086E03C31F8
:104FA00009F057C10E948820882339F14114510427
:104FB0006104710409F0B0C100E0212CCAC092E084
:104FC00099AFA1E0A8AFB4E0BFABE1E0EEAF1BAAA0
:104FD000F2E0FBA72CCF8091530E873010F08DE1CB
:104FE00008CB9091120E891709F479CFBE01625F48
:104FF0007F4F0E948820811172CF87E0FACA411446
:1050000051046104710411F48AE1F3CA8F8D98A1EF
:10501000A9A1BAA180759927AA27BB27892B8A2B1A
:105020008B2B09F4D9CB60916D0E70916E0E80912F
:105030006F0E9091700E0E9400410E943E3E6730BC
:1050400070F68091680E843131F0823009F03ACAEE
:10505000AF8DA7FD37CA0FEF060F611102C0009197
:10506000530E6CE57EE0802F0E948820882329F271
:105070001091680E2091480E3091490E40914A0ED1
:1050800050914B0E2BA33CA34DA35EA3BCE4CB2EAF
:10509000BEE0DB2EF12CE12C81E090E00E2C02C072
:1050A000880F991F0A94E2F7092E000CAA0BBB0B7C
:1050B00084219521A621B721892B8A2B8B2BA9F13D
:1050C000D6019E968D909D90AD90BC90D197143155
:1050D00009F04CC0F701EE0FFF1FEE0FFF1FE45F5A
:1050E000F14F20A931A942A953A9608D718D828DFC
:1050F000938D0E94C53CA50194010E94C53CF60118
:10510000608B718B828B938BF2E0EF120EC02BA120
:105110003CA14DA15EA10E94C53C6093640E7093BA
:10512000650E8093660E9093670EBFEFEB1AFB0A35
:10513000E4E0CE0ED11CF3E0EF16F10409F0ACCFA1
:105140002F8D38A149A15AA12F7A2F8F38A349A3B7
:105150005AA310914D0E103509F016C14114510497
:105160006104710409F439C18FE143CA50968D92EC
:105170009D92AD92BC925397D8CF411451046104D3
:10518000710409F441CF8090480E9090490EA09090
:105190004A0EB0904B0EECE0CE2EEEE0DE2EAE01CD
:1051A000425F5F4F5CA34BA3FCE4EF2EFEE0FF2EBB
:1051B00010E000E081E090E0002E02C0880F991F0F
:1051C0000A94E2F7092E000CAA0BBB0B842195214F
:1051D000A621B721892B8A2B8B2BE9F1ABA1BCA18E
:1051E0002D913D914D915C91F601608D718D828D77
:1051F000938D0E94C53CD7019E962D913D914D9176
:105200005C91D1970E94C53CF70166A777A780AB58
:1052100091AB023061F4A50194010E94C53C6093FA
:10522000820E7093830E8093840E9093850E0F5F91
:105230001F4FF4E0CF0ED11C2BA13CA12C5F3F4FA0
:105240003CA32BA334E0E30EF11C0330110509F05D
:10525000B1CF00E07ECFF60180A991A9A2A9B3A9A0
:10526000F70186A797A7A0ABB1ABE1CFFBA1F533C0
:1052700009F480CED7019E968D909D90AD90BC9004
:10528000D197BFA1B11133C0F801EE0FFF1FEE0F90
:10529000FF1F2EE030E02C0F3D1FE20FF31FD60161
:1052A000D0962D913D914D915C91D3976081718104
:1052B000828193810E94C63CA50194010E94C63C54
:1052C000F70166A777A780AB91AB023009F052CE09
:1052D0002AAD3BAD4CAD5DAD0E94C63C6093820EE5
:1052E0007093830E8093840E9093850E43CEA50118
:1052F0009401D60158966D917D918D919C915B970B
:105300000E94C63CF70166A777A780AB91AB32CE6F
:105310006CE57EE087E046CE6CE07EE0ECE4FEE00B
:1053200030E020E041E050E0CA01022E02C0880FC8
:10533000991F0A94E2F7092E000CAA0BBB0B6C0113
:105340007D01C420D520E620F720CD28CE28CF2807
:1053500059F4DB015896CD90DD90ED90FC905B9771
:10536000C08AD18AE28AF38A2F5F3F4F6C5F7F4FFA
:10537000349623303105C1F66CCF80914D0E8230CA
:1053800008F467CF8EE135C9B2E02B1226C01111A7
:1053900007C04114510461047104F9F4212C1DC0AB
:1053A00020E030E0A9016091580E7091590E809173
:1053B0005A0E90915B0E0E94BB3D882309F4F6CCF7
:1053C0001C3809F49CC008F092C0123009F4B0C037
:1053D000133009F4AFC01130E1F2D0904C0E82ECE2
:1053E0008D0D8430A8F49F8D96FFF6C920E030E043
:1053F00040E450E460916D0E70916E0E80916F0EDE
:105400009091700E0E94DD3F181614F40C943B32FC
:10541000DE0111967D018DE0FD0111928A95E9F77B
:1054200030FE13C28FA598A9A9A9BAA9867B892B9A
:105430008A2B8B2B11F00C943E32F5E3DF1619F01A
:10544000D1100C943E328091170E9091180EA091BD
:10545000190EB0911A0E8D839E83AF83B887809109
:10546000150E9091140E892B4091580E5091590EA3
:1054700060915A0E70915B0E49835A836B837C83D3
:1054800084608D878091690E90916A0EA0916B0E59
:10549000B0916C0E89879A87AB87BC878091FC0D91
:1054A00085FF06C08AE79EE00E9475038111E9C767
:1054B000B7018AE79EE00E9447218091A40D8111E7
:1054C0000BC00E947705892B39F080E28093A40DF0
:1054D0000E94F7120E9402088CE0EAE7FEE0A4E2D4
:1054E000BEE001900D928A95E1F780E082C81E38F7
:1054F00031F018F01F3809F070CF689434F882E763
:10550000810F823010F4689433F84114510461041F
:10551000710409F479CD4CE050E06AE77EE084E262
:105520009EE00E948A41892B09F057CF81E261C831
:10553000689432F8411451046104710409F464CD93
:10554000EBA5CE2ED12CFBA9EF2EF12C21E030E0E3
:10555000C90102C0880F991FEA95E2F702C0220F25
:10556000331FFA95E2F7822B932B092E000CAA0B1E
:10557000BB0B84219521A621B721892B8A2B8B2B4C
:1055800009F473C72F8D83E227FF33C88F8D98A14D
:10559000A9A1BAA18F778F8F98A3A9A3BAA34CE032
:1055A00050E06AE77EE084E29EE00E948A41892B17
:1055B00009F4BCCFF601EE0FFF1FEE0FFF1FE45BF7
:1055C000F14F86A497A4A0A8B1A8F601EE0FFF1F83
:1055D000EE0FFF1FEC5DF14F20813181428153813D
:1055E0002BA33CA34DA35EA3F701EE0FFF1FEE0F0D
:1055F000FF1FE45BF14F86A597A5A0A9B1A98FA3D2
:1056000098A7A9A7BAA7F701EE0FFF1FEE0FFF1F7C
:10561000EC5DF14FC080D180E280F3806091710E2B
:105620007091720E8091730E9091740E20914F0EB6
:10563000213071F423E333E34BEC51E40E941D402D
:105640006093710E7093720E8093730E9093740E2C
:105650002BA13CA14DA15EA1C501B4010E94C53C96
:105660006BA37CA38DA39EA3A70196016FA178A530
:1056700089A59AA50E94C53C6FA378A789A79AA778
:105680008090710E9090720EA090730EB090740E78
:105690002BA13CA14DA15EA1CA01B9010E941D40F0
:1056A0006AAF7BAF8CAF9DAF2FA138A549A55AA596
:1056B000CA01B9010E941D4026966CAF7DAF8EAF26
:1056C0009FAF269720E030E040E850E4C501B401E8
:1056D0000E941D40A50194010E941D402AAD3BADD2
:1056E0004CAD5DAD0E94C53C26962CAD3DAD4EAD9A
:1056F0005FAD26970E94C53C6B017C0120E030E045
:10570000A9010E94BB3D87FDB3C6C701B6010E9437
:10571000BC406B017C0126962CAD3DAD4EAD5FAD1E
:1057200026976AAD7BAD8CAD9DAD0E94C63C0E94B4
:10573000BC409B01AC01C701B60190580E94C53D19
:105740006B017C01133021F4F7FAF094F7F8F09430
:1057500020E030E0A901C501B4010E94BB3D87FFF4
:105760000FC0F7FAF094F7F8F094D501C401B058DF
:105770008093710E9093720EA093730EB093740E7B
:10578000A70196016FA178A589A59AA50E941D4041
:105790009B01AC016BA17CA18DA19EA10E94C53C87
:1057A00020E030E040E05FE30E941D404B015C01DF
:1057B000A70196016BA17CA18DA19EA10E941D4015
:1057C0002FA138A549A55AA50E94C63C20E030E08B
:1057D00040E05FE30E941D402091510E222399F08A
:1057E000213011F18092600E9092610EA092620EB3
:1057F000B092630E6093640E7093650E8093660E94
:105800009093670EEACD80925C0E90925D0EA0920E
:105810005E0EB0925F0E6093600E7093610E809387
:10582000620E9093630ED9CD8092640E9092650EB5
:10583000A092660EB092670E60935C0E70935D0E40
:1058400080935E0E90935F0EC8CD8091FC0DD0903A
:10585000150E81FF0FC01150133010F0689436F808
:1058600045284628472809F47EC122E022127BC140
:10587000689437F88091690E90916A0EA0916B0E32
:10588000B0916C0E8093200E9093210EA093220E67
:10589000B093230E89879A87AB87BC8780914E0E81
:1058A00080930D0E882311F088E08D878091580E2B
:1058B0009091590EA0915A0EB0915B0E80931B0EE1
:1058C00090931C0EA0931D0EB0931E0E89839A8395
:1058D000AB83BC838090750E9090760EA090770E6F
:1058E000B090780EA50194016091170E7091180E7A
:1058F0008091190E90911A0E0E94BB3D132D1074C9
:10590000811102C035FE1EC0DD2061F037FC0AC0E7
:1059100040E050E0BA01111102C0B501A4018D2D83
:105920000E9413218091750E9091760EA091770EB2
:10593000B091780E8093170E9093180EA093190EC5
:10594000B0931A0E11110CC08091170E9091180E81
:10595000A091190EB0911A0E8D839E83AF83B887E4
:105960008091790E80931F0E8091560E9091150EA6
:10597000981751F04D815E816F8178850E941321C7
:105980008091560E8093150E8D859091150E892B62
:105990008D871091550E8091140E811769F08091BA
:1059A000A40D823029F00E943A20812F0E94020B20
:1059B0008091550E8093140E8D859091140E892B35
:1059C0008D8780914C0E843099F48091A40D8230A3
:1059D00079F080906D0E90906E0EA0906F0EB0904A
:1059E000700E0E943A2040E0C501B4010E940C20D4
:1059F0008091510E8093100E80914F0E80930E0E69
:105A000043E024122EC08091520E8093110E81111A
:105A100008C01092820E1092830E1092840E109283
:105A2000850E8090820E9090830EA090840EB09090
:105A3000850EA50194016091480E7091490E8091E8
:105A40004A0E90914B0E0E94BB3D882351F08092EC
:105A5000480E9092490EA0924A0EB0924B0E0E94B0
:105A60006F208091530E9091120E981769F08093D9
:105A7000120E8CE0FE013E96A0E3BEE001900D9276
:105A80008A95E1F70E946F208091500E80930F0E4F
:105A900080914C0E863209F4B4C008F077C08C3186
:105AA00009F496C08E3109F493C08A3009F47BC0A2
:105AB00080914D0E80930C0E8035B1F0B2E02B1228
:105AC00013C0813009F0B1C0BE016F5F7F4F8AE71C
:105AD0009EE00E9447218CE0EAE7FEE0A4E2BEE0FF
