:100000000C9459020C947A020C947A020C947A02A1
:100010000C947A020C947A020C947A020C947A0270
:100020000C947A020C947A020C947A020C94902923
:100030000C947A020C947A020C947A020C947A0250
:100040000C947A020C94032A0C947A020C947A028F
:100050000C947A020C947A020C947A020C94D229B1
:100060000C947A020C947F2C0C942F2D0C947A0211
:100070000C947A020C947A020C947A020C947A0210
:100080000C947A020C947A020C947A020C947F29D4
:100090000C947A020C947A020C947A020C947A02F0
:1000A0000C947A020C947A020C947A020C947A02E0
:1000B0000C947A020C947A020C947A020C947A02D0
:1000C0000C947A020C947A020C947A020C947A02C0
:1000D0000C947A020C947A020C947A020C947A02B0
:1000E0000C947A02084AD73B3BCE016E84BCBFFD1C
:1000F000C12F3D6C74319ABD56833DDA3D00C77FF8
:1001000011BED9E4BB4C3E916BAAAABE0000008090
:100110003F000C9457200C94CF330C9468330C940C
:100120009B200C9426330C942D200C94152D0C94AC
:10013000FF2C0C9449200C940D2D0C94052D0C943F
:100140001E330C94AC330C9433330C9453330C9413
:100150000F2D0C94072D0C94032D0C94D22C0C9481
:100160003B200C94172D0C94B5330C94012D0C945A
:10017000D8330C944A330C94FB2C0C94132D0C9410
:10018000092D0C94A3330C94861F0C94F72C0C941B
:100190000E200C945C330C94BB330C94A0330C9461
:1001A00098330C94192D0C9418330C943B330C9405
:1001B00011200C9472330C9447330C94791F0C94D7
:1001C0001F200C9429330C94C4330C94FD2C0C94F4
:1001D000DE2F0C94EB2C0C94112D0C9496200C9487
:1001E00021330C94E92C0D0A3D3E20447261672DA9
:1001F0004C6F6767657220312E322D4F5A205B2776
:10020000242720666F722068656C705D0D0A0024DB
:100210004E005B4F50543A003A005B4158533A004D
:100220005B5645523A312E322D4F5A2E31312D31F7
:10023000312D323032353A005B544C4F3A005B4737
:1002400039323A003330003238005B47005B4C6192
:100250006D70753A005B53656E736F723A0020479C
:1002600000204D0020530020460020540033382E3B
:10027000005B47433A47005B484C503A2424202413
:100280002320244420244720244920244E2024785D
:100290003D76616C20244E783D6C696E6520244A61
:1002A0003D6C696E652024534C5020244320245813
:1002B000202448207E2021203F206374726C2D78FA
:1002C0005D0D0A00414C41524D3A000D0A006F6B22
:1002D0000D0A005B5052423A005B58585858585D1E
:1002E0003A007C4F5A6C616D70753A007C537461B2
:1002F00072743A007C53746172744D657261683A2D
:10030000007C53746172744C616D70753A007C535B
:10031000746167654C616D70753A007C46696E6901
:10032000736853656E736F723A007C36306674532F
:10033000656E736F723A007C537461676553656EC6
:10034000736F723A007C42663A00536C65657000C8
:10035000446F6F723A00436865636B00416C617271
:100360006D00486F6D65004A6F6700486F6C643AB6
:10037000004379636C650049646C65006572726F57
:10038000723A00536C656570696E670052657374EC
:100390006F72696E67207370696E646C6500526578
:1003A00073746F72696E672064656661756C7473CF
:1003B0000050676D20456E6400436865636B204C98
:1003C000696D69747300436865636B20446F6F7275
:1003D0000044697361626C656400456E61626C65BE
:1003E000640043617574696F6E3A20556E6C6F637B
:1003F0006B656400272448277C2724582720746FC6
:1004000020756E6C6F636B00526573657420746F3A
:1004100020636F6E74696E7565005B4D53473A00DB
:100420005A5A5A5A5A5A5A005959595959590058E8
:10043000585858585858005B475D204D4552414820
:100440000D0A005B515D20474F4F4F4F4F0D0A0083
:100450005B475D204D455241480D0A005B465D20DB
:1004600048494A41550D0A005B455D204B554E49B0
:100470004E4720330D0A005B445D204B554E494EDC
:100480004720320D0A005B435D204B554E494E47D5
:1004900020310D0A005B425D2053544147450D0A4F
:1004A000005B415D205052452D53544147450D0A94
:1004B000000011241FBECFEFD1E2DEBFCDBF00E0B0
:1004C0000CBF12E0A0E0B2E0EEE0F1E700E00BBF0D
:1004D00002C007900D92AC30B107D9F72FE0ACE025
:1004E000B2E001C01D92AA38B207E1F70E945A2D6E
:1004F0000C9485380C9400008F929F92AF92BF921B
:10050000CF92DF92EF92FF920F931F93CF93DF93DF
:100510007C016B01DC01EC91F0E0E657F14F80814A
:10052000EF018D3229F52296818101E0912CF0E0D6
:1005300010E020E030E0A9015E01E0EDE80FEA30D4
:1005400018F5FF5FF930E0F491101150A5E0B0E02C
:100550000E945E389B01AC01220F331F441F551FC0
:100560002E0F311D411D511D2196D5018C91E4CFD7
:100570008B3219F0219600E0D9CF22968181FBCFF2
:100580009110F2CF1F5FF0CFEE3F29F4911003C01E
:1005900099249394E9CFFF23F9F0CA01B9010E948D
:1005A000EE354B015C0120E030E0A9010E944135AD
:1005B00081112BC0002309F445C0B7FAB094B7F8F5
:1005C000B094F60180829182A282B382CA58DE4042
:1005D000C150F701C083F1E08F2FDF91CF911F91C0
:1005E0000F91FF90EF90DF90CF90BF90AF909F90D2
:1005F0008F9008952AE037ED43E25CE3C501B40132
:100600000E945F374B015C011E5F1F3F9CF31F3F41
:1006100059F42DEC3CEC4CEC5DE3C501B4010E94B7
:100620005F374B015C01C6CF112321F220E030E09F
:1006300040E251E4C501B4010E945F374B015C0107
:100640001150F2CFD6018D929D92AD92BC9213972C
:10065000BDCF2FB7F8949091880D892B8093880D8A
:100660002FBF08952FB7F8949091870D892B809311
:10067000870D2FBF08959FB7F8948093860D9FBF75
:1006800008959FB7F8942091850D809582238093DB
:10069000850D9FBF08952FB7F8949091850D892BF4
:1006A0008093850D2FBF08954F925F926F927F9236
:1006B000AF92BF92CF92DF92EF92FF920F931F9370
:1006C000CF93DF930FED1DE0EC015C018CE0A80EF1
:1006D000B11CF801C190D190E190F1908F0120E020
:1006E00030E0A901C701B6010E9441358823A9F075
:1006F000488059806A807B8020E030E0A901C301F6
:10070000B2010E941F371816E4F0A3019201C7013D
:10071000B6010E941F371816A4F02496CA15DB05EF
:10072000C1F680E0DF91CF911F910F91FF90EF9084
:10073000DF90CF90BF90AF907F906F905F904F9081
:10074000089581E0EFCF8F929F92AF92BF92CF92A8
:10075000DF92EF92FF920F931F93CF93DF93EB0102
:100760002BEBE22E2DE0F22E8C016B018CE0C80EFB
:10077000D11C6991799189919991F701819091901A
:10078000A190B1907F010E94F035A50194010E94D3
:100790004635F80161937193819391938F01CC1544
:1007A000DD0539F7DF91CF911F910F91FF90EF9009
:1007B000DF90CF90BF90AF909F908F9008959091D1
:1007C0000601892F8E7159F094FB882780F921E06A
:1007D000822791FF826092FF846093FF8860089572
:1007E0006F927F928F929F92AF92BF92CF92DF9241
:1007F000EF92FF920F931F93CF93DF93EB018C0146
:100800005B018CE0A80EB11C89E9682E96E7792E71
:1008100026E9822E3EE7932EC990D990E990F9906F
:1008200020E030E0A901C701B6010E9441358823CC
:10083000B9F0A7019601F8016081718182819381ED
:100840000E9446356B017C01E894F7F89301A401FE
:10085000C701B6010E941F37181614F03601470170
:100860000C5F1F4FCA15DB05B9F6B301C401DF9158
:10087000CF911F910F91FF90EF90DF90CF90BF909D
:10088000AF909F908F907F906F900895E1E6FDE08C
:10089000ABE8BDE04D915D916D917C9113974083E4
:1008A00051836283738314964D915D916D917C9118
:1008B0001797448355836683778318968D919D910E
:1008C0000D90BC91A02D80879187A287B387089552
:1008D000BF92CF92DF92EF92FF920F931F93CF932D
:1008E000DF937C01FC0100A911A9D2A9C3A98389C6
:1008F00080FF33C06091AE0D70E090E080E00E9418
:10090000F0352AE037ED43E25CE30E945F379B015C
:10091000AC01B8018D2F9C2F0E945F378B01D82F1F
:10092000C92F20E030E040E85FE3B8018D2F9C2F15
:100930000E941F37181624F000E010E0D0E8CFE343
:10094000B8018D2F9C2FDF91CF911F910F91FF90B8
:10095000EF90DF90CF90BF90089582FD17C0609117
:10096000AD0D70E090E080E00E94F0352AE037EDB8
:1009700043E25CE30E945F379B01AC01B8018D2F1D
:100980009C2F0E945F378B01D82FC92FF701B4A489
:10099000C5A4D6A4F7A498014D2F5C2F6B2D7C2DF8
:1009A0008D2D9F2D0E94413587FFBBCF0B2D1C2D18
:1009B000DD2DCF2DB6CF8091810D9091820D9817AE
:1009C00039F028E3829FC00111248F579A4F089570
:1009D00090E080E00895F894F999FECF92BD81BD32
:1009E00081E08FBB20B5862F8227082E000C990B43
:1009F00050E086239523892B49F084E16F3F11F065
:100A000060BD84E08FBBF99A789408952617E1F3CE
:100A100060BD84E2F7CF9F92AF92BF92CF92DF92F8
:100A2000EF92FF920F931F93CF93DF935C018A01A4
:100A30007B01E40EF51EEB01912C6C01C61AD70A5E
:100A4000CE018C0D9D1D21E0911007C0292D990C20
:100A5000330B232F221F2227221F6991962E920EDD
:100A60000E94EB04CE15DF0559F7692DC501800FF3
:100A7000911FDF91CF911F910F91FF90EF90DF9029
:100A8000CF90BF90AF909F900C94EB046AE090E001
:100A900080E00E94EB0449E550E067EB7DE081E0F7
:100AA00090E00C940B05F999FECF92BD81BD81E0D9
:100AB0008FBB80B508959F92AF92BF92CF92DF9285
:100AC000EF92FF920F931F93CF93DF935B018A0105
:100AD0007C01E40EF51EEC01912C6B01C81AD90AB9
:100AE000C6018C0F9D1F0E94530521E0911007C085
:100AF000292D990C330B232F221F2227221F982EDA
:100B0000920E8993CE15DF0559F7C501800F911F0D
:100B10000E94530521E030E0891511F030E020E01B
:100B2000C901DF91CF911F910F91FF90EF90DF905E
:100B3000CF90BF90AF909F900895CF93DF93C091D7
:100B40007D05D0917E052097C9F080914D0581608B
:100B500080934D05609163057091640580916505F2
:100B6000909166059B01AC010E945F37688F798F79
:100B70008A8F9B8F10927E0510927D05DF91CF9119
:100B800008952F923F924F925F926F927F928F9231
:100B90009F92AF92BF92CF92DF92EF92FF920F930C
:100BA0001F93CF93DF9300D01F92CDB7DEB7009194
:100BB000820D002309F486C00983398131503983BD
:100BC00010917F05131709F466C0C32ED12CE8E3FA
:100BD0003E9FC00111249C012F573A4F7901F90122
:100BE000748C858C968CA78C60A171A182A193A135
:100BF0009B01AC010E944C34F70124A135A146A110
:100C000057A10E945F37B62EE72EF82E9B83262F22
:100C1000372F482F592F672D782D892D9A2D0E9417
:100C2000413587FF03C0B72C7401AB8288E38C9DEC
:100C3000F0018D9DF00D1124EF57FA4F8B2D9E2D55
:100C4000AF2DBB81808F918FA28FB38FF9818F2FB2
:100C5000F11101C084E2FF24FA94F80E3090810D66
:100C60001F1133C0131102C00E949D05E8E31E9FAF
:100C7000C00111248F579A4F9A8389833324339468
:100C8000310EF4E23F1201C0312C88E3282E03110B
:100C900085C010937F050F900F900F900F90DF91FC
:100CA000CF911F910F91FF90EF90DF90CF90BF9069
:100CB000AF909F908F907F906F905F904F903F90FC
:100CC0002F90089524E2298378CF298188E3289FF3
:100CD000900111242F573A4F3C832B8328E3E22EB7
:100CE0008F2C912CFE9CC0011124FC01EF57FA4F70
:100CF000FA83E983F11002C094E2F92EFA94F3101A
:100D000002C00E949D05E89CC001E99C900D112441
:100D10009C012F573A4F6901F901448C558C668C20
:100D2000778CA3019201608D718D828D938D0E94CD
:100D30004135882339F1F60160A171A182A193A107
:100D40009B01AC010E944C34F60124A135A146A1BF
:100D500057A10E945F37EB81FC81208D318D428D40
:100D6000538D0E944C344B015C01AC019B01C301CB
:100D7000B2010E941F37F60118165CF4808E918E26
:100D8000A28EB38E29813A813C832B831F11A8CF79
:100D90006DCF408E518E628E738EF4CFC32CD12CCA
:100DA000329CC00111249C012F573A4F7901E981EF
:100DB000FA81408C518C628C738CF901808C918CFF
:100DC000A28CB38CA5019401C301B2010E944135EC
:100DD00087FF26C0E981FA8160A171A182A193A158
:100DE0009B01AC010E944C34E981FA8124A135A118
:100DF00046A157A10E945F37A30192010E944C3483
:100E00002B013C01AC019B01C501B4010E941F37BD
:100E1000181634F4F701408E518E628E738E132DA6
:100E20002C9CF0012D9CF00D1124EF57FA4F248DCE
:100E3000358D468D578D608D718D828D938D0E947D
:100E40004135811101C0132D3394F4E23F1201C0EA
:100E5000312CFA82E9821BCFCF93DF932091EC0DE6
:100E600030E04091ED0D50E0A8E1B4E0E5E1F4E0C0
:100E700090E080E0682FE901082E02C0D595C79563
:100E80000A94E2F7C0FF1DC0882319F078E0813092
:100E900009F470E47083EA0102C0D595C7956A959C
:100EA000E2F7C0FF10C062E0813009F460E86C93A3
:100EB00001961196319683309105E1F6DF91CF913D
:100EC00008951082E8CF1C92F3CF8091000E82FF2C
:100ED00025C05F9A80910801846080930801809109
:100EE00008018160809308018091150480932A0491
:100EF0008091160480932B048091170480932C0416
:100F00008091EB0D8250990B880F81958093290475
:100F100080916F00826080936F0008955F98809148
:100F200008018B7F80930801809108018E7FDACFC2
:100F30000E94DB04892B19F082E00C944B03089586
:100F4000E091130291E09E0F20911403291761F0A4
:100F5000F0E0EC5EFD4F8083909313028091C1001E
:100F600080628093C10004C02091850D24FFECCFE6
:100F70000895CF93DF93CAE8DEE08991811103C021
:100F8000DF91CF9108950E94A007F7CFCF93C82F8C
:100F900081E3C0FF80E30E94A00781E3C1FF80E3FB
:100FA0000E94A00781E3C2FF80E30E94A00781E3C3
:100FB000C3FF80E3CF910C94A0078F929F92AF92D2
:100FC000BF92CF92DF92EF92FF920F931F93CF9336
:100FD000DF93CDB7DEB72D970FB6F894DEBF0FBE07
:100FE000CDBF6B017C01042F20E030E0A9010E94FD
:100FF000413587FF07C08DE20E94A007F7FAF09401
:10100000F7F8F094102F123008F054C000FF0AC017
:1010100020E030E040E251E4C701B6010E945F37B2
:101020006B017C0120E030E040E05FE3C701B601E6
:101030000E944C340E94B83510E03AE0832E912C87
:10104000A12CB12CE12FF0E061157105810591050E
:10105000E9F581E090E08C0F9D1FE80FF91F80E318
:10106000101708F445C0101309C0E1E0F0E0EC0FE0
:10107000FD1FE10FF11D80E380831F5FEE24E394E9
:10108000F12CEC0EFD1EE10EF11C111134C02D9659
:101090000FB6F894DEBF0FBECDBFDF91CF911F9189
:1010A0000F91FF90EF90DF90CF90BF90AF909F9007
:1010B0008F90089520E030E048EC52E4C701B6017B
:1010C0000E945F376B017C0112509DCFEE24E394A8
:1010D000F12CEC0EFD1EEE0EFF1EA50194010E94E8
:1010E0003438605DF7016083B901CA011F5FAACF80
:1010F0001F5F8193B5CF101303C08EE20E94A0073B
:10110000F70182917F010E94A0071150BECF20916C
:10111000000E43E020FF07C02BE832E441E25DE32C
:101120000E945F3744E00C94DD070F931F93CF9329
:101130008C01C0E0F80161917191819191918F01D1
:101140000E948708C23019F08CE20E94A007CF5F8E
:10115000C33081F7CF911F910F910895CF93DF9303
:10116000843658F06AE00E942838C0E3C90F6AE06C
:101170000E942838D0E3D90F04C0C0E0D0E08A3004
:10118000B0F7805D0E94A007DD2319F08D2F0E942B
:10119000A007CC2329F08C2FDF91CF910C94A007CE
:1011A000DF91CF910895CF93DF93EC01FE018491FD
:1011B0002196811103C0DF91CF9108950E94A0076D
:1011C000F5CF8BEC92E00C94D308CF93C82F8CE72B
:1011D00093E00E94D3088C2F0E94AE08CF910C940C
:1011E000E108811104C08EEC92E00C94D3080C94B9
:1011F000E508CF92DF92EF92FF9281E08093800D1D
:10120000C090B70DD090B80DE090B90DF090BA0D28
:1012100084E20E94A00780E00E94AE088DE30E9455
:10122000A00740E0C701B6010E94DD07FF90EF90E4
:10123000DF90CF900C94E1088DE50E94A0070C94FC
:10124000E108CF93DF93CDB7DEB72C970FB6F894B4
:10125000DEBF0FBECDBF83ED92E00E94D30867E9E9
:101260007DE0CE0101960E94A303CE0101960E946B
:1012700095088AE30E94A0078091A90D0E94AE08FC
:101280000E941C092C960FB6F894DEBF0FBECDBF8E
:10129000DF91CF9108959091A50D91110CC086FF1B
:1012A0000BC02C9A87FF0AC0809102018064809352
:1012B00002011092B10D08952C98F4CF8091020193
:1012C0008F7BF5CF2C98E2E0F1E080818F7B8083EB
:1012D00008959091A50D91110EC080FF0DC010983A
:1012E00081FF0CC0409882FF0BC0119883FF0AC099
:1012F00041981092B10D0895109AF2CF409AF3CF11
:10130000119AF4CF419AF5CF9091A50D911108C093
:1013100080FF07C0159881FF06C045981092B10D57
:101320000895159AF8CF459AF9CF9091A50D91118E
:1013300008C080FF07C0149881FF06C0449810922F
:10134000B10D0895149AF8CF449AF9CF9091A50D54
:10135000911108C080FF07C0139881FF06C0439811
:101360001092B10D0895139AF8CF439AF9CF909146
:10137000A50D911108C080FF07C0129881FF06C01B
:1013800042981092B10D0895129AF8CF429AF9CF6F
:101390009091A50D911108C080FF07C0169881FF9C
:1013A00006C046981092B10D0895169AF8CF469A45
:1013B000F9CF8091090181709091090191FD8260BE
:1013C0009091090192FD84609091090193FD8860DC
:1013D00008959093AD008093AC00892B31F48091F7
:1013E000A000877F8093A00008958091A00088606E
:1013F000F9CFE0EAF0E08081877F8083A5980895A7
:10140000E0EAF0E08081877F80839D9A83E080839B
:101410008AE18093A10080E094E09093A9008093FA
:10142000A8009D9A6B9A2091FC0D3091FD0D409182
:10143000FE0D5091FF0D6091F80D7091F90D8091A6
:10144000FA0D9091FB0D0E944B349B01AC0160E0C2
:1014500070EC8FE794E40E94463560930F0270931E
:10146000100280931102909312020C94F909E1E6A4
:10147000FDE08CE1DF011D928A95E9F71092810D64
:101480001092820D81E08093800510927F0508956F
:101490004F925F926F927F928F929F92AF92BF9284
:1014A000CF92DF92EF92FF920F931F93CF93DF9330
:1014B000EC018DE7E82E8DE0F82E6E01812C912C49
:1014C000540110E0EDE7FDE080E007C02191D70175
:1014D0009C91291709F464C08F5F8113F7CF00E056
:1014E000F60141905190619071906F0120E030E0E1
:1014F000A901C301B2010E944135882381F0011185
:101500000EC0A3019201C301B2010E945F379B018B
:10151000AC01C501B4010E944C344B015C011F5F5A
:10152000FFEFEF1AFF0A133069F6C501B4010E94FC
:10153000D2376B017C01AC019B0160E070E080E878
:101540009FE30E9446352B013C018E01045F1F4F33
:1015500069917991899199915E0124E0A21AB1086B
:10156000A30192010E945F37D5016D937D938D9306
:101570009C931397C017D10759F7C701B601DF91A4
:10158000CF911F910F91FF90EF90DF90CF90BF9080
:10159000AF909F908F907F906F905F904F90089545
:1015A00001E09ECF4F925F926F927F928F929F92B7
:1015B000AF92BF92CF92DF92EF92FF926B017C01CC
:1015C0008090FC0D9090FD0DA090FE0DB090FF0D51
:1015D0004090F80D5090F90D6090FA0D7090FB0D51
:1015E000A3019201C501B4010E941F3787FF1BC0F0
:1015F0006091AF0D70E090E080E00E94F0352AE04D
:1016000037ED43E25CE30E945F37A70196010E9439
:101610005F376B017C01AC019B01C301B2010E94E9
:1016200041351816BCF04092B30D5092B40D609243
:10163000B50D7092B60D80E094E0FF90EF90DF90D2
:10164000CF90BF90AF909F908F907F906F905F9062
:101650004F900895A7019601C501B4010E941F375C
:1016600087FD1FC020E030E0A901C701B6010E943C
:10167000413581110BC01092B30D1092B40D109230
:10168000B50D1092B60D90E080E0D7CF8092B30DEB
:101690009092B40DA092B50DB092B60D81E090E09D
:1016A000CCCFC092B30DD092B40DE092B50DF092B4
:1016B000B60DA5019401C701B6010E944B342091DB
:1016C0000F023091100240911102509112020E94BB
:1016D0005F370E942B3620E030E040E85FE30E9455
:1016E0004C340E94BF35CB01A8CF9091A50D91112C
:1016F0000EC081110DC01092B30D1092B40D109256
:10170000B50D1092B60D0E94F9091092B10D089511
:10171000803191F473989091000E91FF05C0803252
:1017200019F440E050E0BA01CB01BA010E94D20A9C
:101730000E94E909A59AE9CF739AEDCF019708F4C1
:101740000895EFE9FFE03197F1F700C00000F6CF10
:101750004F925F926F927F929F92AF92BF92CF9281
:10176000DF92EF92FF920F931F93CF93DF93CDB74A
:10177000DEB7A4970FB6F894DEBF0FBECDBF8CE0E6
:10178000EBE8FDE0DE01119601900D928A95E1F7FC
:10179000BE016F5F7F4FCE010D960E94A3038CE3C5
:1017A0000E94A0078091A40D883009F426C108F09A
:1017B00001C1813009F42AC108F41AC1823009F448
:1017C00028C1843009F41FC1E090EF0D2E2D217047
:1017D000922EE0FE04C08091B20D81114BC040906A
:1017E0004C0E50904D0E60904E0E70904F0E84E354
:1017F000A82E8EE0B82E6E0189E1C80ED11C8E0194
:10180000035F1F4FF12CF5016191719181919191CD
:101810005F0120853185428553850E944C34F60155
:1018200061937193819391936F01F2E0FF1206C16E
:10183000A30192010E944C3469A37AA38BA39CA3B9
:10184000911018C0F6013497208131814281538173
:10185000F80160817181828193810E944B34F8018B
:101860006083718382839383F3940C5F1F4FF3E053
:10187000FF12C9CFE1FE20C085E493E00E94D308A7
:101880009091820D8091810D981708F4DBC08D5DD9
:10189000891B0E94AE088CE20E94A0078091840DF3
:1018A0009091830D981708F4CFC09091830D981BE9
:1018B000892F80950E94AE080E94D909182F80E0D8
:1018C0001123C9F087E393E00E94D30881E310FF5E
:1018D00080E30E94A00781E311FF80E30E94A0073C
:1018E00081E312FF80E30E94A00781E313FF80E3FE
:1018F0000E94A007812F0E9469098091090111E0CF
:10190000982F907486FF10E080910901126084FD89
:1019100003C0992379F011E08AE293E00E94D30892
:1019200081E310FF80E30E94A00781E311FF80E3C1
:101930000E94A0078091090111E0982F907285FF05
:1019400010E080910901126087FD03C0992379F0AE
:1019500011E08BE193E00E94D30881E310FF80E364
:101960000E94A00781E311FF80E30E94A00712B14B
:1019700010951170409B1260119B1460419969C0D1
:1019800018608EE093E00E94D30881E310FF80E3AB
:101990000E94A00781E311FF80E30E94A00781E37A
:1019A00012FF80E30E94A00781E313FF80E30E94FF
:1019B000A00751C0803221F198F4803109F004CFA2
:1019C0008091A60D87FD1CC08BE693E00E94D30892
:1019D0008091A60D80FF2EC080E30E94A007F4CE68
:1019E0008034D1F0803809F0EFCE8AE493E002C071
:1019F00087E793E00E94D308E7CE81E793E0FACF30
:101A000087E693E0F7CF82E693E0F4CF8CE593E0AE
:101A1000F1CF86E593E0EECF80E593E00E94D30816
:101A20008091A60D83FF02C083E3D7CF82FF04C05D
:101A300085FFD2CF81E3D1CF82E3CFCF992009F4C4
:101A400001CF12CF815024CF9091830D8150891BFB
:101A500031CF111196CFD2B0D2FADD24D0F881E087
:101A6000D826429902C06894D1F8E2B0E3FAEE2495
:101A7000E0F881E0E826439902C06894E1F8F2B00A
:101A8000F4FAFF24F0F881E0F826449902C0689443
:101A9000F1F802B105FB002700F981E00827459B1A
:101AA00002608E2D8D298F29802BA1F181E093E09A
:101AB0000E94D30881E3D0FE80E30E94A0078D2D11
:101AC000827009F441C181E30E94A00781E3E0FE36
:101AD00080E30E94A0078E2D827009F437C181E354
:101AE0000E94A00781E3F0FE80E30E94A0078F2DF3
:101AF000827009F42DC181E30E94A00781E300FFF9
:101B000080E30E94A007802F827009F423C181E343
:101B10000E94A00792B181E0292F207496FD80E0F9
:101B200046991AC1C82E6894C1F884EF92E00E94C9
:101B3000D30881E3C0FE80E30E94A00781E3C1FED9
:101B400080E30E94A0078091060180FD8DC08CEE8D
:101B500092E00E94D30881E30E94A00780E00E94E7
:101B6000B70980E00E94A60980E00E94950980E004
:101B70000E9484090E94D909B82E89ED92E00E9442
:101B8000D3088B2D0E94AE082FE0B212EBC083E089
:101B90000E94B7096091B70D7091B80D8091B90D91
:101BA0009091BA0D0E94BF35CB010E949E0B83E03D
:101BB0000E94A6096091B70D7091B80D8091B90D82
:101BC0009091BA0D0E94BF35CB010E949E0B83E01D
:101BD0000E9495096091B70D7091B80D8091B90D73
:101BE0009091BA0D0E94BF35CB010E949E0B83E0FD
:101BF0000E94840986EF8B0D823018F0EEE0BE1251
:101C000033C082E00E94B7096091B70D7091B80DA2
:101C10008091B90D9091BA0D0E94BF35CB010E9401
:101C20009E0B82E00E94A6096091B70D7091B80DDD
:101C30008091B90D9091BA0D0E94BF35CB010E94E1
:101C40009E0B82E00E9495096091B70D7091B80DCE
:101C50008091B90D9091BA0D0E94BF35CB010E94C1
:101C60009E0B82E00E9484098D2D812B8E298F2965
:101C7000802B8C2909F44DC082EE92E00E94D3089B
:101C800010FF03C081E40E94A00712FF03C082E49A
:101C90000E94A007D0FE03C083E40E94A007E0FEDC
:101CA00003C084E40E94A007F0FE03C085E40E9404
:101CB000A00700FF03C086E40E94A007C0FE03C087
:101CC00087E40E94A00711FF03C088E40E94A007D8
:101CD00013FF03C089E40E94A0078D2D827019F0C4
:101CE0008AE40E94A0078E2D827019F08BE40E9476
:101CF000A0078F2D827019F08CE40E94A00702705B
:101D000019F08DE40E94A007C1FE03C08EE40E947A
:101D1000A0078EE30E94A0070E94E108A4960FB6D8
:101D2000F894DEBF0FBECDBFDF91CF911F910F9111
:101D3000FF90EF90DF90CF90BF90AF909F907F90FB
:101D40006F905F904F90089580E3BECE80E3C8CE41
:101D500080E3D2CE80E3DCCEC12C2111F4CECC24A2
:101D6000C394E3CE8B2D8D7F853019F08DE0B812B2
:101D700041CF81E00E94B7096091B70D7091B80D15
:101D80008091B90D9091BA0D0E94BF35CB010E9490
:101D90009E0B81E00E94A6096091B70D7091B80D6D
:101DA0008091B90D9091BA0D0E94BF35CB010E9470
:101DB0009E0B81E00E9495096091B70D7091B80D5E
:101DC0008091B90D9091BA0D0E94BF35CB010E9450
:101DD0009E0B81E00DCF80916F008D7F80936F000F
:101DE00080918100887F81608093810010921B0424
:101DF0008091EE0D9091A40D8F3FF1F42091860D0E
:101E000021111AC09038D1F490E00E949E0B81E01D
:101E10009091000E92FF02C091E08927882381F003
:101E20005F9A809108018460809308018091080185
:101E30008160809308010895943031F780E0E8CF05
:101E40005F98809108018B7F809308018091080141
:101E50008E7FEFCF0F931F93CF93DF930E94EB0EF4
:101E6000ECE4F5E081E3DF011D928A95E9F70CE1EE
:101E700014E087E2F80111928A95E9F710927E0545
:101E800010927D05109243041092950481E0809396
:101E9000440410921B040E942C07C8E1D4E08881FE
:101EA000D80151968C935197898152968C93529771
:101EB0003A8153963C93E8E0F1E020812F7BA5E145
:101EC000B4E09C91292B208320812D7F9881292BA0
:101ED000208320812F7B11969C911197292B2083A1
:101EE00090819F77982B90839081977F12968C9109
:101EF000982B908380818D7F832B8083DF91CF917E
:101F00001F910F9108958091850D84FD1DC080E182
:101F10000E944B030E94F9090E9462099091A40D4E
:101F2000892F8C7221F48091A80D867069F094300D
:101F300049F48091860D811103C086E00E943B0325
:101F40000C94EB0E83E0FACF08952F923F924F92BC
:101F50005F926F927F928F929F92AF92BF92CF9239
:101F6000DF92EF92FF920F931F93CF93DF93CDB742
:101F7000DEB7EB970FB6F894DEBF0FBECDBF8091F2
:101F8000A80D80FD4AC290914304809144049817A3
:101F900009F443C280917D0590917E05892B09F05B
:101FA0007EC01091A80D12FF51C28091820D28E3CE
:101FB000829FC00111248F579A4F90937E05809382
:101FC0007D0540917D0550917E055A874987452BB7
:101FD00009F423C200914D0500FF3BC210924D054C
:101FE00010925F05109260051092610510926205D3
:101FF000A985BA8590962D913D914D915C919397CD
:1020000029833A834B835C8360E070E080E09FE348
:102010000E9446356D837E838F839887E985FA8594
:1020200044A055A066A077A0808C918CA28CB38C24
:1020300011FF04C3F2E0F0935E05A50194010E9434
:102040005F379B01AC01C301B2010E944B346B01AD
:102050007C0120E030E0A9010E94413587FFDDC20C
:1020600029813A814B815C81CA01B9010E944C34BB
:10207000A30192010E945F379B01AC01C501B4012D
:102080000E944B340E94D23760936B0570936C05AD
:1020900080936D0590936E0518601093A80DE091E4
:1020A0009504F8E0EF9FD0011124BA8BA98BFD01B4
:1020B000EB5BFB4F80914C05848320917D05309133
:1020C0007E053A872987D9019496BC91BDA3F90171
:1020D000F5A1FEA3D9019696BC91BFA3F901F7A182
:1020E000F8A720915A0530915B0540915C0550910D
:1020F0005D056DA17EA18B2F9F2F0E944B3469AB94
:102100007AAB8BAB9CAB20E030E0A9010E9441355B
:1021100087FF04C019AA1AAA1BAA1CAA2091670546
:102120002D8B309168053E8B409169054F8B509106
:102130006A05588F80916F058D8F909170059E8FE5
:10214000A0917105AF8FB0917205B8A3E0917305AE
:10215000E9A7F0917405FAA7209175052BA7309196
:1021600076053CA7409163054AAF509164055BAF8B
:10217000009165051091660580915E058D879091AF
:102180005F059DA7A0916005AEA7B0916105BFA7AF
:10219000E0916205E8ABF0916B05FEAB20916C0518
:1021A0002FAB30916D0538AF40916E0549AF29A531
:1021B0003AA54BA55CA56D8D7E8D8F8D98A10E9453
:1021C00041358111CAC352E05DAB9DA1998FAEA18B
:1021D000AA8FBFA1BB8FE8A5EC8F8EE3C82E83EC3E
:1021E000D82E8EE2E82E89E3F82E412C512C3201B4
:1021F000A701960129A33AA34BA35CA35D855130A7
:1022000009F446C4A985BA85513008F4D6C35330C1
:1022100009F074C490962D913D914D915C919397E6
:10222000C701B6010E945F374B015C012D893E89D1
:102230004F89588D6AAD7BADC8010E944B349B011C
:10224000AC01C501B4010E941F3787FD90C32D8DDD
:102250003E8D4F8D58A16DA17EA18FA198A50E94A2
:102260004B349B01AC010E944C346B017C012D89E5
:102270003E894F89588D6AAD7BADC8010E944C34B0
:102280009B01AC01C701B6010E9446356B017C0180
:10229000BD89BAAFEE89EBAF0F89188D2D8C3E8CBE
:1022A000FF8DF98328A12D8331E03D87A701960199
:1022B000C301B2010E944C342B013C0129A13AA177
:1022C0004BA15CA10E94413587FF82C4A30192010A
:1022D00069A17AA18BA19CA10E944B346B017C0166
:1022E000910149815D816DA57EA58FA598A90E9468
:1022F000413587FD35C38AAD9BADD8018093630519
:1023000090936405A0936505B09366053D85309371
:102310005E05E0919604F09197048389811104C0D1
:102320009091A80D93FF32C0A985BA8553969C91D0
:102330005397907309F477C4D496CD90DD90ED90C7
:10234000FC90D7978823A9F02091770530917805E4
:102350004091790550917A056AAD7BADC8010E9424
:102360005F379B01AC01C701B6010E945F376B016B
:102370007C01C701B6010E94D20A90937C0580932C
:102380007B058091A80D877F8093A80D80917B05A8
:1023900090917C05E989FA89EB5BFB4FFAA3E9A3ED
:1023A00097838683209156053091570540915805B3
:1023B00050915905B10189819D810E945F376987DC
:1023C0007A878B879C870E942A356B017C016091FC
:1023D00052057091530580915405909155050E94C6
:1023E0002A354B015C01A70196010E944B340E94E3
:1023F000BF356D877E878F87988BED85FE85A9A178
:10240000BAA1ED93FC93EF2B09F01AC48091A80DAB
:1024100081FF16C481608093A80DEB960FB6F894E7
:10242000DEBF0FBECDBFDF91CF911F910F91FF9007
:10243000EF90DF90CF90BF90AF909F908F907F9064
:102440006F905F904F903F902F9008950E94DB0413
:10245000B4CD80914C058F5F893009F480E0809382
:102460004C05282F30E054E1859FC0011124DC0188
:10247000A856BB4F7D01B0939704A0939604E985BD
:10248000FA85808950968C935097818951968C93C8
:102490005197828952968C9390E080E041915191BE
:1024A00061917191D701A80FB91F689412F8440F78
:1024B000551F661F771F1694D1F74D935D936D934B
:1024C0007C93139704968C30910541F7A985BA85C2
:1024D0001C966D917D918D919C911F97B4E1B29F57
:1024E000A001B39F500D1124FA01E856FB4F4B0198
:1024F0005C0123E0880C991CAA1CBB1C2A95D1F70F
:1025000084869586A686B7860E94EE35609352052E
:10251000709353058093540590935505E985FA858A
:1025200024A135A146A157A10E9446359B01AC01CB
:1025300020935605309357054093580550935905FD
:1025400060E070E080EA9FE30E94463560935A05A0
:1025500070935B0580935C0590935D0510924E052A
:1025600010924F05109250051092510511FD02C0B6
:1025700003FF42C060916B0570916C0580916D0501
:1025800090916E0560936305709364058093650573
:10259000909366059B01AC010E945F37A985BA85BF
:1025A00058966D937D938D939C935B97077F0093D3
:1025B0004D05D70153961C928091000E81FF10CDDE
:1025C000E985FA85838985FF0BCD20A931A942A928
:1025D00053A960E070E080E89FE30E944635609375
:1025E0007705709378058093790590937A05E1E0FB
:1025F000D7015396EC93F4CCE985FA85608D718D03
:10260000828D938D0E94D237609363057093640529
:102610008093650590936605CCCFC0925F05D092FC
:102620006005E0926105F092620510926B051092D0
:102630006C0510926D0510926E052ECD10925E0500
:1026400040926F055092700560927105709272050C
:1026500012FF6AC010926B0510926C0510926D0506
:1026600010926E05C12CD12C760189859A850E9425
:102670006804698B7A8B8B8B9C8B9B01AC010E94CD
:102680005F3769877A878B879C87A50194010E94B1
:10269000413587FF93C029853A854B855C85C50107
:1026A000B4010E944B342D813E814F8158850E9498
:1026B0005F379B01AC01C301B2010E944B346093B0
:1026C0006F0570937005809371059093720520E0FB
:1026D00030E0A9010E94413518160CF449C032E0DF
:1026E00030935E0529813A814B815C81CA01B90131
:1026F0000E944C34A30192010E945F379B01AC0100
:10270000C501B4010E944B340E94D23760936B051F
:1027100070936C0580936D0590936E0580914D05C7
:10272000886080934D05B8CCE091810DEF5FE43275
:1027300009F4E0E08091820DC12CD12C76018E1736
:1027400051F028E32E9FF0011124EF57FA4FC08C6F
:10275000D18CE28CF38CC701B6010E94D237609312
:102760006B0570936C0580936D0590936E057DCF1E
:10277000A701960169857A858B859C850E944B34DB
:102780002D813E814F8158850E945F37609373058C
:1027900070937405809375059093760589899A895D
:1027A000AB89BC898093670590936805A093690500
:1027B000B0936A0593E090935E056ECCA7019601F5
:1027C000C501B4010E944B342D813E814F81588553
:1027D0000E945F37A30192010E944C3420E030E058
:1027E00040E05FE30E945F376D877E878F87988B1D
:1027F00020E030E0A9010E941F3718160CF094C0A9
:10280000A30192016D857E858F8598890E9441354F
:1028100087FF88C0A701960169857A858B859C858D
:102820000E944B342D813E814F8158850E945F3735
:102830009B01AC012093730530937405409375059B
:10284000509376056D857E858F8598890E941F3708
:102850001816BCF529893A894B895C89209367054C
:10286000309368054093690550936A05A50194016A
:1028700069857A858B859C850E944135811104C0CC
:1028800031E030935E0508CCA501940169857A8515
:102890008B859C850E944B342D813E814F815885CC
:1028A0000E945F379B01AC01C301B2010E944B340F
:1028B00060936F0570937005809371059093720516
:1028C000EBCB8D859E85AF85B88980936F059093FE
:1028D0007005A0937105B093720580937305909372
:1028E0007405A0937505B093760529813A814B81D3
:1028F0005C81CA01B9010E944C342D853E854F850B
:1029000058890E945F37A70196010E944C340E94AB
:10291000D23760936705709368058093690590933B
:102920006A05BACB92E047CF80916B0590916C0518
:10293000A0916D05B0916E0510926F051092700513
:102940001092710510927205809367059093680547
:10295000A0936905B0936A059FCB81E08DAB35CC20
:10296000298E3A8E39813B8F4D814C8F47CC20E0A8
:1029700030E040E05FE3C501B4010E945F379B0196
:10298000AC016AAD7BADC8010E944B34A701960132
:102990000E945F379B01AC01698D7A8D8B8D9C8D78
:1029A0000E944B341B0189839D83A50194016AAD6C
:1029B0007BADC8010E944B3467C090962D913D912C
:1029C0004D915C919397C701B6010E945F374B010F
:1029D0005C0120E030E040E05FE30E945F372AAD19
:1029E0003BADA8010E944C34A70196010E945F37BD
:1029F0009B01AC01698D7A8D8B8D9C8D0E944B342F
:102A00001B0189839D839B01AC016D8D7E8D8F8D14
:102A100098A10E941F37181684F52D8D3E8D4F8D7D
:102A200058A16DA17EA18FA198A50E944B349B0156
:102A3000AC010E944C346B017C012D893E894F8989
:102A4000588D6AAD7BADC8010E944C349B01AC012E
:102A5000C701B6010E9446356B017C01BDA9BD8747
:102A6000ED89EAAFFE89FBAF0F89188D2D8C3E8C66
:102A70002F8D298338A13D8319CCA50194016AAD1E
:102A80007BADC8010E944C346AAF7BAF8C010ECC89
:102A90002D893E894F89588DC701B6010E945F3745
:102AA0009B01AC01698D7A8D8B8D9C8D0E944B347E
:102AB0001B0189839D8329A53AA54BA55CA50E948E
:102AC000413587FFF3CB29A53AA54BA55CA5698DB8
:102AD0007A8D8B8D9C8D0E944B342D893E894F8938
:102AE000588D0E9446356B017C0129A43AA44BA560
:102AF00049835CA55D8382E08D87D8CB90962D912C
:102B00003D914D915C919397C701B6010E945F374B
:102B10004B015C01AC019B016AAD7BADC8010E9419
:102B20001F3718163CF520E030E040E05FE3C501B8
:102B3000B4010E945F379B01AC016AAD7BADC80157
:102B40000E944B34A70196010E945F379B01AC01A4
:102B5000698D7A8D8B8D9C8D0E944B341B018983EE
:102B60009D832DA53EA54FA558A90E941F37181675
:102B70000CF41BCF2DA53EA54FA558A9698D7A8DC4
:102B80008B8D9C8D0E944B349B01AC010E944C3478
:102B90006B017C012EA93FA948AD59AD6AAD7BAD53
:102BA000C8010E944C349B01AC01C701B6010E94D0
:102BB00046356B017C01BEA9BAAFEFA9EBAF08ADFA
:102BC00019AD2DA43EA4FFA5F98328A92D836ECBB2
:102BD00029A93AA94BA95CA9B10189819D810E94CB
:102BE0001F3718168CF42EE333EC4EE259E369A13B
:102BF0007AA18BA19CA10E944C3469A37AA38BA3D8
:102C00009CA3A301920168CB8AAD9BADD8018093B0
:102C1000630590936405A0936505B09366054D85A3
:102C200040935E0576CB1092B30D1092B40D1092C6
:102C3000B50D1092B60D10927C0510927B05A1CBBC
:102C400020914E0530914F0540915005509151050E
:102C5000C301B2010E944C342B013C0129853A8505
:102C60004B855C85C501B4010E944B349B01AC01CE
:102C7000C301B2010E9446354B015C0120EC31EEEC
:102C800044E65EE40E945F370E942A350E94BF3509
:102C9000E989FA89EB5BFB4F603D37E073078105FB
:102CA000910508F059C01582E989FA89EB5BFB4F61
:102CB0007383628380914404809395048F5F8A308C
:102CC00009F480C080934404E0917D05F0917E0575
:102CD000C101A981BD8184A395A3A6A3B7A3C09276
:102CE0005205D0925305E0925405F092550529857E
:102CF0003A854B855C85C701B6010E944B34A5011E
:102D000094010E945F3760934E0570934F05809346
:102D100050059093510520915F05309160054091D9
:102D2000610550916205B10189819D810E94413503
:102D3000811129C99091A80D998720E030E0A9015F
:102D4000B10189819D810E941F371816F4F5A9856C
:102D5000A160A093A80D61CB603A4FE07407810594
:102D6000910520F551E05583E989FA89EB5BFB4F2A
:102D70002581022E04C096958795779567950A94CC
:102D8000D2F74D855E8502C0440F551F2A95E2F7A4
:102D9000518340836115710551E08507910508F461
:102DA00083CF8FEF9FEF9383828384CF6034AFE133
:102DB0007A078105910518F4B2E0B583D5CF23E0F9
:102DC0002583D2CF109244047FCFB985B2FF04C0CF
:102DD000B160B093A80D21CB10927E0510927D05B5
:102DE0009091810D8091820D891709F4CCC881E002
:102DF000890F843209F480E020917F05921302C08C
:102E000080937F058093810DBEC84F925F926F9231
:102E10007F928F929F92AF92BF92CF92DF92EF926A
:102E2000FF920F931F93CF93DF93C091860DCC2316
:102E300091F181E08093A40D84EC92E00E94D3088C
:102E40008C2F0E94AE080E94E10884EF91E00E945E
:102E50009E0BC150C230D0F48AE194E00E94D308A6
:102E600088E094E00E94D3080E941C0980E10E943F
:102E700041038091850D80FF05C00E94A80B81E071
:102E80000E9441038091850D84FFF3CF8FB7F894A2
:102E90001092860D8FBFC091850DCC2309F4DBC045
:102EA000C4FF14C081E08093A50DDF91CF911F91E5
:102EB0000F91FF90EF90DF90CF90BF90AF909F90D9
:102EC0008F907F906F905F904F900895C0FF05C0E6
:102ED0000E94A80B81E00E9441038C2F887E09F498
:102EE0006AC08091A40D982F937009F053C0887226
:102EF000A9F08091A60D807C89F40E949D0582E056
:102F00008093A80D8091A40D803241F480E2C7FD2A
:102F10000CC08091A60D80688093A60D8091A40DB1
:102F2000811103C091E09093A60DC6FF07C085FDF7
:102F300005C09091A60D90649093A60DC3FF05C0A7
:102F4000807E19F480E18093A40DC5FF23C08AE13F
:102F500094E00E94D30886EC93E00E94D3080E947C
:102F60001C098091A60D87FD10C09091A40D90348E
:102F700051F483FF04C0837E82608093A60D80E4B9
:102F80008093A40D02C09038D1F78091A60D806285
:102F90008093A60DC7FF0CC08091A40D813029F449
:102FA0008091A60D85608093A60D80E88093A40D86
:102FB00088EE0E944103C1FF28C08C2F887611F54E
:102FC0008091A40D803441F48091A60D85FD04C04C
:102FD00084FF02C11092A40D8091A40D882309F4EE
:102FE00001C184FF0FC09091A60D90FF0BC08031EE
:102FF00009F0F8C08091B00D882309F4F3C088600F
:103000008093B00D82E00E944103C2FF24C09091E2
:10301000A60D8091A40D807D09F4FDC08091A70DBF
:103020008111F9C097FDF9C00E949D058091810D25
:1030300080937F050E94C1058091A80D81FF05C086
:103040009091A60D91609093A60D897F8093A80D15
:1030500084E00E9441039091870D992309F44DC0AB
:103060008FB7F8941092870D8FBF4091AD0D842FCC
:1030700090FD84E691FD865F92FD8A5093FD8F5FFF
:1030800094FD8150893C08F088EC8A3008F48AE08D
:103090003091AE0D232F95FD24E696FD22E397FD9A
:1030A00029E1481302C0231741F18093AD0D20930D
:1030B000AE0D1092B10D8090810D4090820DC82D03
:1030C00089E9B82E96E7E92E26E9F22EDEE738E305
:1030D000532EC411C1C08B2D9E2DAF2DBD2F8093BB
:1030E000790D90937A0DA0937B0DB0937C0D0E9487
:1030F0009D0580927F050E94C105D091880DDD233A
:1031000009F453C08FB7F8941092880D8FBF909137
:10311000AF0D892FD0FD84E6D1FD865FD2FD8A50A8
:10312000D3FD8F5FD4FD8150893C08F088EC8A3054
:1031300008F48AE09817A1F09091A40D8093AF0D48
:103140009111DFC040911B0E50911C0E60911D0E1D
:1031500070911E0E8091190E0E94750B1092B10D88
:103160008091A40DD5FF09C0803139F49091B00D44
:103170009111CDC092E09093B00D9D2F907CA9F05D
:10318000882311F0887389F0C091180ED7FF03C00F
:10319000C7FFC1C0CF77D6FF03C0C6FFBEC0CF7B7D
:1031A0008C2F0E944B09C093180E8091A40D8C7F28
:1031B00009F47BCEDF91CF911F910F91FF90EF909B
:1031C000DF90CF90BF90AF909F908F907F906F9047
:1031D0005F904F900C94A50F82FFFECE8860809385
:1031E000A60DFACE1092A80D0E94DB04892B71F077
:1031F0008091A60D86FD0AC01092A60D88E08093EE
:10320000A40D0E94A50F0E946507FCCE1092A60D8A
:103210001092A40DF7CE97FF0EC01092A80D0E9439
:10322000370A0E942A0F6BE87DE088E29EE00E9448
:10323000A3030E9446048091A60D85FF08C08F77E6
:1032400081608093A60D80E48093A40D01CF10923D
:10325000A60D1092A40DFCCECC2ED12CC59DC00184
:1032600011248F579A4F0E9468043B01982EA92E73
:103270002B2D3E2D4F2D5D2F0E941F375C9C800112
:103280005D9C100D11240F571A4F18169CF52B2D0D
:103290003E2D4F2D5D2F6B2D7E2D8F2D9D2F0E944E
:1032A0005F37F801648F758F868F978F5C9C8001E4
:1032B0005D9C100D11240F571A4FF801C0A4D1A422
:1032C000E2A4F3A4A7019601648D758D868D978D78
:1032D0000E941F3718162CF4F801C48ED58EE68E86
:1032E000F78ECF5FC43209F4C0E0B62CE72CF92C7E
:1032F000DA2DEFCE9301492D5A2DB301892D9A2D48
:10330000CECF8091A80D88608093A80D27CF90FF25
:1033100034CF946030CFC0683ECFC06441CFCF92ED
:10332000DF92EF92FF921F93CF93DF930E940517D6
:103330008091A60D882309F471C00E94DB04FC0172
:10334000892B09F03FC09091190EC091180EC92B1E
:10335000C0901B0ED0901C0EE0901D0EF0901E0E23
:103360008091000E81FF03C080E20E942903DC2FC0
:10337000D07311E0C07C8091A60D882309F44EC063
:103380009091A50D91114AC080FF19C09091A40D94
:10339000292F207C09F495C082FD25C01092B00D24
:1033A00040E050E0BA0180E00E94750B80E00E948E
:1033B0004B098091A60D8D7F84608093A60D0E949D
:1033C0000517D9CFC389C0732C990BC090E08091A9
:1033D000020186FD9068C92BC4A8D5A8E6A8F7A865
:1033E000BFCF90E4F4CF903821F58AE194E00E94B9
:1033F000D30883E893E00E94D3080E941C0940E0B0
:1034000050E0BA0180E00E94750B80E00E944B09F9
:103410000E94EB0E8091A50D882341F0DF91CF91A2
:103420001F91FF90EF90DF90CF9008950E940517B5
:10343000F1CF903449F40E94DF0380FD05C08091F4
:10344000A60D8F7D8093A60D8091A60D83FFB7CF2B
:103450009091190E992359F081FD09C08091000EB9
:1034600081FF22C08091A80D88608093A80D809173
:10347000180E882371F08091A60D81FD0AC08C2F53
:103480000E944B0941E060E070E080E89FE30E9409
:10349000AD1A8091A60D81FD92CF80618093A60D1B
:1034A00082E00E944B038BCFB701A6018D2F0E94B3
:1034B000750B41E060E070E080E890E40E94AD1A96
:1034C000D6CF8091B00D8823C9F181FF0DC08091C6
:1034D000190E882351F140E050E0BA0180E00E94CB
:1034E000750B1093B00D6BCF8C7009F468CF809181
:1034F000190E882399F08AE194E00E94D3088CE8A1
:1035000093E00E94D3080E941C098091000E81FF65
:103510000FC08091A80D88608093A80D8091B00D98
:1035200083FF03C082E00E944B031092B00D47CF8F
:10353000B701A6018D2F0E94750BF0CF8091A80DC9
:1035400083FF3DCFB701A6018D2F0E94750B80919F
:10355000A80D877F8093A80D32CF1F93CF93DF9361
:10356000142F20E030E040EA51E40E945F370E94CF
:103570002A350E94BF35EB012097C9F08091A50D37
:10358000811115C011110DC00E948F192FEF80E716
:1035900092E0215080409040E1F700C00000219768
:1035A000EBCF0E9405178091A60D81FFEFCFDF9131
:1035B000CF911F9108950E9498070E948F198091C2
:1035C000A50D811108C00E94DB04892BB1F7809101
:1035D000A40D883091F30895CF93DF9321E031E07B
:1035E000829FE001839FD00D1124DD5F40E051E018
:1035F000BE018AE89EE00E945B05892B79F4109257
:103600008A0E0E94DB1A40E051E06AE87EE0CE01BB
:103610000E940B0580E0DF91CF91089581E0FBCF00
:103620000E94DB1A1092B20D08950F931F93CF934F
:10363000C82F8B010E94DB1A2DE0C29FC00111240C
:103640004CE050E0B8019E5FCF911F910F910C9418
:103650000B051F93CF93DF93182FEB018DE0189F7D
:10366000B00111247E5F4CE050E0CE010E945B056A
:10367000892B71F48CE0FE0111928A95E9F7BE0165
:10368000812F0E94151B80E0DF91CF911F9108953B
:1036900081E0FACFEF92FF920F931F93CF93DF93C6
:1036A000CDB7DEB72C970FB6F894DEBF0FBECDBFF7
:1036B000182F80FF15C0EBEBFDE085E5DF011D92C3
:1036C0008A95E9F780E090E0AAE7B4E48093B70D2B
:1036D0009093B80DA093B90DB093BA0D0E94460512
:1036E00011FF10C0FE0131967F018CE0DF011D92B9
:1036F0008A95E9F700E0B701802F0E94151B0F5F44
:103700000830C9F712FF14C060E080E093E00E9427
:10371000EB0460E081E093E00E94EB0460E081E074
:1037200094E00E94EB0460E082E094E00E94EB04ED
:1037300013FF0AC060E08EEA93E00E94EB0460E0B1
:103740008FEA93E00E94EB042C960FB6F894DEBF4C
:103750000FBECDBFDF91CF911F910F91FF90EF90E2
:1037600008958091A40D823041F00E94DB1A80916F
:10377000A50D811102C01092B10D0895CF92DF9274
:10378000EF92FF92CF939091A40D923079F06A015D
:103790007B01C82F0E94DB1AB701A6018C2FCF91A5
:1037A000FF90EF90DF90CF900C94750BCF91FF902E
:1037B000EF90DF90CF9008952F923F924F925F92BB
:1037C0006F927F928F929F92AF92BF92CF92DF9231
:1037D000EF92FF920F931F93CF93DF93CDB7DEB796
:1037E000C954D1090FB6F894DEBF0FBECDBF7C011E
:1037F0007EAB6DAB8091000E85FF22C01091A40DB1
:10380000103219F1C7010E9454038823C9F081E0E6
:103810008093A70D183069F488E00E944B030E9442
:103820008F198091A50D81110BC08091A40D81117C
:10383000F6CF0E94830F82E00E943B030E948F1903
:103840008091A40D823009F4DAC10E948F19209171
:10385000A50D2CAF2111D3C13091810D22963FAF20
:10386000229780918005381303C00E949807EDCFFE
:103870004091820D4FAB242E312C88E3489F90015C
:103880001124F901EF57FA4FFAABE9AB11928A957F
:10389000E9F7EDA9FEA9F485FAAF2F2FE9A9FAA956
:1038A000238BEDA9FEA984809580A680B780E9A925
:1038B000FAA984AA95AAA6AAB7AAEDA9FEA9808505
:1038C0009185A285B385E9A9FAA9848B958BA68BEE
:1038D000B78B8CE0EBE8FDE021FD02C0E1E6FDE006
:1038E000DE01599601900D928A95E1F7EBAAFCAAA8
:1038F0002BEB3DE028963FAF2EAF2897AE014B5DF6
:103900005F4F26965FAF4EAF2697CE01499624961D
:103910009FAF8EAF2497E9A9FAA92196FFAFEEAF2A
:1039200021979E01235F3F4F39AF28AF3EAF2DAFA8
:1039300010E000E028E3229DC001239D900D11249A
:10394000AC0143575A4F2A965FAF4EAF2A97EBA967
:10395000FCA96191719181919191FCABEBAB28969F
:10396000EEADFFAD289741905190619071902896EF
:10397000FFAFEEAF2897A30192010E945F370E942C
:103980002C372696EEADFFAD269761937193819308
:1039900091932696FFAFEEAF26972496EEADFFAD3E
:1039A0002497C190D190E190F1902496FFAFEEAFB3
:1039B00024976C197D098E099F099B01AC0197FF23
:1039C00007C022273327A901261B370B480B590BA9
:1039D0002196EEADFFAD2197219331934193519301
:1039E0002196FFAFEEAF21972A96EEADFFAD2A9755
:1039F000C080D180E280F380C216D306E406F506CB
:103A000010F469017A012A96EEADFFAD2A97C082C3
:103A1000D182E282F3820E94F035A30192010E94DA
:103A20004635EDADFEAD6193719381939193FEAFF9
:103A3000EDAF20E030E0A9010E94413587FF0BC0C7
:103A400092E0013009F490E8E9A9FAA9E00FF11F2A
:103A50008089892B808B0F5F1F4F0330110509F080
:103A600076CFCD28CE28CF2809F4B5C1CE010D964A
:103A70000E94480A4B015C0128E3229DC001239D5E
:103A8000900D11249C012F573A4F7901F90184A21E
:103A900095A2A6A2B7A2BE01635F7F4F83ED9DE012
:103AA0000E94F003F70160A371A382A393A3BE0158
:103AB000635F7F4F87EC9DE00E94F003F70164A7EE
:103AC00075A786A797A7138910FF05C060AB71ABD8
:103AD00082AB93AB0DC0EDA9FEA92081318142815B
:103AE000538113FDA6C0F70120AB31AB42AB53AB02
:103AF0002296FFAD22972FA9F21711F011FF9FC058
:103B000088E3829DF001839DF00D1124EF57FA4F59
:103B1000108E118E128E138E10A611A612A613A649
:103B200088E3829D8001839D100D11240F571A4F49
:103B3000F801838981FD63C089A99AA90E9468045C
:103B40006B017C018090790D90907A0DA0907B0D97
:103B5000B0907C0DA50194010E941F3718160CF03F
:103B600035C1A5019401C501B4010E945F37F80178
:103B7000648F758F868F978F88E3829D8001839DE8
:103B8000100D11240F571A4FF80180A491A4A2A47C
:103B9000B3A4A5019401648D758D868D978D0E94C7
:103BA0001F3718162CF4F801848E958EA68EB78ECA
:103BB000C092790DD0927A0DE0927B0DF0927C0D3F
:103BC0008CE0FE013D96ADE6BDE001900D928A9538
:103BD000E1F78CE0FE01B596A1E6BDE001900D9203
:103BE0008A95E1F7809180058093820D8F5F843202
:103BF00009F08CAFFCADF09380050E94C105C75B56
:103C0000DF4F0FB6F894DEBF0FBECDBFDF91CF916F
:103C10001F910F91FF90EF90DF90CF90BF90AF90EA
:103C20009F908F907F906F905F904F903F902F90DC
:103C30000895C501B4010E945F37F70147CF4DE6F3
:103C40005DE05CAB4BAB8E010F5F1F4F88AD99AD54
:103C50000C969BAF8AAFC12CD12C76010DAB1FAB5C
:103C6000EBA9FCA981909190A190B190FCABEBAB3A
:103C7000E8ADF9AD4190519061907190F9AFE8AF26
:103C8000A3019201C501B4010E945F379B01AC0101
:103C9000C701B6010E944B346B017C01A501940160
:103CA000C301B2010E944B34F80161937193819377
:103CB00091938F012AAD3BAD48AD59AD241735071F
:103CC00079F62FEE3FEF4FE75FE3C701B6010E94A1
:103CD0001F3718164CF488E3829DF001839DF00D88
:103CE0001124EF57FA4F18CF2FEE3FEF4FE75FEB5E
:103CF000C701B6010E94413587FF11C088E3829D4C
:103D0000F001839DF00D1124EF57FA4F89E996E7F2
:103D1000A6E9BEE780A791A7A2A7B3A701CF8DA967
:103D20009FA90E94480A6DA97FA983ED9DE00E948A
:103D3000F0034B015C01A701960160E070E080E8B0
:103D40009FE30E944B3420E030E040E05FE30E94BC
:103D50005F370E94D2376B017C012091F00D3091CA
:103D6000F10D4091F20D5091F30DC501B4010E9487
:103D70005F37A70196010E945F374B015C01A701E5
:103D8000960160E070E080E89FE30E944B349B0165
:103D9000AC01C501B4010E9446356B017C0120E0F5
:103DA00030E0A9010E94413587FF03C0C12CD12C0E
:103DB000760188E3829DF001839DF00D1124EF5779
:103DC000FA4FC0A6D1A6E2A6F3A6AACEA7019601F5
:103DD000C701B601CACE8091000E81FF10CF2AAD77
:103DE00024FF0DCFB501A40180E10E94BE1B07CFC7
:103DF0002F923F924F925F926F927F928F929F92FB
:103E0000AF92BF92CF92DF92EF92FF920F931F93E8
:103E1000CF93DF93CDB7DEB7E7970FB6F894DEBF49
:103E20000FBECDBFE0E5FEE08AE3DF011D928A957B
:103E3000E9F78BE0E0E1FEE0A1E5BEE001900D9244
:103E40008A95E1F78091230E80937D0E80918A0EF2
:103E5000843271F01E8E1F8E18A219A21AA21BA204
:103E6000812C912C5401412C512C3201439474C06B
:103E700081E08093510E1092520E83E08E8FB1E05C
:103E8000BF8FEACF2FEBF22EF00EE9E1EF1510F421
:103E90000C9467298F5F8E8FBE01665E7F4FCE01C7
:103EA0004E960E947C02882311F40C946A29F4E156
:103EB000FF1508F440C1EF2DFF0CFF0B8827EC59CC
:103EC000F04E8F4F0C945638791F0E2011201F2072
:103ED0002D203B2049209B209B209B209B209B202A
:103EE0009B209B209B209B2057209B209B20962043
:103EF000861F81EA94E00E94D3086A8D7B8D8C8DA9
:103F00009D8D0E94BF35862F0E94690988A199A1C5
:103F1000AAA1BBA1012E04C0B695A7959795879538
:103F20000A94D2F780FF02C00C946D29D301C2011C
:103F3000012E04C0880F991FAA1FBB1F0A94D2F735
:103F400028A139A14AA15BA1282B392B4A2B5B2B35
:103F500028A339A34AA35BA38E8DE82FF0E0E65790
:103F6000F14F008101118ECF81149104A104B1049D
:103F700009F040C118A648A145FF0FC080916D0E01
:103F800090916E0EA0916F0EB091700E813896498F
:103F9000A849B10514F00C9470298F8D882309F479
:103FA0002CC198A190FF3CC18091530E8130B1F497
:103FB00023E333E34BEC51E460915C0E70915D0EB2
:103FC00080915E0E90915F0E0E945F3760935C0E51
:103FD00070935D0E80935E0E90935F0E28A139A1C1
:103FE0004AA15BA130FD10C080911B0E90911C0E68
:103FF000A0911D0EB0911E0E8093790E90937A0EB3
:10400000A0937B0EB0937C0E2090500E34E02312D0
:104010002AC148A146FD1EC18CE1A7C085E994E0F4
:104020006ACF86E894E00E94D3086A8D7B8D8C8DE0
:104030009D8D0E94BF35862F0E94B70967CF87E705
:1040400094E00E94D3086A8D7B8D8C8D9D8D0E949B
:10405000BF35862F0E94A60959CF88E694E00E94BA
:10406000D3086A8D7B8D8C8D9D8D0E94BF35862FE8
:104070000E9495094BCF8CE594E00E94D3086A8D8D
:104080007B8D8C8D9D8D0E94BF35862F0E9484096B
:104090003DCF80E594E00E94D3086A8D7B8D8C8DA6
:1040A0009D8D0E94BF35862F0E94C8092FCF83E4C3
:1040B00094E00E94D308CA8CDB8CEC8CFD8C20E051
:1040C00030E0A901C701B6010E94413581110DC040
:1040D0000E94B70980E00E94A60980E00E9495092D
:1040E00080E00E94C80980E0D1CF20E030E040E8C5
:1040F0005FE3C701B6010E944135811107CF83E01C
:104100000E94B70988EC90E00E949E0B83E00E9419
:10411000A60988EC90E00E949E0B83E00E9495091E
:1041200088EC90E00E949E0B83E0B0CF87E394E0A0
:104130000E94D308EBCE083589F58FE294E00E9407
:10414000D3088A8D9B8DAC8DBD8D80937E0E909310
:104150007F0EA093800EB093810E689480F81AE0D1
:104160000855033008F4D2CE84E1E7960FB6F894F0
:10417000DEBF0FBECDBFDF91CF911F910F91FF909A
:10418000EF90DF90CF90BF90AF909F908F907F90F7
:104190006F905F904F903F902F9008950935A1F454
:1041A00088E294E00E94D3088A8D9B8DAC8DBD8DF2
:1041B0008093820E9093830EA093840EB093850E0D
:1041C000689481F81BE0CCCF0A3551F680E294E088
:1041D0000E94D3088A8D9B8DAC8DBD8D8093860EF9
:1041E0009093870EA093880EB093890E689482F8FE
:1041F0001CE0B6CF32E038A7BECE8091520E81309F
:1042000089F4A8A5A23009F0E9CE8091510E80353D
:1042100009F4E4CE882309F4E1CEB8A1B0FDDECEE6
:1042200086E1A3CF8091110E8111D8CEE8A1E0FDE7
:10423000BBCE80911F0E9091200EA091210EB091C7
:10424000220E80935C0E90935D0EA0935E0EB09351
:104250005F0EC4CE88A199A1AAA1BBA18F7B88A320
:1042600099A3AAA3BBA38091530E8130B1F500E5B9
:10427000E02E0EE0F02E10E000E0CC24C394D12C10
:10428000C601002E02C0880F991F0A94E2F7092E7A
:10429000000CAA0BBB0B88219921AA21BB21892BD9
:1042A0008A2B8B2B91F023E333E34BEC51E4D701C2
:1042B0009E966D917D918D919C91D1970E945F37D3
:1042C000F70166A777A780AB91AB0F5F1F4FF4E0B4
:1042D000EF0EF11C0330110599F68CE0E4E3FEE0EB
:1042E000DE011E9601900D928A95E1F72AE02216D2
:1042F00009F468C03CE5231609F426C18114910431
:10430000A104B10409F442C03090540E80914C0EC7
:1043100090914D0EA0914E0EB0914F0E8CA39DA387
:10432000AEA3BFA370E1C72E7EE0D72EE0E5EE2E50
:10433000EEE0FE2E10E000E081E090E0002E02C0F2
:10434000880F991F0A94E2F7092E000CAA0BBB0BE9
:1043500088219921AA21BB21892B8A2B8B2B09F03B
:1043600067C1F601808D918DA28DB38DF70186A76F
:1043700097A7A0ABB1AB0F5F1F4FF4E0CF0ED11CDE
:1043800024E0E20EF11C03301105B1F63EE12316E4
:1043900009F49FC145E3241609F4D0C15CE160E64D
:1043A0007EE086E0251237C10E94291B882309F48C
:1043B00045C081149104A104B10409F08EC1212CDF
:1043C00018A6AFC081149104A104B10411F48AE1CC
:1043D000CCCE88A199A1AAA1BBA180759927AA27B3
:1043E000BB27892B8A2B8B2B09F416CE6091710E7B
:1043F0007091720E8091730E9091740E0E94163817
:104400000E94BF358DE1673008F0AFCE80916C0E11
:10441000843131F0823009F0A7CE48A147FDA4CE07
:1044200022242A94260E611102C02090570E60E6C5
:104430007EE0822D0E94291B811102C087E095CE6B
:1044400030906C0E80914C0E90914D0EA0914E0EBE
:10445000B0914F0E8CA39DA3AEA3BFA3B0E5EB2EEE
:10446000BEE0FB2E10E1C12E1EE0D12E10E000E0D8
:1044700081E090E0002E02C0880F991F0A94E2F7B5
:10448000092E000CAA0BBB0B88219921AA21BB2164
:10449000892B8A2B8B2B81F1D7019E964D905D90B5
:1044A0006D907C90D197B4E13B1248C0F60120A9F1
:1044B00031A942A953A9608D718D828D938D0E947F
:1044C0004B34A30192010E944B34D70150966D9357
:1044D0007D938D939C935397023071F42CA13DA151
:1044E0004EA15FA10E944B346093680E7093690ED9
:1044F00080936A0E90936B0E0F5F1F4FF4E0EF0EE8
:10450000F11C24E0C20ED11C0330110509F0B0CF1C
:1045100088A199A1AAA1BBA18F7A88A399A3AAA3D4
:10452000BBA31091510E103509F00FC181149104F5
:10453000A104B10409F432C18FE117CEF701408A1A
:10454000518A628A738AD8CF81149104A104B1047C
:1045500009F43DCF40904C0E50904D0E60904E0EA1
:1045600070904F0EF0E1CF2EFEE0DF2E1E019EE098
:10457000290E311CA0E5EA2EAEE0FA2E10E000E094
:1045800081E090E0002E02C0880F991F0A94E2F7A4
:10459000092E000CAA0BBB0B88219921AA21BB2153
:1045A000892B8A2B8B2BC9F1D1012D913D914D91F6
:1045B0005C91F601608D718D828D938D0E944B34DC
:1045C000D7019E962D913D914D915C91D1970E947E
:1045D0004B34F70166A777A780AB91AB023061F44B
:1045E000A30192010E944B346093860E7093870E54
:1045F0008093880E9093890E0F5F1F4FF4E0CF0ECB
:10460000D11C24E0220E311C34E0E30EF11C0330F7
:10461000110509F0B5CF212C84CFF60180A991A90D
:10462000A2A9B3A9F70186A797A7A0ABB1ABE4CF26
:10463000F5E32F1609F49FCED7019E964D905D901D
:104640006D907C90D197311033C0F801EE0FFF1FB1
:10465000EE0FFF1F2EE030E02C0F3D1FE20FF31F87
:10466000D601D0962D913D914D915C91D39760816B
:104670007181828193810E944C34A30192010E9436
:104680004C34F70166A777A780AB91AB023009F0F5
:1046900072CE2CA13DA14EA15FA10E944C3460932B
:1046A000860E7093870E8093880E9093890E63CE4A
:1046B000A3019201D60158966D917D918D919C91A7
:1046C0005B970E944C34F70166A777A780AB91AB4C
:1046D00052CE60E67EE087E067CE60E17EE0E0E516
:1046E000FEE030E020E041E050E0CA01022E02C0CE
:1046F000880F991F0A94E2F7092E000CAA0BBB0B36
:104700006C017D01C820D920EA20FB20CD28CE28CD
:10471000CF2859F4DB015896CD90DD90ED90FC90B8
:104720005B97C08AD18AE28AF38A2F5F3F4F6C5F22
:104730007F4F349623303105C1F66DCF8091510EF5
:10474000823008F468CF8EE110CDB8A5B23031F5D3
:10475000111107C081149104A104B104F9F418A641
:104760001DC020E030E0A90160915C0E70915D0EEB
:1047700080915E0E90915F0E0E944135882309F46E
:104780004FCD1C3809F491C008F086C0123009F4EE
:10479000A6C0133009F4A6C01130E1F20091500E0A
:1047A00082EC800F8430A0F458A156FF35CC20E075
:1047B00030E040E450E46091710E7091720E80918F
:1047C000730E9091740E0E941F3718160CF491C549
:1047D000CE0101967C018DE0D7011D928A95E9F703
:1047E000BF8DB0FFDBC1053319F080E10111BDCCF5
:1047F00080911B0E90911C0EA0911D0EB0911E0E6B
:104800008D839E83AF83B8878091190E9091180E87
:10481000892B40915C0E50915D0E60915E0E7091FF
:104820005F0E49835A836B837C8384608D8780917C
:104830006D0E90916E0EA0916F0EB091700E8987E3
:104840009A87AB87BC878091000E85FF06C08EE7F4
:104850009EE00E94540381114FC5B7018EE79EE090
:104860000E94DC1B8091A40D81110BC00E94DB040F
:10487000892B39F080E28093A40D0E94A50F0E943D
:1048800065078CE0EEE7FEE0A8E2BEE001900D9245
:104890008A95E1F780E069CC1E3839F018F01F38AE
:1048A00009F07CCF3F8D30613F8F82E7810F8230EE
:1048B00018F44F8D48604F8F81149104A104B10406
:1048C00009F485CD4CE050E06EE77EE088E29EE0A2
:1048D0000E947838892B09F061CF81E246CCEF8DB8
:1048E000E460EF8F81149104A104B10409F46FCD49
:1048F00021E030E0C901822B932B092E000CAA0B7A
:10490000BB0B88219921AA21BB21892B8A2B8B2BB8
:1049100009F4E9C4F8A183E2F7FF27CC28A139A163
:104920004AA15BA12F7728A339A34AA35BA34CE03C
:1049300050E06EE77EE088E29EE00E947838892BA6
:1049400061F280917E0E90917F0EA091800EB091C9
:10495000810E8CA39DA3AEA3BFA34090280E5090C0
:10496000290E60902A0E70902B0E9C01AD012CA791
:104970003DA74EA75FA7730162016091750E70910C
:10498000760E8091770E9091780E2091530E213003
:1049900071F423E333E34BEC51E40E945F376093FF
:1049A000750E7093760E8093770E9093780EA30118
:1049B00092016CA17DA18EA19FA10E944B346CA39A
:1049C0007DA38EA39FA3A70196016CA57DA58EA5AF
:1049D0009FA50E944B346CA77DA78EA79FA74090F0
:1049E000750E5090760E6090770E7090780E2CA118
:1049F0003DA14EA15FA1CA01B9010E945F3768AB1A
:104A000079AB8AAB9BAB2CA53DA54EA55FA5CA0192
:104A1000B9010E945F376CAB7DAB8EAB9FAB20E0E2
:104A200030E040E850E4C301B2010E945F37A301C7
:104A300092010E945F3728A939A94AA95BA90E945F
:104A40004B342CA93DA94EA95FA90E944B346B01A0
:104A50007C0120E030E0A9010E94413587FD46C479
:104A6000C701B6010E94D2376B017C012CA93DA978
:104A70004EA95FA968A979A98AA99BA90E944C346B
:104A80000E94D2379B01AC01C701B60190580E9429
:104A900046356B017C01133021F4F7FAF094F7F8F6
:104AA000F09420E030E0A901C301B2010E94413539
:104AB00087FF0FC0F7FAF094F7F8F094D301C20122
:104AC000B0588093750E9093760EA093770EB093A6
:104AD000780EA70196016CA57DA58EA59FA50E94C5
:104AE0005F379B01AC016CA17DA18EA19FA10E94AB
:104AF0004B3420E030E040E05FE30E945F372B0161
:104B00003C01A70196016CA17DA18EA19FA10E94ED
:104B10005F372CA53DA54EA55FA50E944C3420E033
:104B200030E040E05FE30E945F372091550E222382
:104B300099F0213011F14092640E5092650E60920E
:104B4000660E7092670E6093680E7093690E809384
:104B50006A0E90936B0E22CE4092600E5092610EC0
:104B60006092620E7092630E6093640E7093650E95
:104B70008093660E9093670E11CE4092680E50920D
:104B8000690E60926A0E70926B0E6093600E709365
:104B9000610E8093620E9093630E00CE8091000EA2
:104BA0000091190E81FF12C01150133018F0EF8DD3
:104BB000E064EF8F89288A288B2809F451C1F8A571
:104BC000F23009F04DC12F8D20682F8F80916D0E2E
:104BD00090916E0EA0916F0EB091700E8093240E86
:104BE0009093250EA093260EB093270E89879A875F
:104BF000AB87BC878091520E8093110E882311F0F1
:104C000088E08D8780915C0E90915D0EA0915E0E84
:104C1000B0915F0E80931F0E9093200EA093210EF3
:104C2000B093220E89839A83AB83BC838090790EE4
:104C300090907A0EA0907B0EB0907C0EA50194010E
:104C400060911B0E70911C0E80911D0E90911E0E96
:104C50000E9441351F8D1074811103C05F8D55FF77
:104C60001FC0002369F08F8D87FD0AC040E050E02F
:104C7000BA01111102C0B501A401802F0E94BE1B10
:104C80008091790E90917A0EA0917B0EB0917C0E5E
:104C900080931B0E90931C0EA0931D0EB0931E0EBE
:104CA00011110CC080911B0E90911C0EA0911D0E35
:104CB000B0911E0E8D839E83AF83B88780917D0E49
:104CC0008093230E80915A0E9091190E981751F0EF
:104CD0004D815E816F8178850E94BE1B80915A0E46
:104CE0008093190E8D859091190E892B8D871091C7
:104CF000590E8091180E811769F08091A40D8230B1
:104D000029F00E94DB1A812F0E944B098091590ED5
:104D10008093180E8D859091180E892B8D87809128
:104D2000500E843099F48091A40D823079F08090F7
:104D3000710E9090720EA090730EB090740E0E943F
:104D4000DB1A40E0C501B4010E94AD1A8091550EF6
:104D50008093140E8091530E8093120E8091570E03
:104D60009091160E981769F08093160E8CE0FE0154
:104D70003E96A4E3BEE001900D928A95E1F70E9471
:104D8000101B8091540E8093130E8091500E86322A
:104D900009F4B9C008F07BC08C3109F49AC08E3197
:104DA00009F497C08A3009F47FC08091510E809336
:104DB000100E8035B1F0B8A5B23099F4813009F009
:104DC000B6C0BE016F5F7F4F8EE79EE00E94DC1B86
:104DD0008CE0EEE7FEE0A8E2BEE001900D928A953D
:104DE000E1F78091580E8093170E882391F00E946E
:104DF000DB1A8091170E9091A40D833009F013C235
:104E0000923029F088E00E944B030E948F19109283
:104E1000170E8091500E8E53843008F03BCD0E94C7
:104E2000D909182F8091500E8F3309F43DC208F034
:104E300030C28E3309F02ECD6091710E7091720EDA
:104E40008091730E9091740E0E94BF3581E090E0C6
:104E500001C0880F6A95EAF7812B0E94B11B1ACD19
:104E6000003109F0B3CE9F8D90748091100E815067
:104E7000833038F4992309F4A9CE3F8D30623F8FF7
:104E8000A5CE9111A3CE4F8D40624F8F9FCE8C3512
:104E900009F43FC0863609F442C0883209F085CF54
:104EA00068E27EE087E032C060E67EE0822D0E940C
:104EB000151B8091160E281278CF8CE0E0E6FEE0FC
:104EC000A4E3BEE001900D928A95E1F70E94101BC9
:104ED0006CCF8D8581608D8798A5992329F0B701C6
:104EE0008EE79EE00E94DC1BB70180E69EE00E94F8
:104EF000DC1B8CE0E0E6FEE0A8E2BEE001900D9253
:104F00008A95E1F752CF68E27EE086E00E94151BA9
:104F10004CCF8CE0EEE7FEE0A0E4BEE0D3CFE0E4CF
:104F2000FEE08CE0DF011D928A95E9F7CFCF811179
:104F300005C08D8581608D87B70146CF8250823054
:104F400008F013C1C090750ED090760EE090770EE9
:104F5000F090780EF0E0E0E06091600E7091610EEC
:104F60008091620E9091630E10E000E04B015C01B5
:104F70009B01AC01505828A339A34AA35BA3AC0101
:104F80009B01505828A739A74AA75BA7AF014258F1
:104F9000514F3A01E85DF14F2081318142815381C7
:104FA0000E944C349B01AC01D3016D917D918D9198
:104FB0009C910E944B346CA37DA38EA39FA3F80108
:104FC000E85DF14F2081318142815381C501B401F7
:104FD0000E944C349B01AC01D3016D917D918D9168
:104FE0009C910E944B344B015C012CA13DA14EA130
:104FF0005FA168A179A18AA19BA10E945F372B01C3
:105000003C01A501940168A579A58AA59BA50E94EC
:105010005F379B01AC01C301B2010E944C342B01EC
:105020003C01A501940168A179A18AA19BA10E94DC
:105030005F374B015C012CA13DA14EA15FA168A58A
:1050400079A58AA59BA50E945F379B01AC01C5018C
:10505000B4010E944B34A30192010E94CB344B0156
:105060005C01BF8DB2FF6FC02DEB37E346E055EB1F
:105070000E941F3787FD0AC02BED3FE049EC50E44A
:10508000C501B4010E944B344B015C014090F40D0A
:105090005090F50D6090F60D7090F70DA7019601F8
:1050A000C701B6010E944C34A30192010E944B3407
:1050B000A30192010E945F370E94D2372B013C016D
:1050C00020E030E040E05FE3C501B4010E945F37BB
:1050D000A70196010E945F379F77A30192010E946A
:1050E00046350E942B360E94BF357B016115710544
:1050F00009F467CE1D8513FF12C090E080E00E9486
:10510000EE359B01AC0169817A818B819C810E9483
:105110005F3769837A838B839C83177F1D8701E0C8
:1051200010E0E016F10609F44CCEBE016F5F7F4F30
:1051300088E29EE00E94DC1B8091A50D811148CE83
:105140000F5F1F4FEECF2DEB37E346E055E30E9494
:10515000413518160CF49ACF2BED3FE049EC50E4A2
:10516000C501B4010E944C348FCF8D8584608D873A
:105170008091A40D823009F42BCE0E94DB1A80911D
:10518000A50D81112ECE1F8D10711092A90D1092B8
:105190008A0D80910601B7018EE79EE00E94DC1B1C
:1051A00081E08093A30D82E00E944B030E948F193F
:1051B0008091A50D811115CE8091A40D8111F6CF9E
:1051C0008091A30D813059F5112329F18CE0EBE892
:1051D000FDE0A7E9BDE001900D928A95E1F71092FC
:1051E000A30D10928A0D0E948F191092A80D0E9493
:1051F0002A0F0E94370A0E9446040E9421098091CA
:10520000A90D882309F4E4CD6BE87DE088E29EE0F7
:105210000E94A303E6CD85E00E943B03E0CF81E03E
:105220008093A90DDCCF81E08093100E1092140EB4
:105230001092130E1092110E1092160E1092190E5B
:105240001092180E84E68093AD0D8093AE0D80937E
:10525000AF0D923099F064E37EE080E00E94291B5C
:10526000882309F4EBC80E94101B40E050E0BA010B
:1052700080E00E94750B80E00E944B098AE194E077
:105280000E94D30881EB93E00E94D3080E941C097E
:10529000BECD823408F0FECA8091A50D8111FACAF4
:1052A0001092B10D0C94B5206091710E7091720E38
:1052B0008091730E9091740E0E94BF3581E090E052
:1052C00001C0880F6A95EAF780958123C6CD81E0F9
:1052D0000C94B52082E00C94B52089E10C94B520A3
:1052E0008BE10C94B52080E20C94B52082E20C9402
:1052F000B52086E20C94B5208FE00C94B5201F9267
:105300000F920FB60F9211248F938091890D8F5FAA
:105310008093890D8F910F900FBE0F901F9018955D
:105320001F920F920FB60F9211240BB60F922F936C
:105330003F934F935F936F937F938F939F93AF931D
:10534000BF93EF93FF930E94DF03882321F081FF37
:1053500015C00E94830FFF91EF91BF91AF919F9174
:105360008F917F916F915F914F913F912F910F900E
:105370000BBE0F900FBE0F901F90189583FF06C0B5
:105380008091850D82608093850DE5CF82FF04C0FA
:105390008091850D8860F7CF80FFDDCF8091850DEE
:1053A0008062F1CF1F920F920FB60F9211240BB6AD
:1053B0000F928F939F93AF93BF93EF93FF93E8E088
:1053C000F1E080818F7BA5E1B4E09C91892B808303
:1053D00080818F7B11969C911197892B808380818E
:1053E000877F12969C91892B808315BCFF91EF914A
:1053F000BF91AF919F918F910F900BBE0F900FBEF9
:105400000F901F9018951F920F920FB60F921124B4
:105410000BB60F920F931F932F933F934F935F936E
:105420006F937F938F939F93AF93BF93EF93FF936C
:1054300080911B04811142C2809108018D7F90915F
:105440002D04892B80930801809108018F7790911A
:105450002E04892B80930801809108018D7F909103
:105460002F04892B80930801809108018F7B9091F4
:105470002A04892B80930801809108018F7B9091E9
:105480002B04892B8093080180910801877F9091DC
:105490002C04892B809308018091290486BD82E029
:1054A00085BD81E080931B047894809141049091A4
:1054B0004204892B09F0ACC080914304909195047B
:1054C000981709F4E6C18091430498E0899FD001C0
:1054D0001124FD01EB5BFB4FF0934204E093410488
:1054E000228133813093890020938800208131818B
:1054F00030933D0420933C04E48120913E042E1718
:1055000061F1E0933E0484E1E89FF0011124E85644
:10551000FB4FF0934004E0933F0444855585668536
:1055200077857695679557954795409324045093D2
:10553000250460932604709327044093200450931D
:105540002104609322047093230440931C0450931D
:105550001D0460931E0470931F04E0913F04F091BA
:105560004004209118043089232720932D04218999
:1055700030911904232720932E04228930911A0494
:10558000232720932F04AB5BBB4F15969C91159757
:105590004081518162817381092E04C0769567959F
:1055A000579547950A94D2F74093300450933104AD
:1055B000609332047093330444815581668177810E
:1055C000092E04C076956795579547950A94D2F7AA
:1055D0004093340450933504609336047093370439
:1055E000408551856285738504C07695679557958A
:1055F00047959A95D2F740933804509339046093B5
:105600003A0470933B0416968D919C910E94E9098F
:105610008091A30D8130B1F48091060180918A0DB3
:10562000882381F01092A30D8CE0EBE8FDE0A7E960
:10563000BDE001900D928A95E1F78091850D80641F
:105640008093850D10922A0410922B0410922C0442
:1056500080911C0490911D04A0911E04B0911F0420
:1056600040913004509131046091320470913304C0
:10567000840F951FA61FB71F80931C0490931D04D1
:10568000A0931E04B0931F04E0913F04F0914004E6
:105690004485558566857785481759076A077B07CE
:1056A00028F520E420932A04841B950BA60BB70B46
:1056B00080931C0490931D04A0931E04B0931F04B8
:1056C00080918B0D90918C0DA0918D0DB0918E0DD0
:1056D000208921FF08C10197A109B10980938B0D91
:1056E00090938C0DA0938D0DB0938E0D809120041E
:1056F00090912104A0912204B091230400913404DC
:10570000109135042091360430913704800F911F99
:10571000A21FB31F8093200490932104A09322041E
:10572000B0932304481759076A077B0728F520E43C
:1057300020932B04841B950BA60BB70B809320049E
:1057400090932104A0932204B093230480918F0DA1
:105750009091900DA091910DB091920D218927FF0C
:10576000C6C00197A109B10980938F0D9093900D48
:10577000A093910DB093920D8091240490912504F3
:10578000A0912604B09127040091380410913904A7
:1057900020913A0430913B04800F911FA21FB31F48
:1057A0008093240490932504A0932604B0932704A7
:1057B000481759076A077B0728F528E020932C042F
:1057C000841B950BA60BB70B8093240490932504A0
:1057D000A0932604B09327048091930D9091940D8B
:1057E000A091950DB091960D228921FF84C001975B
:1057F000A109B1098093930D9093940DA093950DF9
:10580000B093960D3091A40D90E080E0343069F4AF
:10581000DC01A45EBB4F1E962C911E97FC01EC553B
:10582000F24F468124231E962C93019683309105D6
:1058300069F780913C0490913D04019790933D0459
:1058400080933C04892B69F4109242041092410425
:10585000809143048F5F809343048A3011F4109247
:1058600043048091150490912A04892780932A0487
:105870008091160490912B04892780932B048091AA
:105880002C0490911704892780932C0410921B04F8
:1058900015C00E94EB0EE0913F04F0914004838913
:1058A000882349F01092AD001092AC008091A000C6
:1058B000877F8093A00084E00E944B03FF91EF91CB
:1058C000BF91AF919F918F917F916F915F914F9118
:1058D0003F912F911F910F910F900BBE0F900FBE14
:1058E0000F901F9018950196A11DB11DF7CE01963E
:1058F000A11DB11D39CF0196A11DB11D7BCF1F92F6
:105900000F920FB60F9211240BB60F922F933F9365
:105910004F935F936F937F938F939F93AF93BF93B7
:10592000EF93FF93E091C600E13209F450C008F014
:105930002EC0E83109F434C0E7FF7DC0E458EE31F1
:1059400008F030C0F0E08827E755F34D8F4F0C94F6
:105950005638E92CEB2CD22CD22CD22CD22CD22C97
:10596000D22CD22CD22CD22CD22CF72CFB2CFD2CCE
:10597000FF2C012D032D052D072DD22C092D0D2DCA
:105980000F2D112D132D152DD22C172D192DEF3371
:10599000E1F082E0EE3709F0CFCF0E944B0302C066
:1059A0000E94830FFF91EF91BF91AF919F918F91D3
:1059B0007F916F915F914F913F912F910F900BBE0F
:1059C0000F900FBE0F901F90189581E0E6CF88E0F2
:1059D000E4CF80E2E2CF8091A40D85FFE3CF80E4A5
:1059E0000E944B038091830D8093840DDBCF81E077
:1059F0000E943203D7CF82E0FBCF84E0F9CF88E06A
:105A0000F7CF80E1F5CF80E2F3CF80E4F1CF80E8FB
:105A1000EFCF81E00E942903C5CF82E0FBCF84E075
:105A2000F9CF88E0F7CF80E1F5CF80E2F3CF80E4D3
:105A3000F1CF80E8EFCF8091830D8F5F9091840D3F
:105A4000981749F0A091830DB0E0AB5EBC4FEC938A
:105A50008093830DA7CF8BE00E943B03A3CF1F92BF
:105A60000F920FB60F9211240BB60F928F939F9344
:105A7000EF93FF9380911403E82FF0E0EC5EFD4F6D
:105A800090819093C6008F5F8093140390911302CE
:105A9000981305C08091C1008F7D8093C100FF9154
:105AA000EF919F918F910F900BBE0F900FBE0F90B3
:105AB0001F901895CF93DF93CDB7DEB766970FB6DB
:105AC000F894DEBF0FBECDBF8091C000826080938E
:105AD000C0001092C50080E18093C4008091C10095
